{"abi":[{"type":"constructor","inputs":[],"stateMutability":"nonpayable"},{"type":"fallback","stateMutability":"payable"},{"type":"receive","stateMutability":"payable"},{"type":"function","name":"SET_ADMIN","inputs":[],"outputs":[{"name":"","type":"bytes32","internalType":"bytes32"}],"stateMutability":"view"},{"type":"function","name":"SET_EXIT_FEE","inputs":[],"outputs":[{"name":"","type":"bytes32","internalType":"bytes32"}],"stateMutability":"view"},{"type":"function","name":"approvals","inputs":[{"name":"receiver","type":"address","internalType":"address"},{"name":"sender","type":"address","internalType":"address"}],"outputs":[{"name":"approvalType","type":"uint8","internalType":"uint8"}],"stateMutability":"view"},{"type":"function","name":"approve","inputs":[{"name":"sender","type":"address","internalType":"address"},{"name":"approvalType","type":"uint8","internalType":"enum IEthMultiVault.ApprovalTypes"}],"outputs":[],"stateMutability":"nonpayable"},{"type":"function","name":"atomConfig","inputs":[],"outputs":[{"name":"atomWalletInitialDepositAmount","type":"uint256","internalType":"uint256"},{"name":"atomCreationProtocolFee","type":"uint256","internalType":"uint256"}],"stateMutability":"view"},{"type":"function","name":"atomDepositsAmount","inputs":[{"name":"assets","type":"uint256","internalType":"uint256"},{"name":"id","type":"uint256","internalType":"uint256"}],"outputs":[{"name":"","type":"uint256","internalType":"uint256"}],"stateMutability":"view"},{"type":"function","name":"atoms","inputs":[{"name":"atomId","type":"uint256","internalType":"uint256"}],"outputs":[{"name":"atomData","type":"bytes","internalType":"bytes"}],"stateMutability":"view"},{"type":"function","name":"atomsByHash","inputs":[{"name":"atomHash","type":"bytes32","internalType":"bytes32"}],"outputs":[{"name":"atomId","type":"uint256","internalType":"uint256"}],"stateMutability":"view"},{"type":"function","name":"batchCreateAtom","inputs":[{"name":"atomUris","type":"bytes[]","internalType":"bytes[]"}],"outputs":[{"name":"","type":"uint256[]","internalType":"uint256[]"}],"stateMutability":"payable"},{"type":"function","name":"batchCreateTriple","inputs":[{"name":"subjectIds","type":"uint256[]","internalType":"uint256[]"},{"name":"predicateIds","type":"uint256[]","internalType":"uint256[]"},{"name":"objectIds","type":"uint256[]","internalType":"uint256[]"}],"outputs":[{"name":"","type":"uint256[]","internalType":"uint256[]"}],"stateMutability":"payable"},{"type":"function","name":"batchDeposit","inputs":[{"name":"receiver","type":"address","internalType":"address"},{"name":"termIds","type":"uint256[]","internalType":"uint256[]"},{"name":"amounts","type":"uint256[]","internalType":"uint256[]"}],"outputs":[{"name":"shares","type":"uint256[]","internalType":"uint256[]"}],"stateMutability":"payable"},{"type":"function","name":"batchDepositCurve","inputs":[{"name":"receiver","type":"address","internalType":"address"},{"name":"termIds","type":"uint256[]","internalType":"uint256[]"},{"name":"curveIds","type":"uint256[]","internalType":"uint256[]"},{"name":"amounts","type":"uint256[]","internalType":"uint256[]"}],"outputs":[{"name":"shares","type":"uint256[]","internalType":"uint256[]"}],"stateMutability":"payable"},{"type":"function","name":"batchRedeem","inputs":[{"name":"percentage","type":"uint256","internalType":"uint256"},{"name":"receiver","type":"address","internalType":"address"},{"name":"ids","type":"uint256[]","internalType":"uint256[]"}],"outputs":[{"name":"assets","type":"uint256[]","internalType":"uint256[]"}],"stateMutability":"nonpayable"},{"type":"function","name":"batchRedeemCurve","inputs":[{"name":"percentage","type":"uint256","internalType":"uint256"},{"name":"receiver","type":"address","internalType":"address"},{"name":"termIds","type":"uint256[]","internalType":"uint256[]"},{"name":"curveIds","type":"uint256[]","internalType":"uint256[]"}],"outputs":[{"name":"assets","type":"uint256[]","internalType":"uint256[]"}],"stateMutability":"nonpayable"},{"type":"function","name":"bondingCurveConfig","inputs":[],"outputs":[{"name":"registry","type":"address","internalType":"address"},{"name":"defaultCurveId","type":"uint256","internalType":"uint256"}],"stateMutability":"view"},{"type":"function","name":"bondingCurveVaults","inputs":[{"name":"vaultId","type":"uint256","internalType":"uint256"},{"name":"curveId","type":"uint256","internalType":"uint256"}],"outputs":[{"name":"totalAssets","type":"uint256","internalType":"uint256"},{"name":"totalShares","type":"uint256","internalType":"uint256"}],"stateMutability":"view"},{"type":"function","name":"cancelOperation","inputs":[{"name":"operationId","type":"bytes32","internalType":"bytes32"},{"name":"data","type":"bytes","internalType":"bytes"}],"outputs":[],"stateMutability":"nonpayable"},{"type":"function","name":"computeAtomWalletAddr","inputs":[{"name":"id","type":"uint256","internalType":"uint256"}],"outputs":[{"name":"","type":"address","internalType":"address"}],"stateMutability":"view"},{"type":"function","name":"convertToAssets","inputs":[{"name":"shares","type":"uint256","internalType":"uint256"},{"name":"id","type":"uint256","internalType":"uint256"}],"outputs":[{"name":"","type":"uint256","internalType":"uint256"}],"stateMutability":"view"},{"type":"function","name":"convertToAssetsCurve","inputs":[{"name":"shares","type":"uint256","internalType":"uint256"},{"name":"id","type":"uint256","internalType":"uint256"},{"name":"curveId","type":"uint256","internalType":"uint256"}],"outputs":[{"name":"","type":"uint256","internalType":"uint256"}],"stateMutability":"view"},{"type":"function","name":"convertToShares","inputs":[{"name":"assets","type":"uint256","internalType":"uint256"},{"name":"id","type":"uint256","internalType":"uint256"}],"outputs":[{"name":"","type":"uint256","internalType":"uint256"}],"stateMutability":"view"},{"type":"function","name":"convertToSharesCurve","inputs":[{"name":"assets","type":"uint256","internalType":"uint256"},{"name":"id","type":"uint256","internalType":"uint256"},{"name":"curveId","type":"uint256","internalType":"uint256"}],"outputs":[{"name":"","type":"uint256","internalType":"uint256"}],"stateMutability":"view"},{"type":"function","name":"count","inputs":[],"outputs":[{"name":"","type":"uint256","internalType":"uint256"}],"stateMutability":"view"},{"type":"function","name":"createAtom","inputs":[{"name":"atomUri","type":"bytes","internalType":"bytes"}],"outputs":[{"name":"","type":"uint256","internalType":"uint256"}],"stateMutability":"payable"},{"type":"function","name":"createTriple","inputs":[{"name":"subjectId","type":"uint256","internalType":"uint256"},{"name":"predicateId","type":"uint256","internalType":"uint256"},{"name":"objectId","type":"uint256","internalType":"uint256"}],"outputs":[{"name":"","type":"uint256","internalType":"uint256"}],"stateMutability":"payable"},{"type":"function","name":"currentSharePrice","inputs":[{"name":"id","type":"uint256","internalType":"uint256"}],"outputs":[{"name":"","type":"uint256","internalType":"uint256"}],"stateMutability":"view"},{"type":"function","name":"currentSharePriceCurve","inputs":[{"name":"id","type":"uint256","internalType":"uint256"},{"name":"curveId","type":"uint256","internalType":"uint256"}],"outputs":[{"name":"","type":"uint256","internalType":"uint256"}],"stateMutability":"view"},{"type":"function","name":"deployAtomWallet","inputs":[{"name":"atomId","type":"uint256","internalType":"uint256"}],"outputs":[{"name":"","type":"address","internalType":"address"}],"stateMutability":"nonpayable"},{"type":"function","name":"depositAtom","inputs":[{"name":"receiver","type":"address","internalType":"address"},{"name":"id","type":"uint256","internalType":"uint256"}],"outputs":[{"name":"","type":"uint256","internalType":"uint256"}],"stateMutability":"payable"},{"type":"function","name":"depositAtomCurve","inputs":[{"name":"receiver","type":"address","internalType":"address"},{"name":"atomId","type":"uint256","internalType":"uint256"},{"name":"curveId","type":"uint256","internalType":"uint256"}],"outputs":[{"name":"","type":"uint256","internalType":"uint256"}],"stateMutability":"payable"},{"type":"function","name":"depositTriple","inputs":[{"name":"receiver","type":"address","internalType":"address"},{"name":"id","type":"uint256","internalType":"uint256"}],"outputs":[{"name":"","type":"uint256","internalType":"uint256"}],"stateMutability":"payable"},{"type":"function","name":"depositTripleCurve","inputs":[{"name":"receiver","type":"address","internalType":"address"},{"name":"tripleId","type":"uint256","internalType":"uint256"},{"name":"curveId","type":"uint256","internalType":"uint256"}],"outputs":[{"name":"","type":"uint256","internalType":"uint256"}],"stateMutability":"payable"},{"type":"function","name":"entryFeeAmount","inputs":[{"name":"assets","type":"uint256","internalType":"uint256"},{"name":"id","type":"uint256","internalType":"uint256"}],"outputs":[{"name":"","type":"uint256","internalType":"uint256"}],"stateMutability":"view"},{"type":"function","name":"exitFeeAmount","inputs":[{"name":"assets","type":"uint256","internalType":"uint256"},{"name":"id","type":"uint256","internalType":"uint256"}],"outputs":[{"name":"","type":"uint256","internalType":"uint256"}],"stateMutability":"view"},{"type":"function","name":"generalConfig","inputs":[],"outputs":[{"name":"admin","type":"address","internalType":"address"},{"name":"protocolMultisig","type":"address","internalType":"address"},{"name":"feeDenominator","type":"uint256","internalType":"uint256"},{"name":"minDeposit","type":"uint256","internalType":"uint256"},{"name":"minShare","type":"uint256","internalType":"uint256"},{"name":"atomUriMaxLength","type":"uint256","internalType":"uint256"},{"name":"decimalPrecision","type":"uint256","internalType":"uint256"},{"name":"minDelay","type":"uint256","internalType":"uint256"}],"stateMutability":"view"},{"type":"function","name":"getAtomCost","inputs":[],"outputs":[{"name":"","type":"uint256","internalType":"uint256"}],"stateMutability":"view"},{"type":"function","name":"getAtomWarden","inputs":[],"outputs":[{"name":"","type":"address","internalType":"address"}],"stateMutability":"view"},{"type":"function","name":"getCounterIdFromTriple","inputs":[{"name":"id","type":"uint256","internalType":"uint256"}],"outputs":[{"name":"","type":"uint256","internalType":"uint256"}],"stateMutability":"pure"},{"type":"function","name":"getCurveVaultState","inputs":[{"name":"termId","type":"uint256","internalType":"uint256"},{"name":"curveId","type":"uint256","internalType":"uint256"}],"outputs":[{"name":"","type":"uint256","internalType":"uint256"},{"name":"","type":"uint256","internalType":"uint256"}],"stateMutability":"view"},{"type":"function","name":"getDepositFees","inputs":[{"name":"assets","type":"uint256","internalType":"uint256"},{"name":"id","type":"uint256","internalType":"uint256"}],"outputs":[{"name":"","type":"uint256","internalType":"uint256"}],"stateMutability":"view"},{"type":"function","name":"getDepositSharesAndFees","inputs":[{"name":"assets","type":"uint256","internalType":"uint256"},{"name":"id","type":"uint256","internalType":"uint256"}],"outputs":[{"name":"","type":"uint256","internalType":"uint256"},{"name":"","type":"uint256","internalType":"uint256"},{"name":"","type":"uint256","internalType":"uint256"},{"name":"","type":"uint256","internalType":"uint256"}],"stateMutability":"view"},{"type":"function","name":"getDepositSharesAndFeesCurve","inputs":[{"name":"assets","type":"uint256","internalType":"uint256"},{"name":"id","type":"uint256","internalType":"uint256"},{"name":"curveId","type":"uint256","internalType":"uint256"}],"outputs":[{"name":"","type":"uint256","internalType":"uint256"},{"name":"","type":"uint256","internalType":"uint256"},{"name":"","type":"uint256","internalType":"uint256"},{"name":"","type":"uint256","internalType":"uint256"}],"stateMutability":"view"},{"type":"function","name":"getRedeemAssetsAndFees","inputs":[{"name":"shares","type":"uint256","internalType":"uint256"},{"name":"id","type":"uint256","internalType":"uint256"}],"outputs":[{"name":"","type":"uint256","internalType":"uint256"},{"name":"","type":"uint256","internalType":"uint256"},{"name":"","type":"uint256","internalType":"uint256"},{"name":"","type":"uint256","internalType":"uint256"}],"stateMutability":"view"},{"type":"function","name":"getRedeemAssetsAndFeesCurve","inputs":[{"name":"shares","type":"uint256","internalType":"uint256"},{"name":"id","type":"uint256","internalType":"uint256"},{"name":"curveId","type":"uint256","internalType":"uint256"}],"outputs":[{"name":"","type":"uint256","internalType":"uint256"},{"name":"","type":"uint256","internalType":"uint256"},{"name":"","type":"uint256","internalType":"uint256"},{"name":"","type":"uint256","internalType":"uint256"}],"stateMutability":"view"},{"type":"function","name":"getTripleAtoms","inputs":[{"name":"id","type":"uint256","internalType":"uint256"}],"outputs":[{"name":"","type":"uint256","internalType":"uint256"},{"name":"","type":"uint256","internalType":"uint256"},{"name":"","type":"uint256","internalType":"uint256"}],"stateMutability":"view"},{"type":"function","name":"getTripleCost","inputs":[],"outputs":[{"name":"","type":"uint256","internalType":"uint256"}],"stateMutability":"view"},{"type":"function","name":"getVaultStateForUser","inputs":[{"name":"vaultId","type":"uint256","internalType":"uint256"},{"name":"receiver","type":"address","internalType":"address"}],"outputs":[{"name":"","type":"uint256","internalType":"uint256"},{"name":"","type":"uint256","internalType":"uint256"}],"stateMutability":"view"},{"type":"function","name":"getVaultStateForUserCurve","inputs":[{"name":"vaultId","type":"uint256","internalType":"uint256"},{"name":"curveId","type":"uint256","internalType":"uint256"},{"name":"receiver","type":"address","internalType":"address"}],"outputs":[{"name":"","type":"uint256","internalType":"uint256"},{"name":"","type":"uint256","internalType":"uint256"}],"stateMutability":"view"},{"type":"function","name":"init","inputs":[{"name":"_generalConfig","type":"tuple","internalType":"struct IEthMultiVault.GeneralConfig","components":[{"name":"admin","type":"address","internalType":"address"},{"name":"protocolMultisig","type":"address","internalType":"address"},{"name":"feeDenominator","type":"uint256","internalType":"uint256"},{"name":"minDeposit","type":"uint256","internalType":"uint256"},{"name":"minShare","type":"uint256","internalType":"uint256"},{"name":"atomUriMaxLength","type":"uint256","internalType":"uint256"},{"name":"decimalPrecision","type":"uint256","internalType":"uint256"},{"name":"minDelay","type":"uint256","internalType":"uint256"}]},{"name":"_atomConfig","type":"tuple","internalType":"struct IEthMultiVault.AtomConfig","components":[{"name":"atomWalletInitialDepositAmount","type":"uint256","internalType":"uint256"},{"name":"atomCreationProtocolFee","type":"uint256","internalType":"uint256"}]},{"name":"_tripleConfig","type":"tuple","internalType":"struct IEthMultiVault.TripleConfig","components":[{"name":"tripleCreationProtocolFee","type":"uint256","internalType":"uint256"},{"name":"totalAtomDepositsOnTripleCreation","type":"uint256","internalType":"uint256"},{"name":"totalAtomDepositsForTriple","type":"uint256","internalType":"uint256"}]},{"name":"_walletConfig","type":"tuple","internalType":"struct IEthMultiVault.WalletConfig","components":[{"name":"permit2","type":"address","internalType":"contract IPermit2"},{"name":"entryPoint","type":"address","internalType":"address"},{"name":"atomWarden","type":"address","internalType":"address"},{"name":"atomWalletBeacon","type":"address","internalType":"address"}]},{"name":"_defaultVaultFees","type":"tuple","internalType":"struct IEthMultiVault.VaultFees","components":[{"name":"entryFee","type":"uint256","internalType":"uint256"},{"name":"exitFee","type":"uint256","internalType":"uint256"},{"name":"protocolFee","type":"uint256","internalType":"uint256"}]},{"name":"_bondingCurveConfig","type":"tuple","internalType":"struct IEthMultiVault.BondingCurveConfig","components":[{"name":"registry","type":"address","internalType":"address"},{"name":"defaultCurveId","type":"uint256","internalType":"uint256"}]}],"outputs":[],"stateMutability":"nonpayable"},{"type":"function","name":"isApprovedDeposit","inputs":[{"name":"sender","type":"address","internalType":"address"},{"name":"receiver","type":"address","internalType":"address"}],"outputs":[{"name":"","type":"bool","internalType":"bool"}],"stateMutability":"view"},{"type":"function","name":"isApprovedRedeem","inputs":[{"name":"sender","type":"address","internalType":"address"},{"name":"receiver","type":"address","internalType":"address"}],"outputs":[{"name":"","type":"bool","internalType":"bool"}],"stateMutability":"view"},{"type":"function","name":"isTriple","inputs":[{"name":"vaultId","type":"uint256","internalType":"uint256"}],"outputs":[{"name":"isTriple","type":"bool","internalType":"bool"}],"stateMutability":"view"},{"type":"function","name":"isTripleId","inputs":[{"name":"id","type":"uint256","internalType":"uint256"}],"outputs":[{"name":"","type":"bool","internalType":"bool"}],"stateMutability":"view"},{"type":"function","name":"maxDeposit","inputs":[],"outputs":[{"name":"","type":"uint256","internalType":"uint256"}],"stateMutability":"pure"},{"type":"function","name":"maxDepositCurve","inputs":[{"name":"curveId","type":"uint256","internalType":"uint256"}],"outputs":[{"name":"","type":"uint256","internalType":"uint256"}],"stateMutability":"view"},{"type":"function","name":"maxRedeem","inputs":[{"name":"sender","type":"address","internalType":"address"},{"name":"id","type":"uint256","internalType":"uint256"}],"outputs":[{"name":"","type":"uint256","internalType":"uint256"}],"stateMutability":"view"},{"type":"function","name":"maxRedeemCurve","inputs":[{"name":"sender","type":"address","internalType":"address"},{"name":"id","type":"uint256","internalType":"uint256"},{"name":"curveId","type":"uint256","internalType":"uint256"}],"outputs":[{"name":"","type":"uint256","internalType":"uint256"}],"stateMutability":"view"},{"type":"function","name":"pause","inputs":[],"outputs":[],"stateMutability":"nonpayable"},{"type":"function","name":"paused","inputs":[],"outputs":[{"name":"","type":"bool","internalType":"bool"}],"stateMutability":"view"},{"type":"function","name":"previewDeposit","inputs":[{"name":"assets","type":"uint256","internalType":"uint256"},{"name":"id","type":"uint256","internalType":"uint256"}],"outputs":[{"name":"","type":"uint256","internalType":"uint256"}],"stateMutability":"view"},{"type":"function","name":"previewDepositCurve","inputs":[{"name":"assets","type":"uint256","internalType":"uint256"},{"name":"id","type":"uint256","internalType":"uint256"},{"name":"curveId","type":"uint256","internalType":"uint256"}],"outputs":[{"name":"","type":"uint256","internalType":"uint256"}],"stateMutability":"view"},{"type":"function","name":"previewRedeem","inputs":[{"name":"shares","type":"uint256","internalType":"uint256"},{"name":"id","type":"uint256","internalType":"uint256"}],"outputs":[{"name":"","type":"uint256","internalType":"uint256"}],"stateMutability":"view"},{"type":"function","name":"previewRedeemCurve","inputs":[{"name":"shares","type":"uint256","internalType":"uint256"},{"name":"id","type":"uint256","internalType":"uint256"},{"name":"curveId","type":"uint256","internalType":"uint256"}],"outputs":[{"name":"","type":"uint256","internalType":"uint256"}],"stateMutability":"view"},{"type":"function","name":"protocolFeeAmount","inputs":[{"name":"assets","type":"uint256","internalType":"uint256"},{"name":"id","type":"uint256","internalType":"uint256"}],"outputs":[{"name":"","type":"uint256","internalType":"uint256"}],"stateMutability":"view"},{"type":"function","name":"redeemAtom","inputs":[{"name":"shares","type":"uint256","internalType":"uint256"},{"name":"receiver","type":"address","internalType":"address"},{"name":"id","type":"uint256","internalType":"uint256"}],"outputs":[{"name":"","type":"uint256","internalType":"uint256"}],"stateMutability":"nonpayable"},{"type":"function","name":"redeemAtomCurve","inputs":[{"name":"shares","type":"uint256","internalType":"uint256"},{"name":"receiver","type":"address","internalType":"address"},{"name":"atomId","type":"uint256","internalType":"uint256"},{"name":"curveId","type":"uint256","internalType":"uint256"}],"outputs":[{"name":"","type":"uint256","internalType":"uint256"}],"stateMutability":"nonpayable"},{"type":"function","name":"redeemTriple","inputs":[{"name":"shares","type":"uint256","internalType":"uint256"},{"name":"receiver","type":"address","internalType":"address"},{"name":"id","type":"uint256","internalType":"uint256"}],"outputs":[{"name":"","type":"uint256","internalType":"uint256"}],"stateMutability":"nonpayable"},{"type":"function","name":"redeemTripleCurve","inputs":[{"name":"shares","type":"uint256","internalType":"uint256"},{"name":"receiver","type":"address","internalType":"address"},{"name":"tripleId","type":"uint256","internalType":"uint256"},{"name":"curveId","type":"uint256","internalType":"uint256"}],"outputs":[{"name":"","type":"uint256","internalType":"uint256"}],"stateMutability":"nonpayable"},{"type":"function","name":"scheduleOperation","inputs":[{"name":"operationId","type":"bytes32","internalType":"bytes32"},{"name":"data","type":"bytes","internalType":"bytes"}],"outputs":[],"stateMutability":"nonpayable"},{"type":"function","name":"setAdmin","inputs":[{"name":"admin","type":"address","internalType":"address"}],"outputs":[],"stateMutability":"nonpayable"},{"type":"function","name":"setAtomCreationProtocolFee","inputs":[{"name":"atomCreationProtocolFee","type":"uint256","internalType":"uint256"}],"outputs":[],"stateMutability":"nonpayable"},{"type":"function","name":"setAtomUriMaxLength","inputs":[{"name":"atomUriMaxLength","type":"uint256","internalType":"uint256"}],"outputs":[],"stateMutability":"nonpayable"},{"type":"function","name":"setAtomWalletInitialDepositAmount","inputs":[{"name":"atomWalletInitialDepositAmount","type":"uint256","internalType":"uint256"}],"outputs":[],"stateMutability":"nonpayable"},{"type":"function","name":"setAtomWarden","inputs":[{"name":"atomWarden","type":"address","internalType":"address"}],"outputs":[],"stateMutability":"nonpayable"},{"type":"function","name":"setEntryFee","inputs":[{"name":"id","type":"uint256","internalType":"uint256"},{"name":"entryFee","type":"uint256","internalType":"uint256"}],"outputs":[],"stateMutability":"nonpayable"},{"type":"function","name":"setExitFee","inputs":[{"name":"id","type":"uint256","internalType":"uint256"},{"name":"exitFee","type":"uint256","internalType":"uint256"}],"outputs":[],"stateMutability":"nonpayable"},{"type":"function","name":"setMinDeposit","inputs":[{"name":"minDeposit","type":"uint256","internalType":"uint256"}],"outputs":[],"stateMutability":"nonpayable"},{"type":"function","name":"setMinShare","inputs":[{"name":"minShare","type":"uint256","internalType":"uint256"}],"outputs":[],"stateMutability":"nonpayable"},{"type":"function","name":"setProtocolFee","inputs":[{"name":"id","type":"uint256","internalType":"uint256"},{"name":"protocolFee","type":"uint256","internalType":"uint256"}],"outputs":[],"stateMutability":"nonpayable"},{"type":"function","name":"setProtocolMultisig","inputs":[{"name":"protocolMultisig","type":"address","internalType":"address"}],"outputs":[],"stateMutability":"nonpayable"},{"type":"function","name":"setTotalAtomDepositsForTriple","inputs":[{"name":"totalAtomDepositsForTriple","type":"uint256","internalType":"uint256"}],"outputs":[],"stateMutability":"nonpayable"},{"type":"function","name":"setTotalAtomDepositsOnTripleCreation","inputs":[{"name":"totalAtomDepositsOnTripleCreation","type":"uint256","internalType":"uint256"}],"outputs":[],"stateMutability":"nonpayable"},{"type":"function","name":"setTripleCreationProtocolFee","inputs":[{"name":"tripleCreationProtocolFee","type":"uint256","internalType":"uint256"}],"outputs":[],"stateMutability":"nonpayable"},{"type":"function","name":"timelocks","inputs":[{"name":"operationHash","type":"bytes32","internalType":"bytes32"}],"outputs":[{"name":"data","type":"bytes","internalType":"bytes"},{"name":"readyTime","type":"uint256","internalType":"uint256"},{"name":"executed","type":"bool","internalType":"bool"}],"stateMutability":"view"},{"type":"function","name":"tripleConfig","inputs":[],"outputs":[{"name":"tripleCreationProtocolFee","type":"uint256","internalType":"uint256"},{"name":"totalAtomDepositsOnTripleCreation","type":"uint256","internalType":"uint256"},{"name":"totalAtomDepositsForTriple","type":"uint256","internalType":"uint256"}],"stateMutability":"view"},{"type":"function","name":"tripleHash","inputs":[{"name":"id","type":"uint256","internalType":"uint256"}],"outputs":[{"name":"","type":"bytes32","internalType":"bytes32"}],"stateMutability":"view"},{"type":"function","name":"tripleHashFromAtoms","inputs":[{"name":"subjectId","type":"uint256","internalType":"uint256"},{"name":"predicateId","type":"uint256","internalType":"uint256"},{"name":"objectId","type":"uint256","internalType":"uint256"}],"outputs":[{"name":"","type":"bytes32","internalType":"bytes32"}],"stateMutability":"pure"},{"type":"function","name":"triples","inputs":[{"name":"tripleId","type":"uint256","internalType":"uint256"},{"name":"","type":"uint256","internalType":"uint256"}],"outputs":[{"name":"tripleAtomIds","type":"uint256","internalType":"uint256"}],"stateMutability":"view"},{"type":"function","name":"triplesByHash","inputs":[{"name":"tripleHash","type":"bytes32","internalType":"bytes32"}],"outputs":[{"name":"tripleId","type":"uint256","internalType":"uint256"}],"stateMutability":"view"},{"type":"function","name":"unpause","inputs":[],"outputs":[],"stateMutability":"nonpayable"},{"type":"function","name":"vaultFees","inputs":[{"name":"vaultId","type":"uint256","internalType":"uint256"}],"outputs":[{"name":"entryFee","type":"uint256","internalType":"uint256"},{"name":"exitFee","type":"uint256","internalType":"uint256"},{"name":"protocolFee","type":"uint256","internalType":"uint256"}],"stateMutability":"view"},{"type":"function","name":"vaults","inputs":[{"name":"vaultId","type":"uint256","internalType":"uint256"}],"outputs":[{"name":"totalAssets","type":"uint256","internalType":"uint256"},{"name":"totalShares","type":"uint256","internalType":"uint256"}],"stateMutability":"view"},{"type":"function","name":"walletConfig","inputs":[],"outputs":[{"name":"permit2","type":"address","internalType":"contract IPermit2"},{"name":"entryPoint","type":"address","internalType":"address"},{"name":"atomWarden","type":"address","internalType":"address"},{"name":"atomWalletBeacon","type":"address","internalType":"address"}],"stateMutability":"view"},{"type":"event","name":"AdminSet","inputs":[{"name":"newAdmin","type":"address","indexed":true,"internalType":"address"},{"name":"oldAdmin","type":"address","indexed":true,"internalType":"address"}],"anonymous":false},{"type":"event","name":"ApprovalTypeUpdated","inputs":[{"name":"sender","type":"address","indexed":true,"internalType":"address"},{"name":"receiver","type":"address","indexed":true,"internalType":"address"},{"name":"approvalType","type":"uint8","indexed":false,"internalType":"enum IEthMultiVault.ApprovalTypes"}],"anonymous":false},{"type":"event","name":"AtomCreated","inputs":[{"name":"creator","type":"address","indexed":true,"internalType":"address"},{"name":"atomWallet","type":"address","indexed":true,"internalType":"address"},{"name":"atomData","type":"bytes","indexed":false,"internalType":"bytes"},{"name":"vaultId","type":"uint256","indexed":false,"internalType":"uint256"}],"anonymous":false},{"type":"event","name":"AtomCreationProtocolFeeSet","inputs":[{"name":"newAtomCreationProtocolFee","type":"uint256","indexed":false,"internalType":"uint256"},{"name":"oldAtomCreationProtocolFee","type":"uint256","indexed":false,"internalType":"uint256"}],"anonymous":false},{"type":"event","name":"AtomUriMaxLengthSet","inputs":[{"name":"newAtomUriMaxLength","type":"uint256","indexed":false,"internalType":"uint256"},{"name":"oldAtomUriMaxLength","type":"uint256","indexed":false,"internalType":"uint256"}],"anonymous":false},{"type":"event","name":"AtomWalletDeployed","inputs":[{"name":"vaultId","type":"uint256","indexed":true,"internalType":"uint256"},{"name":"atomWallet","type":"address","indexed":true,"internalType":"address"}],"anonymous":false},{"type":"event","name":"AtomWalletInitialDepositAmountSet","inputs":[{"name":"newAtomWalletInitialDepositAmount","type":"uint256","indexed":false,"internalType":"uint256"},{"name":"oldAtomWalletInitialDepositAmount","type":"uint256","indexed":false,"internalType":"uint256"}],"anonymous":false},{"type":"event","name":"AtomWardenSet","inputs":[{"name":"newAtomWarden","type":"address","indexed":true,"internalType":"address"},{"name":"oldAtomWarden","type":"address","indexed":true,"internalType":"address"}],"anonymous":false},{"type":"event","name":"Deposited","inputs":[{"name":"sender","type":"address","indexed":true,"internalType":"address"},{"name":"receiver","type":"address","indexed":true,"internalType":"address"},{"name":"receiverTotalSharesInVault","type":"uint256","indexed":false,"internalType":"uint256"},{"name":"senderAssetsAfterTotalFees","type":"uint256","indexed":false,"internalType":"uint256"},{"name":"sharesForReceiver","type":"uint256","indexed":false,"internalType":"uint256"},{"name":"entryFee","type":"uint256","indexed":false,"internalType":"uint256"},{"name":"vaultId","type":"uint256","indexed":false,"internalType":"uint256"},{"name":"isTriple","type":"bool","indexed":false,"internalType":"bool"},{"name":"isAtomWallet","type":"bool","indexed":false,"internalType":"bool"}],"anonymous":false},{"type":"event","name":"DepositedCurve","inputs":[{"name":"sender","type":"address","indexed":true,"internalType":"address"},{"name":"receiver","type":"address","indexed":true,"internalType":"address"},{"name":"receiverTotalSharesInVault","type":"uint256","indexed":false,"internalType":"uint256"},{"name":"senderAssetsAfterTotalFees","type":"uint256","indexed":false,"internalType":"uint256"},{"name":"sharesForReceiver","type":"uint256","indexed":false,"internalType":"uint256"},{"name":"entryFee","type":"uint256","indexed":false,"internalType":"uint256"},{"name":"vaultId","type":"uint256","indexed":false,"internalType":"uint256"},{"name":"curveId","type":"uint256","indexed":false,"internalType":"uint256"},{"name":"isTriple","type":"bool","indexed":false,"internalType":"bool"},{"name":"isAtomWallet","type":"bool","indexed":false,"internalType":"bool"}],"anonymous":false},{"type":"event","name":"EntryFeeSet","inputs":[{"name":"id","type":"uint256","indexed":false,"internalType":"uint256"},{"name":"newEntryFee","type":"uint256","indexed":false,"internalType":"uint256"},{"name":"oldEntryFee","type":"uint256","indexed":false,"internalType":"uint256"}],"anonymous":false},{"type":"event","name":"ExitFeeSet","inputs":[{"name":"id","type":"uint256","indexed":false,"internalType":"uint256"},{"name":"newExitFee","type":"uint256","indexed":false,"internalType":"uint256"},{"name":"oldExitFee","type":"uint256","indexed":false,"internalType":"uint256"}],"anonymous":false},{"type":"event","name":"FeesTransferred","inputs":[{"name":"sender","type":"address","indexed":true,"internalType":"address"},{"name":"protocolMultisig","type":"address","indexed":true,"internalType":"address"},{"name":"amount","type":"uint256","indexed":false,"internalType":"uint256"}],"anonymous":false},{"type":"event","name":"Initialized","inputs":[{"name":"version","type":"uint64","indexed":false,"internalType":"uint64"}],"anonymous":false},{"type":"event","name":"MinDepositSet","inputs":[{"name":"newMinDeposit","type":"uint256","indexed":false,"internalType":"uint256"},{"name":"oldMinDeposit","type":"uint256","indexed":false,"internalType":"uint256"}],"anonymous":false},{"type":"event","name":"MinShareSet","inputs":[{"name":"newMinShare","type":"uint256","indexed":false,"internalType":"uint256"},{"name":"oldMinShare","type":"uint256","indexed":false,"internalType":"uint256"}],"anonymous":false},{"type":"event","name":"OperationCancelled","inputs":[{"name":"operationId","type":"bytes32","indexed":true,"internalType":"bytes32"},{"name":"data","type":"bytes","indexed":false,"internalType":"bytes"}],"anonymous":false},{"type":"event","name":"OperationExecuted","inputs":[{"name":"operationId","type":"bytes32","indexed":true,"internalType":"bytes32"},{"name":"data","type":"bytes","indexed":false,"internalType":"bytes"}],"anonymous":false},{"type":"event","name":"OperationScheduled","inputs":[{"name":"operationId","type":"bytes32","indexed":true,"internalType":"bytes32"},{"name":"data","type":"bytes","indexed":false,"internalType":"bytes"},{"name":"readyTime","type":"uint256","indexed":false,"internalType":"uint256"}],"anonymous":false},{"type":"event","name":"Paused","inputs":[{"name":"account","type":"address","indexed":false,"internalType":"address"}],"anonymous":false},{"type":"event","name":"ProtocolFeeSet","inputs":[{"name":"id","type":"uint256","indexed":false,"internalType":"uint256"},{"name":"newProtocolFee","type":"uint256","indexed":false,"internalType":"uint256"},{"name":"oldProtocolFee","type":"uint256","indexed":false,"internalType":"uint256"}],"anonymous":false},{"type":"event","name":"Redeemed","inputs":[{"name":"sender","type":"address","indexed":true,"internalType":"address"},{"name":"receiver","type":"address","indexed":true,"internalType":"address"},{"name":"senderTotalSharesInVault","type":"uint256","indexed":false,"internalType":"uint256"},{"name":"assetsForReceiver","type":"uint256","indexed":false,"internalType":"uint256"},{"name":"sharesRedeemedBySender","type":"uint256","indexed":false,"internalType":"uint256"},{"name":"exitFee","type":"uint256","indexed":false,"internalType":"uint256"},{"name":"vaultId","type":"uint256","indexed":false,"internalType":"uint256"}],"anonymous":false},{"type":"event","name":"RedeemedCurve","inputs":[{"name":"sender","type":"address","indexed":true,"internalType":"address"},{"name":"receiver","type":"address","indexed":true,"internalType":"address"},{"name":"senderTotalSharesInVault","type":"uint256","indexed":false,"internalType":"uint256"},{"name":"assetsForReceiver","type":"uint256","indexed":false,"internalType":"uint256"},{"name":"sharesRedeemedBySender","type":"uint256","indexed":false,"internalType":"uint256"},{"name":"exitFee","type":"uint256","indexed":false,"internalType":"uint256"},{"name":"vaultId","type":"uint256","indexed":false,"internalType":"uint256"},{"name":"curveId","type":"uint256","indexed":false,"internalType":"uint256"}],"anonymous":false},{"type":"event","name":"SharePriceChanged","inputs":[{"name":"termId","type":"uint256","indexed":true,"internalType":"uint256"},{"name":"newSharePrice","type":"uint256","indexed":false,"internalType":"uint256"},{"name":"totalAssets","type":"uint256","indexed":false,"internalType":"uint256"},{"name":"totalShares","type":"uint256","indexed":false,"internalType":"uint256"}],"anonymous":false},{"type":"event","name":"SharePriceChangedCurve","inputs":[{"name":"termId","type":"uint256","indexed":true,"internalType":"uint256"},{"name":"curveId","type":"uint256","indexed":true,"internalType":"uint256"},{"name":"newSharePrice","type":"uint256","indexed":false,"internalType":"uint256"},{"name":"totalAssets","type":"uint256","indexed":false,"internalType":"uint256"},{"name":"totalShares","type":"uint256","indexed":false,"internalType":"uint256"}],"anonymous":false},{"type":"event","name":"TotalAtomDepositsForTripleSet","inputs":[{"name":"newTotalAtomDepositsForTriple","type":"uint256","indexed":false,"internalType":"uint256"},{"name":"oldTotalAtomDepositsForTriple","type":"uint256","indexed":false,"internalType":"uint256"}],"anonymous":false},{"type":"event","name":"TotalAtomDepositsOnTripleCreationSet","inputs":[{"name":"newTotalAtomDepositsOnTripleCreation","type":"uint256","indexed":false,"internalType":"uint256"},{"name":"oldTotalAtomDepositsOnTripleCreation","type":"uint256","indexed":false,"internalType":"uint256"}],"anonymous":false},{"type":"event","name":"TripleCreated","inputs":[{"name":"creator","type":"address","indexed":true,"internalType":"address"},{"name":"subjectId","type":"uint256","indexed":false,"internalType":"uint256"},{"name":"predicateId","type":"uint256","indexed":false,"internalType":"uint256"},{"name":"objectId","type":"uint256","indexed":false,"internalType":"uint256"},{"name":"vaultId","type":"uint256","indexed":false,"internalType":"uint256"}],"anonymous":false},{"type":"event","name":"TripleCreationProtocolFeeSet","inputs":[{"name":"newTripleCreationProtocolFee","type":"uint256","indexed":false,"internalType":"uint256"},{"name":"oldTripleCreationProtocolFee","type":"uint256","indexed":false,"internalType":"uint256"}],"anonymous":false},{"type":"event","name":"Unpaused","inputs":[{"name":"account","type":"address","indexed":false,"internalType":"address"}],"anonymous":false},{"type":"event","name":"protocolMultisigSet","inputs":[{"name":"newProtocolMultisig","type":"address","indexed":true,"internalType":"address"},{"name":"oldProtocolMultisig","type":"address","indexed":true,"internalType":"address"}],"anonymous":false},{"type":"error","name":"EnforcedPause","inputs":[]},{"type":"error","name":"EthMultiVault_AdminOnly","inputs":[]},{"type":"error","name":"EthMultiVault_ArraysNotSameLength","inputs":[]},{"type":"error","name":"EthMultiVault_AtomDoesNotExist","inputs":[{"name":"atomId","type":"uint256","internalType":"uint256"}]},{"type":"error","name":"EthMultiVault_AtomExists","inputs":[{"name":"atomUri","type":"bytes","internalType":"bytes"},{"name":"atomId","type":"uint256","internalType":"uint256"}]},{"type":"error","name":"EthMultiVault_AtomUriTooLong","inputs":[]},{"type":"error","name":"EthMultiVault_BurnFromZeroAddress","inputs":[]},{"type":"error","name":"EthMultiVault_BurnInsufficientBalance","inputs":[]},{"type":"error","name":"EthMultiVault_CannotApproveOrRevokeSelf","inputs":[]},{"type":"error","name":"EthMultiVault_DeployAccountFailed","inputs":[]},{"type":"error","name":"EthMultiVault_DepositExceedsMaxAssets","inputs":[]},{"type":"error","name":"EthMultiVault_DepositOrWithdrawZeroShares","inputs":[]},{"type":"error","name":"EthMultiVault_HasCounterStake","inputs":[]},{"type":"error","name":"EthMultiVault_InsufficientBalance","inputs":[]},{"type":"error","name":"EthMultiVault_InsufficientDepositAmountToCoverFees","inputs":[]},{"type":"error","name":"EthMultiVault_InsufficientRemainingSharesInVault","inputs":[{"name":"remainingShares","type":"uint256","internalType":"uint256"}]},{"type":"error","name":"EthMultiVault_InsufficientSharesInVault","inputs":[]},{"type":"error","name":"EthMultiVault_InvalidEntryFee","inputs":[]},{"type":"error","name":"EthMultiVault_InvalidExitFee","inputs":[]},{"type":"error","name":"EthMultiVault_InvalidProtocolFee","inputs":[]},{"type":"error","name":"EthMultiVault_InvalidTotalAtomDepositsForTriple","inputs":[]},{"type":"error","name":"EthMultiVault_MinimumDeposit","inputs":[]},{"type":"error","name":"EthMultiVault_OperationAlreadyExecuted","inputs":[]},{"type":"error","name":"EthMultiVault_OperationAlreadyScheduled","inputs":[]},{"type":"error","name":"EthMultiVault_OperationNotScheduled","inputs":[]},{"type":"error","name":"EthMultiVault_ReceiveNotAllowed","inputs":[]},{"type":"error","name":"EthMultiVault_RedeemerNotApproved","inputs":[]},{"type":"error","name":"EthMultiVault_SenderNotApproved","inputs":[]},{"type":"error","name":"EthMultiVault_TimelockNotExpired","inputs":[]},{"type":"error","name":"EthMultiVault_TransferFailed","inputs":[]},{"type":"error","name":"EthMultiVault_TripleExists","inputs":[{"name":"subjectId","type":"uint256","internalType":"uint256"},{"name":"predicateId","type":"uint256","internalType":"uint256"},{"name":"objectId","type":"uint256","internalType":"uint256"}]},{"type":"error","name":"EthMultiVault_VaultDoesNotExist","inputs":[]},{"type":"error","name":"EthMultiVault_VaultIsTriple","inputs":[{"name":"vaultId","type":"uint256","internalType":"uint256"}]},{"type":"error","name":"EthMultiVault_VaultNotAtom","inputs":[]},{"type":"error","name":"EthMultiVault_VaultNotTriple","inputs":[]},{"type":"error","name":"ExpectedPause","inputs":[]},{"type":"error","name":"InvalidInitialization","inputs":[]},{"type":"error","name":"NotInitializing","inputs":[]},{"type":"error","name":"ReentrancyGuardReentrantCall","inputs":[]}],"bytecode":{"object":"0x6080806040523460aa575f5160206159335f395f51905f525460ff8160401c16609b576002600160401b03196001600160401b038216016049575b60405161588490816100af8239f35b6001600160401b0319166001600160401b039081175f5160206159335f395f51905f525581527fc7f505b2f371ae2175ee4913f4499e1f2633a7b5936321eed1cdaeb6115181d290602090a15f80603a565b63f92ee8a960e01b5f5260045ffd5b5f80fdfe60806040526004361015610018575b36614e1a576140cf565b5f3560e01c80621fc87d146105e657806304357c73146105e157806304c89bc6146105dc57806306661abd146105d75780630ac819db146105d25780630cde801b146105cd5780630d65c91c146105c857806313aaab97146105c3578063181e7b3b146105be5780631d35900a146105b95780631e19e2c8146105b457806322061379146105af578063240de277146105aa578063266190af146105a55780632a22fec5146105a05780632dd426441461059b57806333332d3914610596578063340a2812146105915780633800c5c41461058c57806339a384491461058757806339c4f49c146105825780633bcef9a61461057d5780633f4ba83a146105785780633fadf67714610573578063401569c71461056e5780634342e96614610569578063441d1c2f1461056457806346fd65c41461055f5780634abe41371461055a5780634d592c6a146105555780635408eec91461055057806354d94dd91461054b57806356d54d681461054657806359b125d2146105415780635c975abb1461053c5780636083e59a1461053757806363ff7ec01461053257806365f646851461052d57806366e34a331461052857806367ab7594146105235780636cc18d401461051e578063704b6c02146105195780637a7af70d146105145780637b3d7bc31461050f5780637c3736611461050a5780637c66deae146105055780637f833f04146105005780638456cb59146104fb57806384e100db146104f6578063859aa971146104f157806389065256146104ec5780638c64ea4a146104e75780638daf7443146104e25780638fcc9cfb146104dd57806390855592146104d8578063927a97a1146104d357806398e404d1146104ce5780639f49b60e146104c9578063a169b46c146104c4578063a32ce11e146104bf578063a3bb4f6e146104ba578063a3bde6ac146104b5578063a432c54b146104b0578063a4ddc786146104ab578063ae0a1542146104a6578063af9d35a3146104a1578063b0559b451461049c578063b790e67214610497578063bac67f7214610492578063bb7dd3791461048d578063bbec4d0614610488578063bfb1776f14610483578063c61703ac1461047e578063c8b494ba14610479578063c9ceddb814610474578063cf8cea241461046f578063cfc15f151461046a578063cfe8b7f614610465578063d34ddc0514610460578063d403f6171461045b578063db2088f414610456578063dc38530914610451578063dc5adb8c1461044c578063de3cca6014610447578063e3b764af14610442578063ee9dd98f1461043d578063f017b29014610438578063f10c9f9b14610433578063f1ff7cc91461042e578063f315a94e14610429578063f73a2bb314610424578063f75336691461041f5763f903ff720361000e57612edd565b612e46565b612d03565b612cc5565b612c0c565b612a46565b612a32565b612a14565b6129ea565b61291e565b6128f8565b6128e4565b6128c3565b61281b565b6127cf565b612603565b6125c9565b61259c565b61253e565b612330565b612301565b6122e8565b6122c7565b6122a8565b61228f565b612249565b612230565b612217565b6121f6565b61218e565b61203e565b611fc6565b611f9a565b611f53565b611ed6565b611d3d565b611cab565b611c43565b611c09565b611ba0565b611a52565b611a0f565b6119bd565b6118eb565b6118c3565b611849565b611821565b61178c565b611779565b611758565b611737565b6115db565b611572565b611550565b611532565b611418565b611346565b61132b565b6112fd565b6112d3565b6111e6565b611161565b6110cc565b611092565b611067565b611044565b610f6b565b610e6e565b610e4d565b610dd9565b610d52565b610d01565b610c86565b610c4b565b610bec565b610b60565b610b46565b610add565b610a74565b610984565b6108c4565b610879565b610848565b610804565b6107e3565b6107bc565b6107a2565b610766565b610736565b610719565b6106f0565b6106a3565b61061c565b6001600160a01b038116036105fc57565b5f80fd5b6004359061060d826105eb565b565b6024359061060d826105eb565b346105fc5760203660031901126105fc57600435610639816105eb565b5f546001600160a01b0316330361069457600f80546001600160a01b039283166001600160a01b03198216811790925591909116907fd53213027f194983ff58afd27103ade64ffc4699fedc89070e233b509c28bb695f80a3005b633e9e676560e01b5f5260045ffd5b346105fc5760403660031901126105fc576004355f908152601b602090815260408083206024358452825291829020805460019091015483519182529181019190915290819081015b0390f35b346105fc5760403660031901126105fc576020610711602435600435612f46565b604051908152f35b346105fc575f3660031901126105fc576020601154604051908152f35b346105fc5760203660031901126105fc576020610754600435612f98565b6040516001600160a01b039091168152f35b346105fc5760203660031901126105fc576106ec610785600435613030565b604080519384526020840192909252908201529081906060820190565b346105fc575f3660031901126105fc5760206107116130ca565b346105fc5760203660031901126105fc5760206107116107dd600435613030565b9161377d565b346105fc5760403660031901126105fc5760206107116024356004356130fb565b346105fc5760403660031901126105fc576106ec61082660243560043561313e565b6040805194855260208501939093529183015260608201529081906080820190565b346105fc575f3660031901126105fc57600a54600b54600c5460408051938452602084019290925290820152606090f35b346105fc5760203660031901126105fc576004355f52601360205260405f2080546106ec60026001840154930154604051938493846040919493926060820195825260208201520152565b346105fc5760403660031901126105fc576004356024355f546001600160a01b0316330361069457600a60025404811161094e575f828152601360209081526040918290206002018054908490558251948552908401929092528201527f794fc7d26a1f9927841d938c882bd4d61bd9944b8d4cd935941a0a4fadae83eb9080606081015b0390a1005b6389f727a160e01b5f5260045ffd5b60809060031901126105fc5760043590602435610979816105eb565b906044359060643590565b346105fc576109923661095d565b9261099b6141cd565b6109ac6109a8843361338d565b1590565b610a655781158015610a5a575b610a4b576109c682613650565b610a3c575f6109dd81959285839584953391614205565b95909485906001600160a01b03165af16109f56131f7565b5015610a2d57610a076106ec9261433f565b610a1d60015f51602061580f5f395f51905f5255565b6040519081529081906020820190565b635657c7b560e11b5f5260045ffd5b63f3ece25560e01b5f5260045ffd5b631290a58d60e01b5f5260045ffd5b5060115482116109b9565b63e3fa918960e01b5f5260045ffd5b346105fc5760203660031901126105fc575f54600435906001600160a01b031633036106945760048054908290556040805192835260208301919091527f013f7aeadba325fef3561a999345eb28dcd20c5e0c314c0cc1f607617a402b67919081908101610949565b346105fc5760203660031901126105fc575f54600435906001600160a01b031633036106945760088054908290556040805192835260208301919091527f0c2973e4045249aea680af8835125f58d851717c989d9eaab6a107b200e91444919081908101610949565b346105fc575f3660031901126105fc576020610711613226565b346105fc5760203660031901126105fc575f54600435906001600160a01b031633036106945760058054908290556040805192835260208301919091527fa803c1d3f9aae4868e6abb872bad038fef55901b341ccbffb2d81c6735f6aa46919081908101610949565b60609060031901126105fc5760043590602435610be5816105eb565b9060443590565b346105fc57610bfa36610bc9565b91610c036141cd565b610c106109a8833361338d565b610a655782158015610c40575b610a4b57610c2a83613650565b610a3c575f806109dd81959385839533906143a5565b506011548311610c1d565b346105fc5760403660031901126105fc576020610711602435600435613244565b60609060031901126105fc57600435906024359060443590565b610c8f36610c6c565b610c9a9291926141cd565b610ca26144f5565b610caa6130ca565b3410610cf257610cbb923492614540565b90600a54918201809211610ced57610cd460209261433f565b60015f51602061580f5f395f51905f5255604051908152f35b612fe8565b63105d8d3b60e31b5f5260045ffd5b346105fc5760403660031901126105fc57600435602435905f52601b60205260405f20905f5260205260405f2060018154910154906106ec6040519283928360209093929193604081019481520152565b346105fc575f3660031901126105fc575f546001600160a01b03163303610694575f5160206157ef5f395f51905f525460ff811615610dca5760ff19165f5160206157ef5f395f51905f52557f5db9ee0a495bf2e6ff9c91a7834c1ba4fdd244a5e8aa4e537bd38aeae4b073aa6020604051338152a1005b638dfc202b60e01b5f5260045ffd5b346105fc5760603660031901126105fc57600435610e38602435610e30604435610e02816105eb565b845f52601b60205260405f20835f52602052600260405f20019060018060a01b03165f5260205260405f2090565b549283613ae2565b50506040805193845260208401929092525090f35b346105fc5760403660031901126105fc5760206107116024356004356132ad565b346105fc5760403660031901126105fc57600435610e8b816105eb565b6024359060048210156105fc576001600160a01b03811690338214610f5c57610eb38361335c565b8280610f255750335f908152601460205260409020610ef091610ee6915b9060018060a01b03165f5260205260405f2090565b805460ff19169055565b7f82a44452b8f9b854115b84acf31076a4deb9edd2530d246cf0d96c97a6ae619b60405180610f2033958261337a565b0390a3005b610f48610f5792610f358361335c565b335f908152601460205260409020610ed1565b9060ff1660ff19825416179055565b610ef0565b6391e4dac760e01b5f5260045ffd5b60403660031901126105fc57600435610f83816105eb565b602435610f8e6141cd565b610f966144f5565b610fa0823361394e565b1561100d5780158015611002575b610a4b57610fbb81613650565b610a3c576003543410610ff357610a07610fed6106ec93610fdc8434613244565b93610fe78534613131565b916147b7565b9161433f565b637ee5dacf60e01b5f5260045ffd5b506011548111610fae565b6319f85ce160e01b5f5260045ffd5b60409060031901126105fc57600435611034816105eb565b90602435611041816105eb565b90565b346105fc57602061105d6110573661101c565b9061338d565b6040519015158152f35b346105fc5760403660031901126105fc576020610711600435611089816105eb565b602435906133d6565b346105fc575f3660031901126105fc5760206040517f778822020b59638b22ca9362f2de4db01600920f59fc336582386847a4f2ec0a8152f35b346105fc5760403660031901126105fc576004356024355f546001600160a01b0316330361069457600a600254048111611152575f828152601360209081526040918290208054908490558251948552908401929092528201527fd5d6967eec72b6ad8abfdc027dc25c6f77c3661ce7075e3ea7c89e47da14b942908060608101610949565b63536188f160e11b5f5260045ffd5b346105fc57602061117a61117436610c6c565b91613d44565b50509050604051908152f35b9181601f840112156105fc578235916001600160401b0383116105fc57602083818601950101116105fc57565b9060406003198301126105fc5760043591602435906001600160401b0382116105fc576111e291600401611186565b9091565b346105fc576111f4366111b3565b5f546001600160a01b0316330361069457600754916040516020810190611230816112228787878b88613401565b03601f19810183528261245b565b51902092835f52601a602052600160405f2001546112c4577fb9de9600d753b5619b03226f918d5da2f2e59ca71fe99366db4dc38b0127194b936112b361127a6112bf93426130aa565b916112ae611286612ab5565b9161129236898961341b565b83528460208401525f60408401525f52601a60205260405f2090565b6134aa565b604051938493846135d6565b0390a2005b6307723de960e01b5f5260045ffd5b346105fc5760203660031901126105fc576004355f526018602052602060405f2054604051908152f35b346105fc575f3660031901126105fc57602060ff5f5160206157ef5f395f51905f5254166040519015158152f35b346105fc575f3660031901126105fc5760206040515f198152f35b346105fc5760203660031901126105fc575f54600435906001600160a01b0316330361069457600b8054908290556040805192835260208301919091527fbd4298239551a97017a34002c847c254ed64784f0b838b5cf41f472212668bc4919081908101610949565b9181601f840112156105fc578235916001600160401b0383116105fc576020808501948460051b0101116105fc57565b60206040818301928281528451809452019201905f5b8181106114025750505090565b82518452602093840193909201916001016113f5565b60203660031901126105fc576004356001600160401b0381116105fc576114439036906004016113af565b9061144c6141cd565b6114546144f5565b61146582611460613226565b6130b7565b3410610cf257906114768134612ffc565b5f906114818361360a565b915f94601e1981360301915b858710156114ef578660051b820135838112156105fc578201908135916001600160401b0383116105fc576020019082360382136105fc576114d5866001946114e794614993565b91906114e18b8a61363c565b526130aa565b96019561148d565b8461151061150b6106ec936115068a6009546130b7565b6130aa565b61433f565b61152660015f51602061580f5f395f51905f5255565b604051918291826113df565b346105fc5760203660031901126105fc57602061105d600435613650565b346105fc5760403660031901126105fc576106ec610826602435600435613684565b346105fc5760203660031901126105fc575f54600435906001600160a01b0316330361069457600a8054908290556040805192835260208301919091527fde300c3dd134b3fc23d65279865d550afbedd1b10ae1e99ded77996beec21365919081908101610949565b346105fc5760203660031901126105fc576004356115f8816105eb565b6001600160a01b0381169033829003610694575f54604051633825b60160e11b60208201526001600160a01b0380841660248084019190915282527f778822020b59638b22ca9362f2de4db01600920f59fc336582386847a4f2ec0a947f8406851b928c59b23d046c9668b30bdb92a6a96d285773a799584f596c1b207c94909391909116916112bf916116fd906002906116ef9061169860448661245b565b6116e16007546040516116b48161122260208201948b866136ec565b519020916116c183614ac2565b60018060a01b03166bffffffffffffffffffffffff60a01b5f5416175f55565b5f52601a60205260405f2090565b01805460ff19166001179055565b6040519384936001600160a01b0316907fbf265e8326285a2747e33e54d5945f7111f2b5edb826eb8c08d4677779b3ff975f80a382612cb4565b346105fc5760403660031901126105fc57602061117a602435600435613684565b346105fc5760403660031901126105fc576020610711602435600435613759565b346105fc5760206107116107dd36610c6c565b346105fc5760203660031901126105fc57601c5460405163a0760cad60e01b8152600480359082015290602090829060249082906001600160a01b03165afa801561181c576106ec915f916117ed575b506040519081529081906020820190565b61180f915060203d602011611815575b611807818361245b565b810190613293565b5f6117dc565b503d6117fd565b6132a2565b346105fc575f3660031901126105fc5760085460095460408051928352602083019190915290f35b346105fc575f3660031901126105fc575f546001600160a01b03163303610694576118726144f5565b600160ff195f5160206157ef5f395f51905f525416175f5160206157ef5f395f51905f52557f62e78cea01bee320cd4e420270b5ea74000d11b0c9f74754ebdbfc544b05a2586020604051338152a1005b346105fc575f3660031901126105fc57600f546040516001600160a01b039091168152602090f35b60403660031901126105fc57600435611903816105eb565b6024359061190f6141cd565b6119176144f5565b611921813361394e565b1561100d576119326109a883613650565b6119ae576119408183614b23565b61199f576003543410610ff357610a078261195e6106ec9434613244565b906119698234613131565b9361197f826119798782856147b7565b96613759565b908161198e575b50505061433f565b61199792614b60565b5f8080611986565b636060860f60e01b5f5260045ffd5b6336e8c70d60e11b5f5260045ffd5b346105fc5760403660031901126105fc57600435610e38611a076024356119e3816105eb565b835f526012602052600260405f20019060018060a01b03165f5260205260405f2090565b54918261313e565b346105fc5760203660031901126105fc576004355f52601260205260405f2060018154910154906106ec6040519283928360209093929193604081019481520152565b60603660031901126105fc576004356001600160401b0381116105fc57611a7d9036906004016113af565b6024356001600160401b0381116105fc57611a9c9036906004016113af565b9190926044356001600160401b0381116105fc57611abe9036906004016113af565b94611ac76141cd565b611acf6144f5565b848414801590611b96575b611b8757611aea846114606130ca565b3410610cf257611aff84969593929634612ffc565b905f96611b0b8661360a565b965f955b878710611b2d576106ec8961151061150b8d6115068d600a546130b7565b90919293949598611b7a8a6001928b6114e1611b728b8b8f8f888d8f93828f611b5d82611b6494611b6b986137a8565b35976137a8565b35936137a8565b3591614540565b94909261363c565b9901959493929190611b0f565b633e56678160e11b5f5260045ffd5b5085841415611ada565b346105fc5760203660031901126105fc575f54600435906001600160a01b031633036106945760038054908290556040805192835260208301919091527f91a5197bdd70e4b9e17ebdd91aab9f96b2a5a4cfb5010870b488963bd7a94d94919081908101610949565b346105fc575f3660031901126105fc5760206040517f7925972c66d280d08f7e7a6e3f3aae3eb40e786fe30284acf451c52bdc133abd8152f35b346105fc575f3660031901126105fc5761010060018060a01b035f541660018060a01b0360015416600254600354600454600554916006549360075495604051978852602088015260408701526060860152608085015260a084015260c083015260e0820152f35b346105fc57611cb93661095d565b92611cc26141cd565b611ccc833361338d565b15610a6557611cda82613650565b156119ae575f611cf281959285839584953391614205565b95909485906001600160a01b03165af1611d0a6131f7565b5015610a2d57611d1c6106ec9261433f565b60015f51602061580f5f395f51905f52556040519081529081906020820190565b346105fc5760403660031901126105fc575f5460243590600435906001600160a01b0316330361069457600254600a90048211611ea4576112bf817f4b18f9bb7fa85d04f11845a1f27d6a74cab49c705a45615be6a9edeaa07204797f7925972c66d280d08f7e7a6e3f3aae3eb40e786fe30284acf451c52bdc133abd946001611df07f8406851b928c59b23d046c9668b30bdb92a6a96d285773a799584f596c1b207c965f52601360205260405f2090565b0154604051634fa4db0760e11b602082015260248101859052604480820184905281529390611e9590611e2460648761245b565b611e7860026116ef88611222611e47600754604051928391602083019586613726565b519020611e5381614ac2565b876001611e68895f52601360205260405f2090565b01555f52601a60205260405f2090565b604051938493846040919493926060820195825260208201520152565b0390a160405191829182612cb4565b6321bb382b60e21b5f5260045ffd5b60609060031901126105fc57600435611ecb816105eb565b906024359060443590565b611edf36611eb3565b91611ee86141cd565b611ef06144f5565b611efa813361394e565b1561100d5781158015611f48575b610a4b57611f1582613650565b610a3c576003543410610ff357610fed610a07916106ec94611f378534613244565b94611f428634613131565b92614bbd565b506011548211611f08565b346105fc57602060ff611f90611f683661101c565b6001600160a01b039182165f9081526014865260408082209290931681526020919091522090565b5416604051908152f35b346105fc575f3660031901126105fc57604060018060a01b03601c5416601d5482519182526020820152f35b346105fc5760203660031901126105fc57600435611fe3816105eb565b5f546001600160a01b0316330361069457600180546001600160a01b039283166001600160a01b03198216811790925591909116907fcfd3ec1b0100c23c86d491922d7eb032152cd13c1a269fb3915c613d43491be55f80a3005b60603660031901126105fc57600435612056816105eb565b6024356001600160401b0381116105fc576120759036906004016113af565b6044929192356001600160401b0381116105fc576120979036906004016113af565b6120a29491946141cd565b6120aa6144f5565b6120b76109a8853361394e565b61100d576120c48361360a565b935f5b8481106120e8576106ec8661152660015f51602061580f5f395f51905f5255565b6120f38186866137a8565b35158015612178575b610a4b5761210b8184896137a8565b3560035411610ff35780612172846121626121508b61214a866121428c61213b8f9b60019c611b64828c8a6137a8565b3590613244565b9586936137a8565b35613131565b61215b858b8b6137a8565b35876147b7565b61216c848b61363c565b5261433f565b016120c7565b506121848186866137a8565b35601154106120fc565b346105fc5760403660031901126105fc576004356024356121af8183613244565b91828103908111610ced576121c48282613759565b91828203918211610ced576121d891612f46565b908201809211610ced578101809111610ced57604051908152602090f35b346105fc5760403660031901126105fc5760206107116024356004356137b8565b346105fc57602061071161222a36611eb3565b91613807565b346105fc57602061071161224336610c6c565b9161383a565b346105fc5761225736610bc9565b916122606141cd565b61226a823361338d565b15610a655761227883613650565b156119ae575f80611cf281959385839533906143a5565b346105fc5760206107116122a236610c6c565b916138cc565b346105fc5760203660031901126105fc57602060043560405190198152f35b346105fc5760403660031901126105fc57602061117a60243560043561313e565b346105fc57602061105d6122fb3661101c565b9061394e565b346105fc5760203660031901126105fc576004355f526019602052602060ff60405f2054166040519015158152f35b60803660031901126105fc57600435612348816105eb565b6024356001600160401b0381116105fc576123679036906004016113af565b91906044356001600160401b0381116105fc576123889036906004016113af565b60643593916001600160401b0385116105fc576106ec956123b06115269636906004016113af565b959094613994565b90600182811c921680156123e6575b60208310146123d257565b634e487b7160e01b5f52602260045260245ffd5b91607f16916123c7565b634e487b7160e01b5f52604160045260245ffd5b604081019081106001600160401b0382111761241f57604052565b6123f0565b606081019081106001600160401b0382111761241f57604052565b61010081019081106001600160401b0382111761241f57604052565b90601f801991011681019081106001600160401b0382111761241f57604052565b9060405191825f82549261248f846123b8565b80845293600181169081156124f857506001146124b4575b5061060d9250038361245b565b90505f9291925260205f20905f915b8183106124dc57505090602061060d928201015f6124a7565b60209193508060019154838589010152019101909184926124c3565b90506020925061060d94915060ff191682840152151560051b8201015f6124a7565b805180835260209291819084018484015e5f828201840152601f01601f1916010190565b346105fc5760203660031901126105fc576004355f52601a60205261258b60405f206125698161247c565b9060ff600260018301549201541660405193849360608552606085019061251a565b916020840152151560408301520390f35b346105fc57602061117a6125af36610c6c565b91613ae2565b634e487b7160e01b5f52603260045260245ffd5b346105fc5760403660031901126105fc57600435602435905f52601760205260405f209060038110156105fc576020910154604051908152f35b346105fc5760803660031901126105fc57602435600435612623826105eb565b6044356001600160401b0381116105fc576126429036906004016113af565b90926064356001600160401b0381116105fc576126639036906004016113af565b949061266d6141cd565b858403611b8757939294906126818661360a565b945f945f975f945b8186106126bd5789895f8080808d6001600160a01b038e165af16126ab6131f7565b5015610a2d576115106106ec9261433f565b909192939498966126cf8a84886137a8565b351580156127b9575b610a4b576127338a600261271d61270d6127056126f6858a8e6137a8565b355f52601b60205260405f2090565b93878b6137a8565b353393905f5260205260405f2090565b019060018060a01b03165f5260205260405f2090565b5480156127aa57896127986001936127918e61277f8c8e8d612777858f8f8f91611b649161279e9f6127696127719187946130b7565b612710900490565b986137a8565b353391614205565b959061278b838361363c565b5261363c565b51906130aa565b996130aa565b99019493929190612689565b631c2b147d60e11b5f5260045ffd5b506127c58a84886137a8565b35601154106126d8565b346105fc575f3660031901126105fc57600d54600e54600f54601054604080516001600160a01b0395861681529385166020850152918416918301919091529091166060820152608090f35b61282436611eb3565b919061282e6141cd565b6128366144f5565b612840823361394e565b1561100d576128516109a882613650565b6119ae57612860828483614d77565b61199f576003543410610ff3576106ec928161287f610a079334613244565b9161288a8334613131565b946128a18361289b88858386614bbd565b97613759565b91826128b1575b5050505061433f565b6128ba93614db9565b5f8080806128a8565b346105fc5760403660031901126105fc576020610711602435600435613aae565b346105fc576106ec6108266125af36610c6c565b346105fc5760203660031901126105fc5760206107546004356129196144f5565b613b85565b346105fc5761292c366111b3565b5f546001600160a01b031633036106945760075460405161295881611222602082019486888a88613401565b51902091825f52601a60205261297060405f20613c19565b6020810151156129db57604001516129cc576129bd6129b87ff5dad08915dd5bcfd9f7264eb352cae49943fcaa43173b5bc0dc15fee5c5cc6f945f52601a60205260405f2090565b613c4d565b6112bf60405192839283613cbf565b63df8f7f2560e01b5f5260045ffd5b630f89ea8b60e01b5f5260045ffd5b346105fc5760203660031901126105fc576004355f526016602052602060405f2054604051908152f35b346105fc5760203660031901126105fc576020610711600435613cd0565b346105fc576106ec61082661117436610c6c565b60203660031901126105fc576004356001600160401b0381116105fc57612a71903690600401611186565b90612a7a6141cd565b612a826144f5565b612a8a613226565b3410610cf257612a9b913491614993565b90600954918201809211610ced57611d1c6106ec9261433f565b6040519061060d60608361245b565b9061060d604051928361245b565b6040906101031901126105fc5760405190612aec82612404565b610104358252610124356020830152565b6060906101431901126105fc5760405190612b1782612424565b610144358252610164356020830152610184356040830152565b6060906102231901126105fc5760405190612b4b82612424565b610224358252610244356020830152610264356040830152565b6080906101a31901126105fc5760405190608082018281106001600160401b0382111761241f57604052816101a435612b9d816105eb565b81526101c435612bac816105eb565b60208201526101e435612bbe816105eb565b604082015260606102043591612bd3836105eb565b0152565b6040906102831901126105fc5760405190612bf182612404565b8161028435612bff816105eb565b815260206102a435910152565b346105fc5736600319016102c081126105fc57610100136105fc57612cb2604051612c368161243f565b612c3e610600565b8152612c4861060f565b602082015260443560408201526064356060820152608435608082015260a43560a082015260c43560c082015260e43560e0820152612c8636612ad2565b612c8f36612afd565b612c9836612b65565b90612ca236612b31565b92612cac36612bd7565b94613da4565b005b90602061104192818152019061251a565b346105fc5760203660031901126105fc576004355f5260156020526106ec612cef60405f2061247c565b60405191829160208352602083019061251a565b346105fc5760603660031901126105fc57600435602435612d23816105eb565b6044356001600160401b0381116105fc57612d429036906004016113af565b9091612d4c6141cd565b612d596109a8823361338d565b610a65578284915f915f94612d6d8161360a565b945f925b828410612d935787875f8080808b6001600160a01b038c165af16126ab6131f7565b9091929694612da38885846137a8565b35158015612e30575b610a4b57612dd4612dbe8986856137a8565b35600261271d33925f52601260205260405f2090565b5480156127aa57600191612e20612e098b89612e01612df9612769612e26988c6130b7565b928b8a6137a8565b3533906143a5565b9290612e158d8d61363c565b526127918c8c61363c565b976130aa565b9701929190612d71565b50612e3c8885846137a8565b3560115410612dac565b346105fc5760203660031901126105fc576004355f546001600160a01b0316330361069457600254600981029080820460091490151715610ced57600a90048111612ece57600c8054908290556040805192835260208301919091527fd216527c8a546d2426da0056956df236b1a59e206bd170ef81248b599c52bed9919081908101610949565b636865605b60e11b5f5260045ffd5b346105fc5760203660031901126105fc575f54600435906001600160a01b031633036106945760098054908290556040805192835260208301919091527fbb48724c22d0c8c190f6c11d01fd451f89dc4e039ce368393522833e2388ea4b919081908101610949565b611041915f52601360205260405f205480155f14612f9357505f805260136020527f8fa6efc3be94b5b348b21fea823fe8d100408cee9b7f90524494500445d8ff6c545b60025491614ea3565b612f8a565b612fa0614100565b6020815191012060405190602082019260ff60f81b84523060601b60218401526035830152605582015260558152612fd960758261245b565b5190206001600160a01b031690565b634e487b7160e01b5f52601160045260245ffd5b8115613006570490565b634e487b7160e01b5f52601260045260245ffd5b90600381101561302b5760051b0190565b6125b5565b6001600160ff1b0381111561309957195f52601760205260405f20905b604051915f835b600382106130835750505061306a60608361245b565b81519061307c60208401519360400190565b5191929190565b6001602081928554815201930191019091613054565b5f52601760205260405f209061304d565b91908201809211610ced57565b81810292918115918404141715610ced57565b600a54600b548101809111610ced576004548060011b9080820460021490151715610ced578101809111610ced5790565b90805f526012602052600160405f2001549081155f1461311a57505090565b91611041925f52601260205260405f2054906141b8565b91908203918211610ced57565b9190805f526012602052600160405f20015492808403938411610ced5781613165916130fb565b9260ff5f5160206157ef5f395f51905f5254165f1461319d5750505f5f915b818403848111610ced578361319891613131565b929190565b600454036131b6576131b05f9184613244565b91613184565b906131c18284613244565b9182840390848211610ced576131d6916137b8565b90613184565b6001600160401b03811161241f57601f01601f191660200190565b3d15613221573d90613208826131dc565b91613216604051938461245b565b82523d5f602084013e565b606090565b6009546008548101809111610ced576004548101809111610ced5790565b611041915f526013602052600260405f20015480155f14612f9357505f805260136020527f8fa6efc3be94b5b348b21fea823fe8d100408cee9b7f90524494500445d8ff6e5460025491614ea3565b908160209103126105fc575190565b6040513d5f823e3d90fd5b5f52601b60205260016132cb8260405f20905f5260205260405f2090565b0154806132d85750505f90565b601c5461332e926020929091613304906132f8906001600160a01b031681565b6001600160a01b031690565b9060405180958194829363159d416760e01b84526004840160209093929193604081019481520152565b03915afa90811561181c575f91613343575090565b611041915060203d60201161181557611807818361245b565b6004111561336657565b634e487b7160e01b5f52602160045260245ffd5b9190602083019260048210156133665752565b6001600160a01b0380821692169182149182156133a957505090565b5f9081526014602090815260408083206001600160a01b03909416835292905220600291505b5416151590565b6133fd915f526012602052600260405f20019060018060a01b03165f5260205260405f2090565b5490565b909280926040959483526020830137019060208201520190565b929192613427826131dc565b91613435604051938461245b565b8294818452818301116105fc578281602093845f960137010152565b81811061345c575050565b5f8155600101613451565b9190601f811161347657505050565b61060d925f5260205f20906020601f840160051c830193106134a0575b601f0160051c0190613451565b9091508190613493565b91909182519283516001600160401b03811161241f576134d4816134ce85546123b8565b85613467565b6020601f82116001146135415760029261350f836135239460409461060d999a5f92613536575b50508160011b915f199060031b1c19161790565b85555b602081015160018601550151151590565b91019060ff801983541691151516179055565b015190505f806134fb565b601f19821695613554855f5260205f2090565b965f5b81811061359e57508361060d9798604094600297946135239760019510613586575b505050811b018555613512565b01515f1960f88460031b161c191690555f8080613579565b83830151895560019098019760209384019301613557565b908060209392818452848401375f828201840152601f01601f1916010190565b9392916020916135ee916040875260408701916135b6565b930152565b6001600160401b03811161241f5760051b60200190565b90613614826135f3565b613621604051918261245b565b8281528092613632601f19916135f3565b0190602036910137565b805182101561302b5760209160051b010190565b6001600160ff1b0381111561367257195f52601960205260ff60405f20541690565b5f52601960205260ff60405f20541690565b9161368f8284613759565b8303928311610ced57815f526012602052600160405f200154600454145f146136ca575f905b81840392848411610ced576131989084613aae565b6136d48284612f46565b906136b5565b805191908290602001825e015f815290565b602092918361371f927f778822020b59638b22ca9362f2de4db01600920f59fc336582386847a4f2ec0a815201906136da565b9081520190565b602092918361371f927f7925972c66d280d08f7e7a6e3f3aae3eb40e786fe30284acf451c52bdc133abd815201906136da565b9061376390613650565b156137785761104190600c5460025491614ea3565b505f90565b91604051916020830193845260408301526060820152606081526137a260808261245b565b51902090565b919081101561302b5760051b0190565b611041915f526013602052600160405f20015480155f14612f9357505f805260136020527f8fa6efc3be94b5b348b21fea823fe8d100408cee9b7f90524494500445d8ff6d5460025491614ea3565b90916133fd925f52601b60205260405f20905f52602052600260405f20019060018060a01b03165f5260205260405f2090565b90602091815f52601b835260405f20845f5283526138798461386c600160405f200154945f52601b60205260405f2090565b905f5260205260405f2090565b54601c54909290613894906132f8906001600160a01b031681565b9161332e60405196879586948594633e3cfc1760e11b8652600486019094939260609260808301968352602083015260408201520152565b90602091815f52601b835260405f20845f5283526138fe8461386c600160405f200154945f52601b60205260405f2090565b54601c54613916906132f8906001600160a01b031681565b9161332e60405196879586948594636199b7ff60e01b8652600486019094939260609260808301968352602083015260408201520152565b6001600160a01b03808216921691821491821561396a57505090565b5f9081526014602090815260408083206001600160a01b03909416835292905220600191506133cf565b919093959492956139a36141cd565b6139ab6144f5565b6139b86109a8843361394e565b61100d57808203611b87576139cc8261360a565b965f5b8381106139f55750505050505050509061060d60015f51602061580f5f395f51905f5255565b613a008185896137a8565b35158015613a98575b610a4b57613a188189886137a8565b3560035411610ff357613a2c8189886137a8565b35613a3882868a6137a8565b35613a4291613244565b80613a4e838b8a6137a8565b3590613a5991613131565b613a6483878b6137a8565b3590613a718487876137a8565b35613a7c9289614bbd565b613a86838c61363c565b52613a909061433f565b6001016139cf565b50613aa48185896137a8565b3560115410613a09565b815f526012602052600160405f20015480155f14613acc5750905090565b611041925f52601260205260405f2054916141b8565b929192815f52601b60205260405f20845f52602052600160405f20015493818503948511610ced5782613b149261383a565b9260ff5f5160206157ef5f395f51905f5254165f14613b465750505f5f915b61319883613b418487613131565b613131565b60045403613b5f57613b595f9184613244565b91613b33565b90613b6a8284613244565b9182840390848211610ced57613b7f916137b8565b90613b33565b80158015613c0e575b610a4b57613b9b81613650565b610a3c57613ba7614100565b613bb082612f98565b91823b918160018060a01b03916020815191015ff516918215613bf557507feef9c381d2c74749a8348b1cb0ea2b9e4f6e639218ecda97fba36ad22014f8ec5f80a390565b915050155f146110415763fd79f6c960e01b5f5260045ffd5b506011548111613b8e565b90604051613c2681612424565b604060ff60028395613c378161247c565b8552600181015460208601520154161515910152565b60025f91613c5b81546123b8565b80613c6c575b508260018201550155565b601f8111600114613c8257508281555b5f613c61565b81845260208420613c9e91601f0160051c810190600101613451565b808352826020812080548260011b9083198460031b1c191617835555613c7c565b9160206110419381815201916135b6565b805f526012602052600160405f2001549081155f14613cef5750505f90565b5f52601260205260405f20547812725dd1d243aba0e75fe645cc4873f9e65afe688c928e1f218111670de0b6b3a76400000215820215613d3757670de0b6b3a7640000020490565b63ad251c275f526004601cfd5b92613d4f8285613759565b8403938411610ced57815f52601b60205260405f20835f52602052600160405f200154600454145f14613d94575f915b82850393858511610ced5761319891856138cc565b613d9e8285612f46565b91613d7f565b9391949290945f51602061582f5f395f51905f5254956001600160401b03613de2613dd560ff8a60401c1615151590565b986001600160401b031690565b1680159081613efc575b6001149081613ef2575b159081613ee9575b50613eda57613e419587613e3860016001600160401b03195f51602061582f5f395f51905f525416175f51602061582f5f395f51905f5255565b613ea057613f04565b613e4757565b613e7160ff60401b195f51602061582f5f395f51905f5254165f51602061582f5f395f51905f5255565b604051600181527fc7f505b2f371ae2175ee4913f4499e1f2633a7b5936321eed1cdaeb6115181d290602090a1565b613ed56801000000000000000060ff60401b195f51602061582f5f395f51905f525416175f51602061582f5f395f51905f5255565b613f04565b63f92ee8a960e01b5f5260045ffd5b9050155f613dfe565b303b159150613df6565b889150613dec565b92613ff661060d9693613fe06140539460e061407f98613f22615349565b613f2a615349565b60015f51602061580f5f395f51905f5255613f43615349565b613f4b615349565b5f5160206157ef5f395f51905f52805460ff1916905580515f80546001600160a01b0319166001600160a01b039092169190911790556020810151600180546001600160a01b0319166001600160a01b0390921691909117905560408101516002556060810151600355608081015160045560a081015160055560c08101516006550151600755805160085560200151600955565b8051600a556020810151600b5560400151600c55565b8051600d80546001600160a01b03199081166001600160a01b03938416179091556020830151600e805483169184169190911790556040830151600f80548316918416919091179055606090920151601080549093169116179055565b60209060018060a01b038151166bffffffffffffffffffffffff60a01b601c541617601c550151601d55565b8051906040602082015191015190614095612ab5565b928352602083015260408201526140b45f8052601360205260405f2090565b90604060029180518455602081015160018501550151910155565b63809953b760e01b5f5260045ffd5b6001600160a01b0390911681526040602082018190526110419291019061251a565b6010546141b290611041906001600160a01b03166112226141826141a261047a9361412d60208601612ac4565b948086526153756020870139600e5461419090614152906001600160a01b03166132f8565b60405163784d200b60e11b60208201526001600160a01b0390911660248201523060448201529384906064820190565b03601f19810185528461245b565b611222604051938492602084016140de565b60405194859360208501906136da565b906136da565b815f19048111820215830215613d3757020490565b60025f51602061580f5f395f51905f5254146141f65760025f51602061580f5f395f51905f5255565b633ee5aeb560e01b5f5260045ffd5b949390928115614330578161421b858886613807565b106127aa57819061422d858884613ae2565b9197909988949350828b811515976142766142e89661150661427d947fed271158503049cb52ea8ef07cc174c047f2d828905826b67ad92ef36778cd609c6142ef575b8b6130aa565b8585614f29565b6142898884848c614ff8565b6142a589600261271d8661386c875f52601b60205260405f2090565b549760405196879660018060a01b03169a60018060a01b031699879260a094919796959260c0850198855260208501526040840152606083015260808201520152565b0390a39190565b61432b61430e846143088b5f52601260205260405f2090565b546130aa565b60016143228b5f52601260205260405f2090565b0154908a614ec0565b614270565b63224af49960e11b5f5260045ffd5b80156143a2575f8080808460018060a01b03600154165af161435f6131f7565b5015610a2d576001546040519182526001600160a01b03169033907ffd2f5d3811ae7b8af2bd567683c6265c793894aa361eb932658effcf52d635a290602090a3565b50565b9392801561433057806143b886846133d6565b106127aa576143dc8160016143d5885f52601260205260405f2090565b0154613131565b600454116144c5577f347ee37487f7d4fe0b4d3777823c6a71c110e3df43f4f3d35356cf6909e9abdb856144136142e8978461313e565b829893506144646144458361443f61443789969f97995f52601260205260405f2090565b5491896130aa565b90613131565b61445d8960016143d5875f52601260205260405f2090565b9084614ec0565b61446f87838a615093565b61448788600261271d855f52601260205260405f2090565b5460408051918252602082019690965294850196909652606084019590955260808301949094526001600160a01b03908116941692819060a0820190565b6144e06144f29160016143d5885f52601260205260405f2090565b6378daa24160e01b5f52600452602490565b5ffd5b60ff5f5160206157ef5f395f51905f52541661450d57565b63d93c066560e01b5f5260045ffd5b905f5b6003811061452c57505050565b60019060208351930192818501550161451f565b9391939290926145506060612ac4565b948186528460208701528060408701525f5b6003811061472c575061457681868461377d565b92614589845f52601860205260405f2090565b5461470e5761459a9061443f6130ca565b946145a36150f8565b93846145cb6145bc6145b5838b613244565b809a613131565b925f52601860205260405f2090565b556145ff6145d96060612ac4565b8581528360208201528460408201526145fa875f52601760205260405f2090565b61451c565b614621614614865f52601960205260405f2090565b805460ff19166001179055565b61463f6146386146318784613759565b8093613131565b338761510d565b806146fd575b50600b54614698575b60408051938452602084019190915282015260608101829052929350909133907f950bffece137ec4b4173970288bc78f45d30d77c58e0e87e6b210599a9ddc8f390608090a29190565b5f5b600381106146a8575061464e565b806146f76146b86001938b61301a565b516146dc6146ce825f52601260205260405f2090565b54600b5460039004906130aa565b846146ef835f52601260205260405f2090565b015491614ec0565b0161469a565b614708903386614b60565b5f614645565b5063d94a41bd60e01b5f52600491909152602484905260445260645ffd5b614736818861301a565b511580156147a2575b61478257614756614750828961301a565b51613650565b61476257600101614562565b61476f6144f2918861301a565b5163053ea79560e51b5f52600452602490565b61478f6144f2918861301a565b51631b57ccd960e01b5f52600452602490565b506147ad818861301a565b516011541061473f565b916147c28282613684565b505090501561433057816147d591613684565b909392919482156148bd576148b7869261484561481f7f63f1715b856071be1b955e9ae199dab3454f8aba9d970ba690fa6ac9268e701496885f52601260205260405f20546130aa565b61483e8660016148378b5f52601260205260405f2090565b01546130aa565b9088614ec0565b614850848785615295565b61486883600261271d895f52601260205260405f2090565b549561487381613650565b9160405195869560018060a01b031699339987929360c0945f969298979360e086019986526020860152604085015260608401526080830152151560a08201520152565b0390a390565b63a3d9d45760e01b5f5260045ffd5b9092916001600160401b03811161241f576148f1816148eb84546123b8565b84613467565b5f601f821160011461492e57819061491f9394955f926149235750508160011b915f199060031b1c19161790565b9055565b013590505f806134fb565b601f19821694614941845f5260205f2090565b915f5b87811061497b575083600195969710614962575b505050811b019055565b01355f19600384901b60f8161c191690555f8080614958565b90926020600181928686013581550194019101614944565b9291906005548111614ab3576149a7613226565b6149b236838761341b565b60208151910120926149cc845f52601660205260405f2090565b54614a7e57906149db91613131565b937f8a016c336f3624ae541c0b00d83a02b05ed2ecbb29874e15881766f51aa323e0614a056150f8565b8094614a1e614a176145b5848b613244565b338461510d565b81614a63614a2b82612f98565b92614a39600854858561510d565b614a558888614a50865f52601560205260405f2090565b6148cc565b5f52601660205260405f2090565b556142e860405192839260018060a01b0316963396846135d6565b8286614aaf614a95875f52601660205260405f2090565b54604051636478137b60e11b8152938493600485016135d6565b0390fd5b6305df6cdb60e11b5f5260045ffd5b5f52601a60205260405f20604051614ad981612424565b614ae28261247c565b81526001820154604060ff6002602085019584875201541692019115158252156129db57516129cc57514210614b1457565b634b56dcfd60e11b5f5260045ffd5b90614b2d82613650565b156119ae57614b5a91195f526012602052600260405f20019060018060a01b03165f5260205260405f2090565b54151590565b916003900490614b8260405193614b7860608661245b565b6060368637613030565b6040860152602085015283525f5b60038110614b9e5750505050565b80614bb684614baf6001948861301a565b51856147b7565b5001614b90565b9192614bca848383613d44565b505090501561433057614bf3614bec8561386c855f52601b60205260405f2090565b54826130aa565b601c54614c0a906132f8906001600160a01b031681565b60405163a0760cad60e01b8152600481018790529190602090839060249082905afa91821561181c575f92614d56575b5011614d47578382614c4b92613d44565b919592949094156148bd576148b7827ffbac54646742054f324c1121e86721fde22f34f6c259f50259d9cbd807ac932b948894614d0c575b614c8f8589838a6152cb565b614c9b85828987615316565b614cb784600261271d8461386c8c5f52601b60205260405f2090565b5496614cc281613650565b9260405196879660018060a01b03169a339a889360e095919897935f979361010087019a8752602087015260408601526060850152608084015260a0830152151560c08201520152565b614d42614d25836143088a5f52601260205260405f2090565b6001614d398a5f52601260205260405f2090565b01549089614ec0565b614c83565b6321c94b4160e21b5f5260045ffd5b614d7091925060203d60201161181557611807818361245b565b905f614c3a565b9190614d8283613650565b156119ae57614b5a92195f52601b60205260405f20905f52602052600260405f20019060018060a01b03165f5260205260405f2090565b93926003900490614ddc60405195614dd260608861245b565b6060368837613030565b6040880152602087015285525f5b60038110614dfa57505050509050565b80614e138484614e0c6001958b61301a565b5188614bbd565b5001614dea565b3615614e9f575f5f5b809136821015614e8657600182019160031981019035185f1a8015614e515760019293508153015b90614e23565b505f1981526002830192600192607f91600219019035185f1a81811115614e7b575b160101614e4b565b838101388439614e73565b5f90389082305af43d5f803e15614e9b573d5ff35b3d5ffd5b3636f35b815f19048111820215830215613d37570290808204910615150190565b5f818152601260205260409020828155600101839055917f3d30b67800278e4268771b088a5e66fd0b31b20145d1990f97e7d987cb7ddd8f9190614f24614f0685613cd0565b91604051938493846040919493926060820195825260208201520152565b0390a2565b91929092825f52601b60205260405f20845f5260205260405f208054918203918211610ced5755815f52601b60205260405f20835f52602052614f74600160405f2001918254613131565b90557fe527eb96aa65c29932de47dc381ba7fdd1eb15c5abc79516d79441c6863aa93d614fa183836132ad565b614fb78461386c855f52601b60205260405f2090565b5490614ff36001614fd48761386c885f52601b60205260405f2090565b0154604051938493846040919493926060820195825260208201520152565b0390a3565b906001600160a01b03821615615084575f818152601b6020908152604080832086845282528083206001600160a01b03861684526002019091529020549380851061507557615072936002925f52601b60205260405f20905f5260205260405f20940393019060018060a01b03165f5260205260405f2090565b55565b631b9e15c160e21b5f5260045ffd5b63017456ed60e31b5f5260045ffd5b916001600160a01b03831615615084575f8281526012602090815260408083206001600160a01b038716845260020190915290205481811061507557615072925f5260126020520391600260405f20019060018060a01b03165f5260205260405f2090565b6011545f198114610ced576001018060115590565b907f63f1715b856071be1b955e9ae199dab3454f8aba9d970ba690fa6ac9268e70149061513c6132f884612f98565b93614ff360018060a01b0383169586146151cb60045494825f146152855784955b6151968961518f89600161483761518083614308875f52601260205260405f2090565b945f52601260205260405f2090565b908b614ec0565b6151a1868a84615295565b8315615268575b6151b189613650565b615214575b50600261271d895f52601260205260405f2090565b54956151d681613650565b9060405195869533998794919260c0949197969360e08701988752602087015260408601525f60608601526080850152151560a08401521515910152565b61526290891961525261523383614308845f52601260205260405f2090565b61524b846001614837865f52601260205260405f2090565b9083614ec0565b5f546001600160a01b0316615295565b5f6151b6565b5f546152809082908b906001600160a01b0316615295565b6151a8565b61528f86866130aa565b9561515d565b6152bc915f526012602052600260405f20019060018060a01b03165f5260205260405f2090565b8054918201809211610ced5755565b91929092825f52601b60205260405f20845f5260205260405f208054918201809211610ced5755815f52601b60205260405f20835f52602052614f74600160405f20019182546130aa565b90916152bc925f52601b60205260405f20905f52602052600260405f20019060018060a01b03165f5260205260405f2090565b60ff5f51602061582f5f395f51905f525460401c161561536557565b631afcd79f60e31b5f5260045ffdfe60a08060405261047a80380380916100178285610292565b833981016040828203126101eb5761002e826102c9565b602083015190926001600160401b0382116101eb57019080601f830112156101eb57815161005b816102dd565b926100696040519485610292565b8184526020840192602083830101116101eb57815f926020809301855e84010152823b15610274577fa3f0ad74e5423aebfd80d3ef4346578335a9a72aeaee59ff6cb3582b35133d5080546001600160a01b0319166001600160a01b038516908117909155604051635c60da1b60e01b8152909190602081600481865afa9081156101f7575f9161023a575b50803b1561021a5750817f1cf3b03a6cf19fa2baba4df148e9dcabedea7f8a5c07840e207e5c089be95d3e5f80a282511561020257602060049260405193848092635c60da1b60e01b82525afa9182156101f7575f926101ae575b505f809161018a945190845af43d156101a6573d9161016e836102dd565b9261017c6040519485610292565b83523d5f602085013e6102f8565b505b608052604051610123908161035782396080518160180152f35b6060916102f8565b9291506020833d6020116101ef575b816101ca60209383610292565b810103126101eb575f80916101e161018a956102c9565b9394509150610150565b5f80fd5b3d91506101bd565b6040513d5f823e3d90fd5b505050341561018c5763b398979f60e01b5f5260045ffd5b634c9c8ce360e01b5f9081526001600160a01b0391909116600452602490fd5b90506020813d60201161026c575b8161025560209383610292565b810103126101eb57610266906102c9565b5f6100f5565b3d9150610248565b631933b43b60e21b5f9081526001600160a01b038416600452602490fd5b601f909101601f19168101906001600160401b038211908210176102b557604052565b634e487b7160e01b5f52604160045260245ffd5b51906001600160a01b03821682036101eb57565b6001600160401b0381116102b557601f01601f191660200190565b9061031c575080511561030d57805190602001fd5b630a12f52160e11b5f5260045ffd5b8151158061034d575b61032d575090565b639996b31560e01b5f9081526001600160a01b0391909116600452602490fd5b50803b1561032556fe60806040819052635c60da1b60e01b81526020906004817f00000000000000000000000000000000000000000000000000000000000000006001600160a01b03165afa801560a2575f901560d1575060203d602011609c575b601f19601f820116608001906080821067ffffffffffffffff83111760885760849160405260800160ad565b60d1565b634e487b7160e01b5f52604160045260245ffd5b503d6058565b6040513d5f823e3d90fd5b602090607f19011260cd576080516001600160a01b038116810360cd5790565b5f80fd5b5f8091368280378136915af43d5f803e1560e9573d5ff35b3d5ffdfea264697066735822122087ccd64498a0670a7699026c7364fc07d61430e0fce7b8c6387a63ddb132c66164736f6c634300081c0033cd5ed15c6e187e77e9aee88184c21f4f2182ab5827cb3b7e07fbedcd63f033009b779b17422d0df92223018b32b4d1fa46e071723d6817e2486d003becc55f00f0c57e16840df040f15088dc2f81fe391c3923bec73e23a9662efc9c229c6a00a2646970667358221220c5ccd6b53a2e83feec42bda629ef3f4734f19bb131661835b707795537cd735064736f6c634300081c0033f0c57e16840df040f15088dc2f81fe391c3923bec73e23a9662efc9c229c6a00","linkReferences":{}},"methodIdentifiers":{"SET_ADMIN()":"4d592c6a","SET_EXIT_FEE()":"90855592","approvals(address,address)":"a32ce11e","approve(address,uint8)":"4342e966","atomConfig()":"7f833f04","atomDepositsAmount(uint256,uint256)":"7b3d7bc3","atoms(uint256)":"f315a94e","atomsByHash(bytes32)":"e3b764af","batchCreateAtom(bytes[])":"65f64685","batchCreateTriple(uint256[],uint256[],uint256[])":"8daf7443","batchDeposit(address,uint256[],uint256[])":"a432c54b","batchDepositCurve(address,uint256[],uint256[],uint256[])":"c8b494ba","batchRedeem(uint256,address,uint256[])":"f73a2bb3","batchRedeemCurve(uint256,address,uint256[],uint256[])":"cfe8b7f6","bondingCurveConfig()":"a3bb4f6e","bondingCurveVaults(uint256,uint256)":"3bcef9a6","cancelOperation(bytes32,bytes)":"de3cca60","computeAtomWalletAddr(uint256)":"0ac819db","convertToAssets(uint256,uint256)":"181e7b3b","convertToAssetsCurve(uint256,uint256,uint256)":"b0559b45","convertToShares(uint256,uint256)":"db2088f4","convertToSharesCurve(uint256,uint256,uint256)":"bac67f72","count()":"06661abd","createAtom(bytes)":"f10c9f9b","createTriple(uint256,uint256,uint256)":"39c4f49c","currentSharePrice(uint256)":"ee9dd98f","currentSharePriceCurve(uint256,uint256)":"401569c7","deployAtomWallet(uint256)":"dc5adb8c","depositAtom(address,uint256)":"441d1c2f","depositAtomCurve(address,uint256,uint256)":"a169b46c","depositTriple(address,uint256)":"859aa971","depositTripleCurve(address,uint256,uint256)":"d403f617","entryFeeAmount(uint256,uint256)":"04c89bc6","exitFeeAmount(uint256,uint256)":"ae0a1542","generalConfig()":"927a97a1","getAtomCost()":"33332d39","getAtomWarden()":"84e100db","getCounterIdFromTriple(uint256)":"bb7dd379","getCurveVaultState(uint256,uint256)":"04357c73","getDepositFees(uint256,uint256)":"a4ddc786","getDepositSharesAndFees(uint256,uint256)":"67ab7594","getDepositSharesAndFeesCurve(uint256,uint256,uint256)":"f017b290","getRedeemAssetsAndFees(uint256,uint256)":"1d35900a","getRedeemAssetsAndFeesCurve(uint256,uint256,uint256)":"dc385309","getTripleAtoms(uint256)":"0cde801b","getTripleCost()":"0d65c91c","getVaultStateForUser(uint256,address)":"89065256","getVaultStateForUserCurve(uint256,uint256,address)":"3fadf677","init((address,address,uint256,uint256,uint256,uint256,uint256,uint256),(uint256,uint256),(uint256,uint256,uint256),(address,address,address,address),(uint256,uint256,uint256),(address,uint256))":"f1ff7cc9","isApprovedDeposit(address,address)":"bfb1776f","isApprovedRedeem(address,address)":"46fd65c4","isTriple(uint256)":"c61703ac","isTripleId(uint256)":"66e34a33","maxDeposit()":"6083e59a","maxDepositCurve(uint256)":"7c66deae","maxRedeem(address,uint256)":"4abe4137","maxRedeemCurve(address,uint256,uint256)":"af9d35a3","pause()":"8456cb59","paused()":"5c975abb","previewDeposit(uint256,uint256)":"7a7af70d","previewDepositCurve(uint256,uint256,uint256)":"54d94dd9","previewRedeem(uint256,uint256)":"bbec4d06","previewRedeemCurve(uint256,uint256,uint256)":"cf8cea24","protocolFeeAmount(uint256,uint256)":"39a38449","redeemAtom(uint256,address,uint256)":"3800c5c4","redeemAtomCurve(uint256,address,uint256,uint256)":"266190af","redeemTriple(uint256,address,uint256)":"b790e672","redeemTripleCurve(uint256,address,uint256,uint256)":"98e404d1","scheduleOperation(bytes32,bytes)":"56d54d68","setAdmin(address)":"704b6c02","setAtomCreationProtocolFee(uint256)":"f903ff72","setAtomUriMaxLength(uint256)":"340a2812","setAtomWalletInitialDepositAmount(uint256)":"2dd42644","setAtomWarden(address)":"001fc87d","setEntryFee(uint256,uint256)":"5408eec9","setExitFee(uint256,uint256)":"9f49b60e","setMinDeposit(uint256)":"8fcc9cfb","setMinShare(uint256)":"2a22fec5","setProtocolFee(uint256,uint256)":"240de277","setProtocolMultisig(address)":"a3bde6ac","setTotalAtomDepositsForTriple(uint256)":"f7533669","setTotalAtomDepositsOnTripleCreation(uint256)":"63ff7ec0","setTripleCreationProtocolFee(uint256)":"6cc18d40","timelocks(bytes32)":"c9ceddb8","tripleConfig()":"1e19e2c8","tripleHash(uint256)":"13aaab97","tripleHashFromAtoms(uint256,uint256,uint256)":"7c373661","triples(uint256,uint256)":"cfc15f15","triplesByHash(bytes32)":"59b125d2","unpause()":"3f4ba83a","vaultFees(uint256)":"22061379","vaults(uint256)":"8c64ea4a","walletConfig()":"d34ddc05"},"storageLayout":{"storage":[{"astId":65028,"contract":"src/EthMultiVault.sol:EthMultiVault","label":"generalConfig","offset":0,"slot":"0","type":"t_struct(GeneralConfig)71989_storage"},{"astId":65031,"contract":"src/EthMultiVault.sol:EthMultiVault","label":"atomConfig","offset":0,"slot":"8","type":"t_struct(AtomConfig)72002_storage"},{"astId":65034,"contract":"src/EthMultiVault.sol:EthMultiVault","label":"tripleConfig","offset":0,"slot":"10","type":"t_struct(TripleConfig)72013_storage"},{"astId":65037,"contract":"src/EthMultiVault.sol:EthMultiVault","label":"walletConfig","offset":0,"slot":"13","type":"t_struct(WalletConfig)72028_storage"},{"astId":65040,"contract":"src/EthMultiVault.sol:EthMultiVault","label":"count","offset":0,"slot":"17","type":"t_uint256"},{"astId":65046,"contract":"src/EthMultiVault.sol:EthMultiVault","label":"vaults","offset":0,"slot":"18","type":"t_mapping(t_uint256,t_struct(VaultState)72038_storage)"},{"astId":65052,"contract":"src/EthMultiVault.sol:EthMultiVault","label":"vaultFees","offset":0,"slot":"19","type":"t_mapping(t_uint256,t_struct(VaultFees)72049_storage)"},{"astId":65059,"contract":"src/EthMultiVault.sol:EthMultiVault","label":"approvals","offset":0,"slot":"20","type":"t_mapping(t_address,t_mapping(t_address,t_uint8))"},{"astId":65064,"contract":"src/EthMultiVault.sol:EthMultiVault","label":"atoms","offset":0,"slot":"21","type":"t_mapping(t_uint256,t_bytes_storage)"},{"astId":65068,"contract":"src/EthMultiVault.sol:EthMultiVault","label":"atomsByHash","offset":0,"slot":"22","type":"t_mapping(t_bytes32,t_uint256)"},{"astId":65074,"contract":"src/EthMultiVault.sol:EthMultiVault","label":"triples","offset":0,"slot":"23","type":"t_mapping(t_uint256,t_array(t_uint256)3_storage)"},{"astId":65078,"contract":"src/EthMultiVault.sol:EthMultiVault","label":"triplesByHash","offset":0,"slot":"24","type":"t_mapping(t_bytes32,t_uint256)"},{"astId":65082,"contract":"src/EthMultiVault.sol:EthMultiVault","label":"isTriple","offset":0,"slot":"25","type":"t_mapping(t_uint256,t_bool)"},{"astId":65088,"contract":"src/EthMultiVault.sol:EthMultiVault","label":"timelocks","offset":0,"slot":"26","type":"t_mapping(t_bytes32,t_struct(Timelock)72060_storage)"},{"astId":65096,"contract":"src/EthMultiVault.sol:EthMultiVault","label":"bondingCurveVaults","offset":0,"slot":"27","type":"t_mapping(t_uint256,t_mapping(t_uint256,t_struct(VaultState)72038_storage))"},{"astId":65100,"contract":"src/EthMultiVault.sol:EthMultiVault","label":"bondingCurveConfig","offset":0,"slot":"28","type":"t_struct(BondingCurveConfig)71994_storage"},{"astId":65105,"contract":"src/EthMultiVault.sol:EthMultiVault","label":"__gap","offset":0,"slot":"30","type":"t_array(t_uint256)47_storage"}],"types":{"t_address":{"encoding":"inplace","label":"address","numberOfBytes":"20"},"t_array(t_uint256)3_storage":{"encoding":"inplace","label":"uint256[3]","numberOfBytes":"96","base":"t_uint256"},"t_array(t_uint256)47_storage":{"encoding":"inplace","label":"uint256[47]","numberOfBytes":"1504","base":"t_uint256"},"t_bool":{"encoding":"inplace","label":"bool","numberOfBytes":"1"},"t_bytes32":{"encoding":"inplace","label":"bytes32","numberOfBytes":"32"},"t_bytes_storage":{"encoding":"bytes","label":"bytes","numberOfBytes":"32"},"t_contract(IPermit2)73112":{"encoding":"inplace","label":"contract IPermit2","numberOfBytes":"20"},"t_mapping(t_address,t_mapping(t_address,t_uint8))":{"encoding":"mapping","key":"t_address","label":"mapping(address => mapping(address => uint8))","numberOfBytes":"32","value":"t_mapping(t_address,t_uint8)"},"t_mapping(t_address,t_uint256)":{"encoding":"mapping","key":"t_address","label":"mapping(address => uint256)","numberOfBytes":"32","value":"t_uint256"},"t_mapping(t_address,t_uint8)":{"encoding":"mapping","key":"t_address","label":"mapping(address => uint8)","numberOfBytes":"32","value":"t_uint8"},"t_mapping(t_bytes32,t_struct(Timelock)72060_storage)":{"encoding":"mapping","key":"t_bytes32","label":"mapping(bytes32 => struct IEthMultiVault.Timelock)","numberOfBytes":"32","value":"t_struct(Timelock)72060_storage"},"t_mapping(t_bytes32,t_uint256)":{"encoding":"mapping","key":"t_bytes32","label":"mapping(bytes32 => uint256)","numberOfBytes":"32","value":"t_uint256"},"t_mapping(t_uint256,t_array(t_uint256)3_storage)":{"encoding":"mapping","key":"t_uint256","label":"mapping(uint256 => uint256[3])","numberOfBytes":"32","value":"t_array(t_uint256)3_storage"},"t_mapping(t_uint256,t_bool)":{"encoding":"mapping","key":"t_uint256","label":"mapping(uint256 => bool)","numberOfBytes":"32","value":"t_bool"},"t_mapping(t_uint256,t_bytes_storage)":{"encoding":"mapping","key":"t_uint256","label":"mapping(uint256 => bytes)","numberOfBytes":"32","value":"t_bytes_storage"},"t_mapping(t_uint256,t_mapping(t_uint256,t_struct(VaultState)72038_storage))":{"encoding":"mapping","key":"t_uint256","label":"mapping(uint256 => mapping(uint256 => struct IEthMultiVault.VaultState))","numberOfBytes":"32","value":"t_mapping(t_uint256,t_struct(VaultState)72038_storage)"},"t_mapping(t_uint256,t_struct(VaultFees)72049_storage)":{"encoding":"mapping","key":"t_uint256","label":"mapping(uint256 => struct IEthMultiVault.VaultFees)","numberOfBytes":"32","value":"t_struct(VaultFees)72049_storage"},"t_mapping(t_uint256,t_struct(VaultState)72038_storage)":{"encoding":"mapping","key":"t_uint256","label":"mapping(uint256 => struct IEthMultiVault.VaultState)","numberOfBytes":"32","value":"t_struct(VaultState)72038_storage"},"t_struct(AtomConfig)72002_storage":{"encoding":"inplace","label":"struct IEthMultiVault.AtomConfig","numberOfBytes":"64","members":[{"astId":71998,"contract":"src/EthMultiVault.sol:EthMultiVault","label":"atomWalletInitialDepositAmount","offset":0,"slot":"0","type":"t_uint256"},{"astId":72001,"contract":"src/EthMultiVault.sol:EthMultiVault","label":"atomCreationProtocolFee","offset":0,"slot":"1","type":"t_uint256"}]},"t_struct(BondingCurveConfig)71994_storage":{"encoding":"inplace","label":"struct IEthMultiVault.BondingCurveConfig","numberOfBytes":"64","members":[{"astId":71991,"contract":"src/EthMultiVault.sol:EthMultiVault","label":"registry","offset":0,"slot":"0","type":"t_address"},{"astId":71993,"contract":"src/EthMultiVault.sol:EthMultiVault","label":"defaultCurveId","offset":0,"slot":"1","type":"t_uint256"}]},"t_struct(GeneralConfig)71989_storage":{"encoding":"inplace","label":"struct IEthMultiVault.GeneralConfig","numberOfBytes":"256","members":[{"astId":71967,"contract":"src/EthMultiVault.sol:EthMultiVault","label":"admin","offset":0,"slot":"0","type":"t_address"},{"astId":71970,"contract":"src/EthMultiVault.sol:EthMultiVault","label":"protocolMultisig","offset":0,"slot":"1","type":"t_address"},{"astId":71973,"contract":"src/EthMultiVault.sol:EthMultiVault","label":"feeDenominator","offset":0,"slot":"2","type":"t_uint256"},{"astId":71976,"contract":"src/EthMultiVault.sol:EthMultiVault","label":"minDeposit","offset":0,"slot":"3","type":"t_uint256"},{"astId":71979,"contract":"src/EthMultiVault.sol:EthMultiVault","label":"minShare","offset":0,"slot":"4","type":"t_uint256"},{"astId":71982,"contract":"src/EthMultiVault.sol:EthMultiVault","label":"atomUriMaxLength","offset":0,"slot":"5","type":"t_uint256"},{"astId":71985,"contract":"src/EthMultiVault.sol:EthMultiVault","label":"decimalPrecision","offset":0,"slot":"6","type":"t_uint256"},{"astId":71988,"contract":"src/EthMultiVault.sol:EthMultiVault","label":"minDelay","offset":0,"slot":"7","type":"t_uint256"}]},"t_struct(Timelock)72060_storage":{"encoding":"inplace","label":"struct IEthMultiVault.Timelock","numberOfBytes":"96","members":[{"astId":72053,"contract":"src/EthMultiVault.sol:EthMultiVault","label":"data","offset":0,"slot":"0","type":"t_bytes_storage"},{"astId":72056,"contract":"src/EthMultiVault.sol:EthMultiVault","label":"readyTime","offset":0,"slot":"1","type":"t_uint256"},{"astId":72059,"contract":"src/EthMultiVault.sol:EthMultiVault","label":"executed","offset":0,"slot":"2","type":"t_bool"}]},"t_struct(TripleConfig)72013_storage":{"encoding":"inplace","label":"struct IEthMultiVault.TripleConfig","numberOfBytes":"96","members":[{"astId":72006,"contract":"src/EthMultiVault.sol:EthMultiVault","label":"tripleCreationProtocolFee","offset":0,"slot":"0","type":"t_uint256"},{"astId":72009,"contract":"src/EthMultiVault.sol:EthMultiVault","label":"totalAtomDepositsOnTripleCreation","offset":0,"slot":"1","type":"t_uint256"},{"astId":72012,"contract":"src/EthMultiVault.sol:EthMultiVault","label":"totalAtomDepositsForTriple","offset":0,"slot":"2","type":"t_uint256"}]},"t_struct(VaultFees)72049_storage":{"encoding":"inplace","label":"struct IEthMultiVault.VaultFees","numberOfBytes":"96","members":[{"astId":72042,"contract":"src/EthMultiVault.sol:EthMultiVault","label":"entryFee","offset":0,"slot":"0","type":"t_uint256"},{"astId":72045,"contract":"src/EthMultiVault.sol:EthMultiVault","label":"exitFee","offset":0,"slot":"1","type":"t_uint256"},{"astId":72048,"contract":"src/EthMultiVault.sol:EthMultiVault","label":"protocolFee","offset":0,"slot":"2","type":"t_uint256"}]},"t_struct(VaultState)72038_storage":{"encoding":"inplace","label":"struct IEthMultiVault.VaultState","numberOfBytes":"96","members":[{"astId":72031,"contract":"src/EthMultiVault.sol:EthMultiVault","label":"totalAssets","offset":0,"slot":"0","type":"t_uint256"},{"astId":72033,"contract":"src/EthMultiVault.sol:EthMultiVault","label":"totalShares","offset":0,"slot":"1","type":"t_uint256"},{"astId":72037,"contract":"src/EthMultiVault.sol:EthMultiVault","label":"balanceOf","offset":0,"slot":"2","type":"t_mapping(t_address,t_uint256)"}]},"t_struct(WalletConfig)72028_storage":{"encoding":"inplace","label":"struct IEthMultiVault.WalletConfig","numberOfBytes":"128","members":[{"astId":72018,"contract":"src/EthMultiVault.sol:EthMultiVault","label":"permit2","offset":0,"slot":"0","type":"t_contract(IPermit2)73112"},{"astId":72021,"contract":"src/EthMultiVault.sol:EthMultiVault","label":"entryPoint","offset":0,"slot":"1","type":"t_address"},{"astId":72024,"contract":"src/EthMultiVault.sol:EthMultiVault","label":"atomWarden","offset":0,"slot":"2","type":"t_address"},{"astId":72027,"contract":"src/EthMultiVault.sol:EthMultiVault","label":"atomWalletBeacon","offset":0,"slot":"3","type":"t_address"}]},"t_uint256":{"encoding":"inplace","label":"uint256","numberOfBytes":"32"},"t_uint8":{"encoding":"inplace","label":"uint8","numberOfBytes":"1"}}},"id":106}