{
  "abi": [
    {
      "type": "constructor",
      "inputs": [],
      "stateMutability": "nonpayable"
    },
    {
      "type": "fallback",
      "stateMutability": "payable"
    },
    {
      "type": "receive",
      "stateMutability": "payable"
    },
    {
      "type": "function",
      "name": "SET_ADMIN",
      "inputs": [],
      "outputs": [
        {
          "name": "",
          "type": "bytes32",
          "internalType": "bytes32"
        }
      ],
      "stateMutability": "view"
    },
    {
      "type": "function",
      "name": "SET_EXIT_FEE",
      "inputs": [],
      "outputs": [
        {
          "name": "",
          "type": "bytes32",
          "internalType": "bytes32"
        }
      ],
      "stateMutability": "view"
    },
    {
      "type": "function",
      "name": "approvals",
      "inputs": [
        {
          "name": "receiver",
          "type": "address",
          "internalType": "address"
        },
        {
          "name": "sender",
          "type": "address",
          "internalType": "address"
        }
      ],
      "outputs": [
        {
          "name": "isApproved",
          "type": "bool",
          "internalType": "bool"
        }
      ],
      "stateMutability": "view"
    },
    {
      "type": "function",
      "name": "approveSender",
      "inputs": [
        {
          "name": "sender",
          "type": "address",
          "internalType": "address"
        }
      ],
      "outputs": [],
      "stateMutability": "nonpayable"
    },
    {
      "type": "function",
      "name": "atomConfig",
      "inputs": [],
      "outputs": [
        {
          "name": "atomWalletInitialDepositAmount",
          "type": "uint256",
          "internalType": "uint256"
        },
        {
          "name": "atomCreationProtocolFee",
          "type": "uint256",
          "internalType": "uint256"
        }
      ],
      "stateMutability": "view"
    },
    {
      "type": "function",
      "name": "atomDepositsAmount",
      "inputs": [
        {
          "name": "assets",
          "type": "uint256",
          "internalType": "uint256"
        },
        {
          "name": "id",
          "type": "uint256",
          "internalType": "uint256"
        }
      ],
      "outputs": [
        {
          "name": "",
          "type": "uint256",
          "internalType": "uint256"
        }
      ],
      "stateMutability": "view"
    },
    {
      "type": "function",
      "name": "atoms",
      "inputs": [
        {
          "name": "atomId",
          "type": "uint256",
          "internalType": "uint256"
        }
      ],
      "outputs": [
        {
          "name": "atomData",
          "type": "bytes",
          "internalType": "bytes"
        }
      ],
      "stateMutability": "view"
    },
    {
      "type": "function",
      "name": "atomsByHash",
      "inputs": [
        {
          "name": "atomHash",
          "type": "bytes32",
          "internalType": "bytes32"
        }
      ],
      "outputs": [
        {
          "name": "atomId",
          "type": "uint256",
          "internalType": "uint256"
        }
      ],
      "stateMutability": "view"
    },
    {
      "type": "function",
      "name": "batchCreateAtom",
      "inputs": [
        {
          "name": "atomUris",
          "type": "bytes[]",
          "internalType": "bytes[]"
        }
      ],
      "outputs": [
        {
          "name": "",
          "type": "uint256[]",
          "internalType": "uint256[]"
        }
      ],
      "stateMutability": "payable"
    },
    {
      "type": "function",
      "name": "batchCreateTriple",
      "inputs": [
        {
          "name": "subjectIds",
          "type": "uint256[]",
          "internalType": "uint256[]"
        },
        {
          "name": "predicateIds",
          "type": "uint256[]",
          "internalType": "uint256[]"
        },
        {
          "name": "objectIds",
          "type": "uint256[]",
          "internalType": "uint256[]"
        }
      ],
      "outputs": [
        {
          "name": "",
          "type": "uint256[]",
          "internalType": "uint256[]"
        }
      ],
      "stateMutability": "payable"
    },
    {
      "type": "function",
      "name": "bondingCurveConfig",
      "inputs": [],
      "outputs": [
        {
          "name": "registry",
          "type": "address",
          "internalType": "address"
        },
        {
          "name": "defaultCurveId",
          "type": "uint256",
          "internalType": "uint256"
        }
      ],
      "stateMutability": "view"
    },
    {
      "type": "function",
      "name": "bondingCurveVaults",
      "inputs": [
        {
          "name": "vaultId",
          "type": "uint256",
          "internalType": "uint256"
        },
        {
          "name": "curveId",
          "type": "uint256",
          "internalType": "uint256"
        }
      ],
      "outputs": [
        {
          "name": "totalAssets",
          "type": "uint256",
          "internalType": "uint256"
        },
        {
          "name": "totalShares",
          "type": "uint256",
          "internalType": "uint256"
        }
      ],
      "stateMutability": "view"
    },
    {
      "type": "function",
      "name": "cancelOperation",
      "inputs": [
        {
          "name": "operationId",
          "type": "bytes32",
          "internalType": "bytes32"
        },
        {
          "name": "data",
          "type": "bytes",
          "internalType": "bytes"
        }
      ],
      "outputs": [],
      "stateMutability": "nonpayable"
    },
    {
      "type": "function",
      "name": "computeAtomWalletAddr",
      "inputs": [
        {
          "name": "id",
          "type": "uint256",
          "internalType": "uint256"
        }
      ],
      "outputs": [
        {
          "name": "",
          "type": "address",
          "internalType": "address"
        }
      ],
      "stateMutability": "view"
    },
    {
      "type": "function",
      "name": "convertToAssets",
      "inputs": [
        {
          "name": "shares",
          "type": "uint256",
          "internalType": "uint256"
        },
        {
          "name": "id",
          "type": "uint256",
          "internalType": "uint256"
        }
      ],
      "outputs": [
        {
          "name": "",
          "type": "uint256",
          "internalType": "uint256"
        }
      ],
      "stateMutability": "view"
    },
    {
      "type": "function",
      "name": "convertToAssetsCurve",
      "inputs": [
        {
          "name": "shares",
          "type": "uint256",
          "internalType": "uint256"
        },
        {
          "name": "id",
          "type": "uint256",
          "internalType": "uint256"
        },
        {
          "name": "curveId",
          "type": "uint256",
          "internalType": "uint256"
        }
      ],
      "outputs": [
        {
          "name": "",
          "type": "uint256",
          "internalType": "uint256"
        }
      ],
      "stateMutability": "view"
    },
    {
      "type": "function",
      "name": "convertToShares",
      "inputs": [
        {
          "name": "assets",
          "type": "uint256",
          "internalType": "uint256"
        },
        {
          "name": "id",
          "type": "uint256",
          "internalType": "uint256"
        }
      ],
      "outputs": [
        {
          "name": "",
          "type": "uint256",
          "internalType": "uint256"
        }
      ],
      "stateMutability": "view"
    },
    {
      "type": "function",
      "name": "convertToSharesCurve",
      "inputs": [
        {
          "name": "assets",
          "type": "uint256",
          "internalType": "uint256"
        },
        {
          "name": "id",
          "type": "uint256",
          "internalType": "uint256"
        },
        {
          "name": "curveId",
          "type": "uint256",
          "internalType": "uint256"
        }
      ],
      "outputs": [
        {
          "name": "",
          "type": "uint256",
          "internalType": "uint256"
        }
      ],
      "stateMutability": "view"
    },
    {
      "type": "function",
      "name": "count",
      "inputs": [],
      "outputs": [
        {
          "name": "",
          "type": "uint256",
          "internalType": "uint256"
        }
      ],
      "stateMutability": "view"
    },
    {
      "type": "function",
      "name": "createAtom",
      "inputs": [
        {
          "name": "atomUri",
          "type": "bytes",
          "internalType": "bytes"
        }
      ],
      "outputs": [
        {
          "name": "",
          "type": "uint256",
          "internalType": "uint256"
        }
      ],
      "stateMutability": "payable"
    },
    {
      "type": "function",
      "name": "createTriple",
      "inputs": [
        {
          "name": "subjectId",
          "type": "uint256",
          "internalType": "uint256"
        },
        {
          "name": "predicateId",
          "type": "uint256",
          "internalType": "uint256"
        },
        {
          "name": "objectId",
          "type": "uint256",
          "internalType": "uint256"
        }
      ],
      "outputs": [
        {
          "name": "",
          "type": "uint256",
          "internalType": "uint256"
        }
      ],
      "stateMutability": "payable"
    },
    {
      "type": "function",
      "name": "currentSharePrice",
      "inputs": [
        {
          "name": "id",
          "type": "uint256",
          "internalType": "uint256"
        }
      ],
      "outputs": [
        {
          "name": "",
          "type": "uint256",
          "internalType": "uint256"
        }
      ],
      "stateMutability": "view"
    },
    {
      "type": "function",
      "name": "currentSharePriceCurve",
      "inputs": [
        {
          "name": "id",
          "type": "uint256",
          "internalType": "uint256"
        },
        {
          "name": "curveId",
          "type": "uint256",
          "internalType": "uint256"
        }
      ],
      "outputs": [
        {
          "name": "",
          "type": "uint256",
          "internalType": "uint256"
        }
      ],
      "stateMutability": "view"
    },
    {
      "type": "function",
      "name": "deployAtomWallet",
      "inputs": [
        {
          "name": "atomId",
          "type": "uint256",
          "internalType": "uint256"
        }
      ],
      "outputs": [
        {
          "name": "",
          "type": "address",
          "internalType": "address"
        }
      ],
      "stateMutability": "nonpayable"
    },
    {
      "type": "function",
      "name": "depositAtom",
      "inputs": [
        {
          "name": "receiver",
          "type": "address",
          "internalType": "address"
        },
        {
          "name": "id",
          "type": "uint256",
          "internalType": "uint256"
        }
      ],
      "outputs": [
        {
          "name": "",
          "type": "uint256",
          "internalType": "uint256"
        }
      ],
      "stateMutability": "payable"
    },
    {
      "type": "function",
      "name": "depositAtomCurve",
      "inputs": [
        {
          "name": "receiver",
          "type": "address",
          "internalType": "address"
        },
        {
          "name": "atomId",
          "type": "uint256",
          "internalType": "uint256"
        },
        {
          "name": "curveId",
          "type": "uint256",
          "internalType": "uint256"
        }
      ],
      "outputs": [
        {
          "name": "",
          "type": "uint256",
          "internalType": "uint256"
        }
      ],
      "stateMutability": "payable"
    },
    {
      "type": "function",
      "name": "depositTriple",
      "inputs": [
        {
          "name": "receiver",
          "type": "address",
          "internalType": "address"
        },
        {
          "name": "id",
          "type": "uint256",
          "internalType": "uint256"
        }
      ],
      "outputs": [
        {
          "name": "",
          "type": "uint256",
          "internalType": "uint256"
        }
      ],
      "stateMutability": "payable"
    },
    {
      "type": "function",
      "name": "depositTripleCurve",
      "inputs": [
        {
          "name": "receiver",
          "type": "address",
          "internalType": "address"
        },
        {
          "name": "tripleId",
          "type": "uint256",
          "internalType": "uint256"
        },
        {
          "name": "curveId",
          "type": "uint256",
          "internalType": "uint256"
        }
      ],
      "outputs": [
        {
          "name": "",
          "type": "uint256",
          "internalType": "uint256"
        }
      ],
      "stateMutability": "payable"
    },
    {
      "type": "function",
      "name": "entryFeeAmount",
      "inputs": [
        {
          "name": "assets",
          "type": "uint256",
          "internalType": "uint256"
        },
        {
          "name": "id",
          "type": "uint256",
          "internalType": "uint256"
        }
      ],
      "outputs": [
        {
          "name": "",
          "type": "uint256",
          "internalType": "uint256"
        }
      ],
      "stateMutability": "view"
    },
    {
      "type": "function",
      "name": "exitFeeAmount",
      "inputs": [
        {
          "name": "assets",
          "type": "uint256",
          "internalType": "uint256"
        },
        {
          "name": "id",
          "type": "uint256",
          "internalType": "uint256"
        }
      ],
      "outputs": [
        {
          "name": "",
          "type": "uint256",
          "internalType": "uint256"
        }
      ],
      "stateMutability": "view"
    },
    {
      "type": "function",
      "name": "generalConfig",
      "inputs": [],
      "outputs": [
        {
          "name": "admin",
          "type": "address",
          "internalType": "address"
        },
        {
          "name": "protocolMultisig",
          "type": "address",
          "internalType": "address"
        },
        {
          "name": "feeDenominator",
          "type": "uint256",
          "internalType": "uint256"
        },
        {
          "name": "minDeposit",
          "type": "uint256",
          "internalType": "uint256"
        },
        {
          "name": "minShare",
          "type": "uint256",
          "internalType": "uint256"
        },
        {
          "name": "atomUriMaxLength",
          "type": "uint256",
          "internalType": "uint256"
        },
        {
          "name": "decimalPrecision",
          "type": "uint256",
          "internalType": "uint256"
        },
        {
          "name": "minDelay",
          "type": "uint256",
          "internalType": "uint256"
        }
      ],
      "stateMutability": "view"
    },
    {
      "type": "function",
      "name": "getAtomCost",
      "inputs": [],
      "outputs": [
        {
          "name": "",
          "type": "uint256",
          "internalType": "uint256"
        }
      ],
      "stateMutability": "view"
    },
    {
      "type": "function",
      "name": "getAtomWarden",
      "inputs": [],
      "outputs": [
        {
          "name": "",
          "type": "address",
          "internalType": "address"
        }
      ],
      "stateMutability": "view"
    },
    {
      "type": "function",
      "name": "getCounterIdFromTriple",
      "inputs": [
        {
          "name": "id",
          "type": "uint256",
          "internalType": "uint256"
        }
      ],
      "outputs": [
        {
          "name": "",
          "type": "uint256",
          "internalType": "uint256"
        }
      ],
      "stateMutability": "pure"
    },
    {
      "type": "function",
      "name": "getCurveVaultState",
      "inputs": [
        {
          "name": "termId",
          "type": "uint256",
          "internalType": "uint256"
        },
        {
          "name": "curveId",
          "type": "uint256",
          "internalType": "uint256"
        }
      ],
      "outputs": [
        {
          "name": "",
          "type": "uint256",
          "internalType": "uint256"
        },
        {
          "name": "",
          "type": "uint256",
          "internalType": "uint256"
        }
      ],
      "stateMutability": "view"
    },
    {
      "type": "function",
      "name": "getDepositFees",
      "inputs": [
        {
          "name": "assets",
          "type": "uint256",
          "internalType": "uint256"
        },
        {
          "name": "id",
          "type": "uint256",
          "internalType": "uint256"
        }
      ],
      "outputs": [
        {
          "name": "",
          "type": "uint256",
          "internalType": "uint256"
        }
      ],
      "stateMutability": "view"
    },
    {
      "type": "function",
      "name": "getDepositSharesAndFees",
      "inputs": [
        {
          "name": "assets",
          "type": "uint256",
          "internalType": "uint256"
        },
        {
          "name": "id",
          "type": "uint256",
          "internalType": "uint256"
        }
      ],
      "outputs": [
        {
          "name": "",
          "type": "uint256",
          "internalType": "uint256"
        },
        {
          "name": "",
          "type": "uint256",
          "internalType": "uint256"
        },
        {
          "name": "",
          "type": "uint256",
          "internalType": "uint256"
        },
        {
          "name": "",
          "type": "uint256",
          "internalType": "uint256"
        }
      ],
      "stateMutability": "view"
    },
    {
      "type": "function",
      "name": "getDepositSharesAndFeesCurve",
      "inputs": [
        {
          "name": "assets",
          "type": "uint256",
          "internalType": "uint256"
        },
        {
          "name": "id",
          "type": "uint256",
          "internalType": "uint256"
        },
        {
          "name": "curveId",
          "type": "uint256",
          "internalType": "uint256"
        }
      ],
      "outputs": [
        {
          "name": "",
          "type": "uint256",
          "internalType": "uint256"
        },
        {
          "name": "",
          "type": "uint256",
          "internalType": "uint256"
        },
        {
          "name": "",
          "type": "uint256",
          "internalType": "uint256"
        },
        {
          "name": "",
          "type": "uint256",
          "internalType": "uint256"
        }
      ],
      "stateMutability": "view"
    },
    {
      "type": "function",
      "name": "getRedeemAssetsAndFees",
      "inputs": [
        {
          "name": "shares",
          "type": "uint256",
          "internalType": "uint256"
        },
        {
          "name": "id",
          "type": "uint256",
          "internalType": "uint256"
        }
      ],
      "outputs": [
        {
          "name": "",
          "type": "uint256",
          "internalType": "uint256"
        },
        {
          "name": "",
          "type": "uint256",
          "internalType": "uint256"
        },
        {
          "name": "",
          "type": "uint256",
          "internalType": "uint256"
        },
        {
          "name": "",
          "type": "uint256",
          "internalType": "uint256"
        }
      ],
      "stateMutability": "view"
    },
    {
      "type": "function",
      "name": "getRedeemAssetsAndFeesCurve",
      "inputs": [
        {
          "name": "shares",
          "type": "uint256",
          "internalType": "uint256"
        },
        {
          "name": "id",
          "type": "uint256",
          "internalType": "uint256"
        },
        {
          "name": "curveId",
          "type": "uint256",
          "internalType": "uint256"
        }
      ],
      "outputs": [
        {
          "name": "",
          "type": "uint256",
          "internalType": "uint256"
        },
        {
          "name": "",
          "type": "uint256",
          "internalType": "uint256"
        },
        {
          "name": "",
          "type": "uint256",
          "internalType": "uint256"
        },
        {
          "name": "",
          "type": "uint256",
          "internalType": "uint256"
        }
      ],
      "stateMutability": "view"
    },
    {
      "type": "function",
      "name": "getTripleAtoms",
      "inputs": [
        {
          "name": "id",
          "type": "uint256",
          "internalType": "uint256"
        }
      ],
      "outputs": [
        {
          "name": "",
          "type": "uint256",
          "internalType": "uint256"
        },
        {
          "name": "",
          "type": "uint256",
          "internalType": "uint256"
        },
        {
          "name": "",
          "type": "uint256",
          "internalType": "uint256"
        }
      ],
      "stateMutability": "view"
    },
    {
      "type": "function",
      "name": "getTripleCost",
      "inputs": [],
      "outputs": [
        {
          "name": "",
          "type": "uint256",
          "internalType": "uint256"
        }
      ],
      "stateMutability": "view"
    },
    {
      "type": "function",
      "name": "getVaultStateForUser",
      "inputs": [
        {
          "name": "vaultId",
          "type": "uint256",
          "internalType": "uint256"
        },
        {
          "name": "receiver",
          "type": "address",
          "internalType": "address"
        }
      ],
      "outputs": [
        {
          "name": "",
          "type": "uint256",
          "internalType": "uint256"
        },
        {
          "name": "",
          "type": "uint256",
          "internalType": "uint256"
        }
      ],
      "stateMutability": "view"
    },
    {
      "type": "function",
      "name": "getVaultStateForUserCurve",
      "inputs": [
        {
          "name": "vaultId",
          "type": "uint256",
          "internalType": "uint256"
        },
        {
          "name": "curveId",
          "type": "uint256",
          "internalType": "uint256"
        },
        {
          "name": "receiver",
          "type": "address",
          "internalType": "address"
        }
      ],
      "outputs": [
        {
          "name": "",
          "type": "uint256",
          "internalType": "uint256"
        },
        {
          "name": "",
          "type": "uint256",
          "internalType": "uint256"
        }
      ],
      "stateMutability": "view"
    },
    {
      "type": "function",
      "name": "init",
      "inputs": [
        {
          "name": "_generalConfig",
          "type": "tuple",
          "internalType": "struct IEthMultiVault.GeneralConfig",
          "components": [
            {
              "name": "admin",
              "type": "address",
              "internalType": "address"
            },
            {
              "name": "protocolMultisig",
              "type": "address",
              "internalType": "address"
            },
            {
              "name": "feeDenominator",
              "type": "uint256",
              "internalType": "uint256"
            },
            {
              "name": "minDeposit",
              "type": "uint256",
              "internalType": "uint256"
            },
            {
              "name": "minShare",
              "type": "uint256",
              "internalType": "uint256"
            },
            {
              "name": "atomUriMaxLength",
              "type": "uint256",
              "internalType": "uint256"
            },
            {
              "name": "decimalPrecision",
              "type": "uint256",
              "internalType": "uint256"
            },
            {
              "name": "minDelay",
              "type": "uint256",
              "internalType": "uint256"
            }
          ]
        },
        {
          "name": "_atomConfig",
          "type": "tuple",
          "internalType": "struct IEthMultiVault.AtomConfig",
          "components": [
            {
              "name": "atomWalletInitialDepositAmount",
              "type": "uint256",
              "internalType": "uint256"
            },
            {
              "name": "atomCreationProtocolFee",
              "type": "uint256",
              "internalType": "uint256"
            }
          ]
        },
        {
          "name": "_tripleConfig",
          "type": "tuple",
          "internalType": "struct IEthMultiVault.TripleConfig",
          "components": [
            {
              "name": "tripleCreationProtocolFee",
              "type": "uint256",
              "internalType": "uint256"
            },
            {
              "name": "totalAtomDepositsOnTripleCreation",
              "type": "uint256",
              "internalType": "uint256"
            },
            {
              "name": "totalAtomDepositsForTriple",
              "type": "uint256",
              "internalType": "uint256"
            }
          ]
        },
        {
          "name": "_walletConfig",
          "type": "tuple",
          "internalType": "struct IEthMultiVault.WalletConfig",
          "components": [
            {
              "name": "permit2",
              "type": "address",
              "internalType": "contract IPermit2"
            },
            {
              "name": "entryPoint",
              "type": "address",
              "internalType": "address"
            },
            {
              "name": "atomWarden",
              "type": "address",
              "internalType": "address"
            },
            {
              "name": "atomWalletBeacon",
              "type": "address",
              "internalType": "address"
            }
          ]
        },
        {
          "name": "_defaultVaultFees",
          "type": "tuple",
          "internalType": "struct IEthMultiVault.VaultFees",
          "components": [
            {
              "name": "entryFee",
              "type": "uint256",
              "internalType": "uint256"
            },
            {
              "name": "exitFee",
              "type": "uint256",
              "internalType": "uint256"
            },
            {
              "name": "protocolFee",
              "type": "uint256",
              "internalType": "uint256"
            }
          ]
        },
        {
          "name": "_bondingCurveConfig",
          "type": "tuple",
          "internalType": "struct IEthMultiVault.BondingCurveConfig",
          "components": [
            {
              "name": "registry",
              "type": "address",
              "internalType": "address"
            },
            {
              "name": "defaultCurveId",
              "type": "uint256",
              "internalType": "uint256"
            }
          ]
        }
      ],
      "outputs": [],
      "stateMutability": "nonpayable"
    },
    {
      "type": "function",
      "name": "isTriple",
      "inputs": [
        {
          "name": "vaultId",
          "type": "uint256",
          "internalType": "uint256"
        }
      ],
      "outputs": [
        {
          "name": "isTriple",
          "type": "bool",
          "internalType": "bool"
        }
      ],
      "stateMutability": "view"
    },
    {
      "type": "function",
      "name": "isTripleId",
      "inputs": [
        {
          "name": "id",
          "type": "uint256",
          "internalType": "uint256"
        }
      ],
      "outputs": [
        {
          "name": "",
          "type": "bool",
          "internalType": "bool"
        }
      ],
      "stateMutability": "view"
    },
    {
      "type": "function",
      "name": "maxDeposit",
      "inputs": [],
      "outputs": [
        {
          "name": "",
          "type": "uint256",
          "internalType": "uint256"
        }
      ],
      "stateMutability": "pure"
    },
    {
      "type": "function",
      "name": "maxDepositCurve",
      "inputs": [
        {
          "name": "curveId",
          "type": "uint256",
          "internalType": "uint256"
        }
      ],
      "outputs": [
        {
          "name": "",
          "type": "uint256",
          "internalType": "uint256"
        }
      ],
      "stateMutability": "view"
    },
    {
      "type": "function",
      "name": "maxRedeem",
      "inputs": [
        {
          "name": "sender",
          "type": "address",
          "internalType": "address"
        },
        {
          "name": "id",
          "type": "uint256",
          "internalType": "uint256"
        }
      ],
      "outputs": [
        {
          "name": "",
          "type": "uint256",
          "internalType": "uint256"
        }
      ],
      "stateMutability": "view"
    },
    {
      "type": "function",
      "name": "maxRedeemCurve",
      "inputs": [
        {
          "name": "sender",
          "type": "address",
          "internalType": "address"
        },
        {
          "name": "id",
          "type": "uint256",
          "internalType": "uint256"
        },
        {
          "name": "curveId",
          "type": "uint256",
          "internalType": "uint256"
        }
      ],
      "outputs": [
        {
          "name": "",
          "type": "uint256",
          "internalType": "uint256"
        }
      ],
      "stateMutability": "view"
    },
    {
      "type": "function",
      "name": "pause",
      "inputs": [],
      "outputs": [],
      "stateMutability": "nonpayable"
    },
    {
      "type": "function",
      "name": "paused",
      "inputs": [],
      "outputs": [
        {
          "name": "",
          "type": "bool",
          "internalType": "bool"
        }
      ],
      "stateMutability": "view"
    },
    {
      "type": "function",
      "name": "previewDeposit",
      "inputs": [
        {
          "name": "assets",
          "type": "uint256",
          "internalType": "uint256"
        },
        {
          "name": "id",
          "type": "uint256",
          "internalType": "uint256"
        }
      ],
      "outputs": [
        {
          "name": "",
          "type": "uint256",
          "internalType": "uint256"
        }
      ],
      "stateMutability": "view"
    },
    {
      "type": "function",
      "name": "previewDepositCurve",
      "inputs": [
        {
          "name": "assets",
          "type": "uint256",
          "internalType": "uint256"
        },
        {
          "name": "id",
          "type": "uint256",
          "internalType": "uint256"
        },
        {
          "name": "curveId",
          "type": "uint256",
          "internalType": "uint256"
        }
      ],
      "outputs": [
        {
          "name": "",
          "type": "uint256",
          "internalType": "uint256"
        }
      ],
      "stateMutability": "view"
    },
    {
      "type": "function",
      "name": "previewRedeem",
      "inputs": [
        {
          "name": "shares",
          "type": "uint256",
          "internalType": "uint256"
        },
        {
          "name": "id",
          "type": "uint256",
          "internalType": "uint256"
        }
      ],
      "outputs": [
        {
          "name": "",
          "type": "uint256",
          "internalType": "uint256"
        }
      ],
      "stateMutability": "view"
    },
    {
      "type": "function",
      "name": "previewRedeemCurve",
      "inputs": [
        {
          "name": "shares",
          "type": "uint256",
          "internalType": "uint256"
        },
        {
          "name": "id",
          "type": "uint256",
          "internalType": "uint256"
        },
        {
          "name": "curveId",
          "type": "uint256",
          "internalType": "uint256"
        }
      ],
      "outputs": [
        {
          "name": "",
          "type": "uint256",
          "internalType": "uint256"
        }
      ],
      "stateMutability": "view"
    },
    {
      "type": "function",
      "name": "protocolFeeAmount",
      "inputs": [
        {
          "name": "assets",
          "type": "uint256",
          "internalType": "uint256"
        },
        {
          "name": "id",
          "type": "uint256",
          "internalType": "uint256"
        }
      ],
      "outputs": [
        {
          "name": "",
          "type": "uint256",
          "internalType": "uint256"
        }
      ],
      "stateMutability": "view"
    },
    {
      "type": "function",
      "name": "redeemAtom",
      "inputs": [
        {
          "name": "shares",
          "type": "uint256",
          "internalType": "uint256"
        },
        {
          "name": "receiver",
          "type": "address",
          "internalType": "address"
        },
        {
          "name": "id",
          "type": "uint256",
          "internalType": "uint256"
        }
      ],
      "outputs": [
        {
          "name": "",
          "type": "uint256",
          "internalType": "uint256"
        }
      ],
      "stateMutability": "nonpayable"
    },
    {
      "type": "function",
      "name": "redeemAtomCurve",
      "inputs": [
        {
          "name": "shares",
          "type": "uint256",
          "internalType": "uint256"
        },
        {
          "name": "receiver",
          "type": "address",
          "internalType": "address"
        },
        {
          "name": "atomId",
          "type": "uint256",
          "internalType": "uint256"
        },
        {
          "name": "curveId",
          "type": "uint256",
          "internalType": "uint256"
        }
      ],
      "outputs": [
        {
          "name": "",
          "type": "uint256",
          "internalType": "uint256"
        }
      ],
      "stateMutability": "nonpayable"
    },
    {
      "type": "function",
      "name": "redeemTriple",
      "inputs": [
        {
          "name": "shares",
          "type": "uint256",
          "internalType": "uint256"
        },
        {
          "name": "receiver",
          "type": "address",
          "internalType": "address"
        },
        {
          "name": "id",
          "type": "uint256",
          "internalType": "uint256"
        }
      ],
      "outputs": [
        {
          "name": "",
          "type": "uint256",
          "internalType": "uint256"
        }
      ],
      "stateMutability": "nonpayable"
    },
    {
      "type": "function",
      "name": "redeemTripleCurve",
      "inputs": [
        {
          "name": "shares",
          "type": "uint256",
          "internalType": "uint256"
        },
        {
          "name": "receiver",
          "type": "address",
          "internalType": "address"
        },
        {
          "name": "tripleId",
          "type": "uint256",
          "internalType": "uint256"
        },
        {
          "name": "curveId",
          "type": "uint256",
          "internalType": "uint256"
        }
      ],
      "outputs": [
        {
          "name": "",
          "type": "uint256",
          "internalType": "uint256"
        }
      ],
      "stateMutability": "nonpayable"
    },
    {
      "type": "function",
      "name": "revokeSender",
      "inputs": [
        {
          "name": "sender",
          "type": "address",
          "internalType": "address"
        }
      ],
      "outputs": [],
      "stateMutability": "nonpayable"
    },
    {
      "type": "function",
      "name": "scheduleOperation",
      "inputs": [
        {
          "name": "operationId",
          "type": "bytes32",
          "internalType": "bytes32"
        },
        {
          "name": "data",
          "type": "bytes",
          "internalType": "bytes"
        }
      ],
      "outputs": [],
      "stateMutability": "nonpayable"
    },
    {
      "type": "function",
      "name": "setAdmin",
      "inputs": [
        {
          "name": "admin",
          "type": "address",
          "internalType": "address"
        }
      ],
      "outputs": [],
      "stateMutability": "nonpayable"
    },
    {
      "type": "function",
      "name": "setAtomCreationProtocolFee",
      "inputs": [
        {
          "name": "atomCreationProtocolFee",
          "type": "uint256",
          "internalType": "uint256"
        }
      ],
      "outputs": [],
      "stateMutability": "nonpayable"
    },
    {
      "type": "function",
      "name": "setAtomUriMaxLength",
      "inputs": [
        {
          "name": "atomUriMaxLength",
          "type": "uint256",
          "internalType": "uint256"
        }
      ],
      "outputs": [],
      "stateMutability": "nonpayable"
    },
    {
      "type": "function",
      "name": "setAtomWalletInitialDepositAmount",
      "inputs": [
        {
          "name": "atomWalletInitialDepositAmount",
          "type": "uint256",
          "internalType": "uint256"
        }
      ],
      "outputs": [],
      "stateMutability": "nonpayable"
    },
    {
      "type": "function",
      "name": "setAtomWarden",
      "inputs": [
        {
          "name": "atomWarden",
          "type": "address",
          "internalType": "address"
        }
      ],
      "outputs": [],
      "stateMutability": "nonpayable"
    },
    {
      "type": "function",
      "name": "setEntryFee",
      "inputs": [
        {
          "name": "id",
          "type": "uint256",
          "internalType": "uint256"
        },
        {
          "name": "entryFee",
          "type": "uint256",
          "internalType": "uint256"
        }
      ],
      "outputs": [],
      "stateMutability": "nonpayable"
    },
    {
      "type": "function",
      "name": "setExitFee",
      "inputs": [
        {
          "name": "id",
          "type": "uint256",
          "internalType": "uint256"
        },
        {
          "name": "exitFee",
          "type": "uint256",
          "internalType": "uint256"
        }
      ],
      "outputs": [],
      "stateMutability": "nonpayable"
    },
    {
      "type": "function",
      "name": "setMinDeposit",
      "inputs": [
        {
          "name": "minDeposit",
          "type": "uint256",
          "internalType": "uint256"
        }
      ],
      "outputs": [],
      "stateMutability": "nonpayable"
    },
    {
      "type": "function",
      "name": "setMinShare",
      "inputs": [
        {
          "name": "minShare",
          "type": "uint256",
          "internalType": "uint256"
        }
      ],
      "outputs": [],
      "stateMutability": "nonpayable"
    },
    {
      "type": "function",
      "name": "setProtocolFee",
      "inputs": [
        {
          "name": "id",
          "type": "uint256",
          "internalType": "uint256"
        },
        {
          "name": "protocolFee",
          "type": "uint256",
          "internalType": "uint256"
        }
      ],
      "outputs": [],
      "stateMutability": "nonpayable"
    },
    {
      "type": "function",
      "name": "setProtocolMultisig",
      "inputs": [
        {
          "name": "protocolMultisig",
          "type": "address",
          "internalType": "address"
        }
      ],
      "outputs": [],
      "stateMutability": "nonpayable"
    },
    {
      "type": "function",
      "name": "setTotalAtomDepositsForTriple",
      "inputs": [
        {
          "name": "totalAtomDepositsForTriple",
          "type": "uint256",
          "internalType": "uint256"
        }
      ],
      "outputs": [],
      "stateMutability": "nonpayable"
    },
    {
      "type": "function",
      "name": "setTotalAtomDepositsOnTripleCreation",
      "inputs": [
        {
          "name": "totalAtomDepositsOnTripleCreation",
          "type": "uint256",
          "internalType": "uint256"
        }
      ],
      "outputs": [],
      "stateMutability": "nonpayable"
    },
    {
      "type": "function",
      "name": "setTripleCreationProtocolFee",
      "inputs": [
        {
          "name": "tripleCreationProtocolFee",
          "type": "uint256",
          "internalType": "uint256"
        }
      ],
      "outputs": [],
      "stateMutability": "nonpayable"
    },
    {
      "type": "function",
      "name": "timelocks",
      "inputs": [
        {
          "name": "operationHash",
          "type": "bytes32",
          "internalType": "bytes32"
        }
      ],
      "outputs": [
        {
          "name": "data",
          "type": "bytes",
          "internalType": "bytes"
        },
        {
          "name": "readyTime",
          "type": "uint256",
          "internalType": "uint256"
        },
        {
          "name": "executed",
          "type": "bool",
          "internalType": "bool"
        }
      ],
      "stateMutability": "view"
    },
    {
      "type": "function",
      "name": "tripleConfig",
      "inputs": [],
      "outputs": [
        {
          "name": "tripleCreationProtocolFee",
          "type": "uint256",
          "internalType": "uint256"
        },
        {
          "name": "totalAtomDepositsOnTripleCreation",
          "type": "uint256",
          "internalType": "uint256"
        },
        {
          "name": "totalAtomDepositsForTriple",
          "type": "uint256",
          "internalType": "uint256"
        }
      ],
      "stateMutability": "view"
    },
    {
      "type": "function",
      "name": "tripleHash",
      "inputs": [
        {
          "name": "id",
          "type": "uint256",
          "internalType": "uint256"
        }
      ],
      "outputs": [
        {
          "name": "",
          "type": "bytes32",
          "internalType": "bytes32"
        }
      ],
      "stateMutability": "view"
    },
    {
      "type": "function",
      "name": "tripleHashFromAtoms",
      "inputs": [
        {
          "name": "subjectId",
          "type": "uint256",
          "internalType": "uint256"
        },
        {
          "name": "predicateId",
          "type": "uint256",
          "internalType": "uint256"
        },
        {
          "name": "objectId",
          "type": "uint256",
          "internalType": "uint256"
        }
      ],
      "outputs": [
        {
          "name": "",
          "type": "bytes32",
          "internalType": "bytes32"
        }
      ],
      "stateMutability": "pure"
    },
    {
      "type": "function",
      "name": "triples",
      "inputs": [
        {
          "name": "tripleId",
          "type": "uint256",
          "internalType": "uint256"
        },
        {
          "name": "",
          "type": "uint256",
          "internalType": "uint256"
        }
      ],
      "outputs": [
        {
          "name": "tripleAtomIds",
          "type": "uint256",
          "internalType": "uint256"
        }
      ],
      "stateMutability": "view"
    },
    {
      "type": "function",
      "name": "triplesByHash",
      "inputs": [
        {
          "name": "tripleHash",
          "type": "bytes32",
          "internalType": "bytes32"
        }
      ],
      "outputs": [
        {
          "name": "tripleId",
          "type": "uint256",
          "internalType": "uint256"
        }
      ],
      "stateMutability": "view"
    },
    {
      "type": "function",
      "name": "unpause",
      "inputs": [],
      "outputs": [],
      "stateMutability": "nonpayable"
    },
    {
      "type": "function",
      "name": "vaultFees",
      "inputs": [
        {
          "name": "vaultId",
          "type": "uint256",
          "internalType": "uint256"
        }
      ],
      "outputs": [
        {
          "name": "entryFee",
          "type": "uint256",
          "internalType": "uint256"
        },
        {
          "name": "exitFee",
          "type": "uint256",
          "internalType": "uint256"
        },
        {
          "name": "protocolFee",
          "type": "uint256",
          "internalType": "uint256"
        }
      ],
      "stateMutability": "view"
    },
    {
      "type": "function",
      "name": "vaults",
      "inputs": [
        {
          "name": "vaultId",
          "type": "uint256",
          "internalType": "uint256"
        }
      ],
      "outputs": [
        {
          "name": "totalAssets",
          "type": "uint256",
          "internalType": "uint256"
        },
        {
          "name": "totalShares",
          "type": "uint256",
          "internalType": "uint256"
        }
      ],
      "stateMutability": "view"
    },
    {
      "type": "function",
      "name": "walletConfig",
      "inputs": [],
      "outputs": [
        {
          "name": "permit2",
          "type": "address",
          "internalType": "contract IPermit2"
        },
        {
          "name": "entryPoint",
          "type": "address",
          "internalType": "address"
        },
        {
          "name": "atomWarden",
          "type": "address",
          "internalType": "address"
        },
        {
          "name": "atomWalletBeacon",
          "type": "address",
          "internalType": "address"
        }
      ],
      "stateMutability": "view"
    },
    {
      "type": "event",
      "name": "AdminSet",
      "inputs": [
        {
          "name": "newAdmin",
          "type": "address",
          "indexed": true,
          "internalType": "address"
        },
        {
          "name": "oldAdmin",
          "type": "address",
          "indexed": true,
          "internalType": "address"
        }
      ],
      "anonymous": false
    },
    {
      "type": "event",
      "name": "AtomCreated",
      "inputs": [
        {
          "name": "creator",
          "type": "address",
          "indexed": true,
          "internalType": "address"
        },
        {
          "name": "atomWallet",
          "type": "address",
          "indexed": true,
          "internalType": "address"
        },
        {
          "name": "atomData",
          "type": "bytes",
          "indexed": false,
          "internalType": "bytes"
        },
        {
          "name": "vaultId",
          "type": "uint256",
          "indexed": false,
          "internalType": "uint256"
        }
      ],
      "anonymous": false
    },
    {
      "type": "event",
      "name": "AtomCreationProtocolFeeSet",
      "inputs": [
        {
          "name": "newAtomCreationProtocolFee",
          "type": "uint256",
          "indexed": false,
          "internalType": "uint256"
        },
        {
          "name": "oldAtomCreationProtocolFee",
          "type": "uint256",
          "indexed": false,
          "internalType": "uint256"
        }
      ],
      "anonymous": false
    },
    {
      "type": "event",
      "name": "AtomUriMaxLengthSet",
      "inputs": [
        {
          "name": "newAtomUriMaxLength",
          "type": "uint256",
          "indexed": false,
          "internalType": "uint256"
        },
        {
          "name": "oldAtomUriMaxLength",
          "type": "uint256",
          "indexed": false,
          "internalType": "uint256"
        }
      ],
      "anonymous": false
    },
    {
      "type": "event",
      "name": "AtomWalletDeployed",
      "inputs": [
        {
          "name": "vaultId",
          "type": "uint256",
          "indexed": true,
          "internalType": "uint256"
        },
        {
          "name": "atomWallet",
          "type": "address",
          "indexed": true,
          "internalType": "address"
        }
      ],
      "anonymous": false
    },
    {
      "type": "event",
      "name": "AtomWalletInitialDepositAmountSet",
      "inputs": [
        {
          "name": "newAtomWalletInitialDepositAmount",
          "type": "uint256",
          "indexed": false,
          "internalType": "uint256"
        },
        {
          "name": "oldAtomWalletInitialDepositAmount",
          "type": "uint256",
          "indexed": false,
          "internalType": "uint256"
        }
      ],
      "anonymous": false
    },
    {
      "type": "event",
      "name": "AtomWardenSet",
      "inputs": [
        {
          "name": "newAtomWarden",
          "type": "address",
          "indexed": true,
          "internalType": "address"
        },
        {
          "name": "oldAtomWarden",
          "type": "address",
          "indexed": true,
          "internalType": "address"
        }
      ],
      "anonymous": false
    },
    {
      "type": "event",
      "name": "Deposited",
      "inputs": [
        {
          "name": "sender",
          "type": "address",
          "indexed": true,
          "internalType": "address"
        },
        {
          "name": "receiver",
          "type": "address",
          "indexed": true,
          "internalType": "address"
        },
        {
          "name": "receiverTotalSharesInVault",
          "type": "uint256",
          "indexed": false,
          "internalType": "uint256"
        },
        {
          "name": "senderAssetsAfterTotalFees",
          "type": "uint256",
          "indexed": false,
          "internalType": "uint256"
        },
        {
          "name": "sharesForReceiver",
          "type": "uint256",
          "indexed": false,
          "internalType": "uint256"
        },
        {
          "name": "entryFee",
          "type": "uint256",
          "indexed": false,
          "internalType": "uint256"
        },
        {
          "name": "vaultId",
          "type": "uint256",
          "indexed": false,
          "internalType": "uint256"
        },
        {
          "name": "isTriple",
          "type": "bool",
          "indexed": false,
          "internalType": "bool"
        },
        {
          "name": "isAtomWallet",
          "type": "bool",
          "indexed": false,
          "internalType": "bool"
        }
      ],
      "anonymous": false
    },
    {
      "type": "event",
      "name": "DepositedCurve",
      "inputs": [
        {
          "name": "sender",
          "type": "address",
          "indexed": true,
          "internalType": "address"
        },
        {
          "name": "receiver",
          "type": "address",
          "indexed": true,
          "internalType": "address"
        },
        {
          "name": "receiverTotalSharesInVault",
          "type": "uint256",
          "indexed": false,
          "internalType": "uint256"
        },
        {
          "name": "senderAssetsAfterTotalFees",
          "type": "uint256",
          "indexed": false,
          "internalType": "uint256"
        },
        {
          "name": "sharesForReceiver",
          "type": "uint256",
          "indexed": false,
          "internalType": "uint256"
        },
        {
          "name": "entryFee",
          "type": "uint256",
          "indexed": false,
          "internalType": "uint256"
        },
        {
          "name": "vaultId",
          "type": "uint256",
          "indexed": false,
          "internalType": "uint256"
        },
        {
          "name": "curveId",
          "type": "uint256",
          "indexed": false,
          "internalType": "uint256"
        },
        {
          "name": "isTriple",
          "type": "bool",
          "indexed": false,
          "internalType": "bool"
        },
        {
          "name": "isAtomWallet",
          "type": "bool",
          "indexed": false,
          "internalType": "bool"
        }
      ],
      "anonymous": false
    },
    {
      "type": "event",
      "name": "EntryFeeSet",
      "inputs": [
        {
          "name": "id",
          "type": "uint256",
          "indexed": false,
          "internalType": "uint256"
        },
        {
          "name": "newEntryFee",
          "type": "uint256",
          "indexed": false,
          "internalType": "uint256"
        },
        {
          "name": "oldEntryFee",
          "type": "uint256",
          "indexed": false,
          "internalType": "uint256"
        }
      ],
      "anonymous": false
    },
    {
      "type": "event",
      "name": "ExitFeeSet",
      "inputs": [
        {
          "name": "id",
          "type": "uint256",
          "indexed": false,
          "internalType": "uint256"
        },
        {
          "name": "newExitFee",
          "type": "uint256",
          "indexed": false,
          "internalType": "uint256"
        },
        {
          "name": "oldExitFee",
          "type": "uint256",
          "indexed": false,
          "internalType": "uint256"
        }
      ],
      "anonymous": false
    },
    {
      "type": "event",
      "name": "FeesTransferred",
      "inputs": [
        {
          "name": "sender",
          "type": "address",
          "indexed": true,
          "internalType": "address"
        },
        {
          "name": "protocolMultisig",
          "type": "address",
          "indexed": true,
          "internalType": "address"
        },
        {
          "name": "amount",
          "type": "uint256",
          "indexed": false,
          "internalType": "uint256"
        }
      ],
      "anonymous": false
    },
    {
      "type": "event",
      "name": "Initialized",
      "inputs": [
        {
          "name": "version",
          "type": "uint64",
          "indexed": false,
          "internalType": "uint64"
        }
      ],
      "anonymous": false
    },
    {
      "type": "event",
      "name": "MinDepositSet",
      "inputs": [
        {
          "name": "newMinDeposit",
          "type": "uint256",
          "indexed": false,
          "internalType": "uint256"
        },
        {
          "name": "oldMinDeposit",
          "type": "uint256",
          "indexed": false,
          "internalType": "uint256"
        }
      ],
      "anonymous": false
    },
    {
      "type": "event",
      "name": "MinShareSet",
      "inputs": [
        {
          "name": "newMinShare",
          "type": "uint256",
          "indexed": false,
          "internalType": "uint256"
        },
        {
          "name": "oldMinShare",
          "type": "uint256",
          "indexed": false,
          "internalType": "uint256"
        }
      ],
      "anonymous": false
    },
    {
      "type": "event",
      "name": "OperationCancelled",
      "inputs": [
        {
          "name": "operationId",
          "type": "bytes32",
          "indexed": true,
          "internalType": "bytes32"
        },
        {
          "name": "data",
          "type": "bytes",
          "indexed": false,
          "internalType": "bytes"
        }
      ],
      "anonymous": false
    },
    {
      "type": "event",
      "name": "OperationExecuted",
      "inputs": [
        {
          "name": "operationId",
          "type": "bytes32",
          "indexed": true,
          "internalType": "bytes32"
        },
        {
          "name": "data",
          "type": "bytes",
          "indexed": false,
          "internalType": "bytes"
        }
      ],
      "anonymous": false
    },
    {
      "type": "event",
      "name": "OperationScheduled",
      "inputs": [
        {
          "name": "operationId",
          "type": "bytes32",
          "indexed": true,
          "internalType": "bytes32"
        },
        {
          "name": "data",
          "type": "bytes",
          "indexed": false,
          "internalType": "bytes"
        },
        {
          "name": "readyTime",
          "type": "uint256",
          "indexed": false,
          "internalType": "uint256"
        }
      ],
      "anonymous": false
    },
    {
      "type": "event",
      "name": "Paused",
      "inputs": [
        {
          "name": "account",
          "type": "address",
          "indexed": false,
          "internalType": "address"
        }
      ],
      "anonymous": false
    },
    {
      "type": "event",
      "name": "ProtocolFeeSet",
      "inputs": [
        {
          "name": "id",
          "type": "uint256",
          "indexed": false,
          "internalType": "uint256"
        },
        {
          "name": "newProtocolFee",
          "type": "uint256",
          "indexed": false,
          "internalType": "uint256"
        },
        {
          "name": "oldProtocolFee",
          "type": "uint256",
          "indexed": false,
          "internalType": "uint256"
        }
      ],
      "anonymous": false
    },
    {
      "type": "event",
      "name": "Redeemed",
      "inputs": [
        {
          "name": "sender",
          "type": "address",
          "indexed": true,
          "internalType": "address"
        },
        {
          "name": "receiver",
          "type": "address",
          "indexed": true,
          "internalType": "address"
        },
        {
          "name": "senderTotalSharesInVault",
          "type": "uint256",
          "indexed": false,
          "internalType": "uint256"
        },
        {
          "name": "assetsForReceiver",
          "type": "uint256",
          "indexed": false,
          "internalType": "uint256"
        },
        {
          "name": "sharesRedeemedBySender",
          "type": "uint256",
          "indexed": false,
          "internalType": "uint256"
        },
        {
          "name": "exitFee",
          "type": "uint256",
          "indexed": false,
          "internalType": "uint256"
        },
        {
          "name": "vaultId",
          "type": "uint256",
          "indexed": false,
          "internalType": "uint256"
        }
      ],
      "anonymous": false
    },
    {
      "type": "event",
      "name": "RedeemedCurve",
      "inputs": [
        {
          "name": "sender",
          "type": "address",
          "indexed": true,
          "internalType": "address"
        },
        {
          "name": "receiver",
          "type": "address",
          "indexed": true,
          "internalType": "address"
        },
        {
          "name": "senderTotalSharesInVault",
          "type": "uint256",
          "indexed": false,
          "internalType": "uint256"
        },
        {
          "name": "assetsForReceiver",
          "type": "uint256",
          "indexed": false,
          "internalType": "uint256"
        },
        {
          "name": "sharesRedeemedBySender",
          "type": "uint256",
          "indexed": false,
          "internalType": "uint256"
        },
        {
          "name": "exitFee",
          "type": "uint256",
          "indexed": false,
          "internalType": "uint256"
        },
        {
          "name": "vaultId",
          "type": "uint256",
          "indexed": false,
          "internalType": "uint256"
        },
        {
          "name": "curveId",
          "type": "uint256",
          "indexed": false,
          "internalType": "uint256"
        }
      ],
      "anonymous": false
    },
    {
      "type": "event",
      "name": "SenderApproved",
      "inputs": [
        {
          "name": "sender",
          "type": "address",
          "indexed": true,
          "internalType": "address"
        },
        {
          "name": "receiver",
          "type": "address",
          "indexed": true,
          "internalType": "address"
        },
        {
          "name": "approved",
          "type": "bool",
          "indexed": false,
          "internalType": "bool"
        }
      ],
      "anonymous": false
    },
    {
      "type": "event",
      "name": "SenderRevoked",
      "inputs": [
        {
          "name": "sender",
          "type": "address",
          "indexed": true,
          "internalType": "address"
        },
        {
          "name": "receiver",
          "type": "address",
          "indexed": true,
          "internalType": "address"
        },
        {
          "name": "approved",
          "type": "bool",
          "indexed": false,
          "internalType": "bool"
        }
      ],
      "anonymous": false
    },
    {
      "type": "event",
      "name": "SharePriceChanged",
      "inputs": [
        {
          "name": "vaultId",
          "type": "uint256",
          "indexed": true,
          "internalType": "uint256"
        },
        {
          "name": "newSharePrice",
          "type": "uint256",
          "indexed": false,
          "internalType": "uint256"
        },
        {
          "name": "oldSharePrice",
          "type": "uint256",
          "indexed": false,
          "internalType": "uint256"
        }
      ],
      "anonymous": false
    },
    {
      "type": "event",
      "name": "SharePriceChangedCurve",
      "inputs": [
        {
          "name": "vaultId",
          "type": "uint256",
          "indexed": true,
          "internalType": "uint256"
        },
        {
          "name": "curveId",
          "type": "uint256",
          "indexed": true,
          "internalType": "uint256"
        },
        {
          "name": "newSharePrice",
          "type": "uint256",
          "indexed": false,
          "internalType": "uint256"
        },
        {
          "name": "oldSharePrice",
          "type": "uint256",
          "indexed": false,
          "internalType": "uint256"
        }
      ],
      "anonymous": false
    },
    {
      "type": "event",
      "name": "TotalAtomDepositsForTripleSet",
      "inputs": [
        {
          "name": "newTotalAtomDepositsForTriple",
          "type": "uint256",
          "indexed": false,
          "internalType": "uint256"
        },
        {
          "name": "oldTotalAtomDepositsForTriple",
          "type": "uint256",
          "indexed": false,
          "internalType": "uint256"
        }
      ],
      "anonymous": false
    },
    {
      "type": "event",
      "name": "TotalAtomDepositsOnTripleCreationSet",
      "inputs": [
        {
          "name": "newTotalAtomDepositsOnTripleCreation",
          "type": "uint256",
          "indexed": false,
          "internalType": "uint256"
        },
        {
          "name": "oldTotalAtomDepositsOnTripleCreation",
          "type": "uint256",
          "indexed": false,
          "internalType": "uint256"
        }
      ],
      "anonymous": false
    },
    {
      "type": "event",
      "name": "TripleCreated",
      "inputs": [
        {
          "name": "creator",
          "type": "address",
          "indexed": true,
          "internalType": "address"
        },
        {
          "name": "subjectId",
          "type": "uint256",
          "indexed": false,
          "internalType": "uint256"
        },
        {
          "name": "predicateId",
          "type": "uint256",
          "indexed": false,
          "internalType": "uint256"
        },
        {
          "name": "objectId",
          "type": "uint256",
          "indexed": false,
          "internalType": "uint256"
        },
        {
          "name": "vaultId",
          "type": "uint256",
          "indexed": false,
          "internalType": "uint256"
        }
      ],
      "anonymous": false
    },
    {
      "type": "event",
      "name": "TripleCreationProtocolFeeSet",
      "inputs": [
        {
          "name": "newTripleCreationProtocolFee",
          "type": "uint256",
          "indexed": false,
          "internalType": "uint256"
        },
        {
          "name": "oldTripleCreationProtocolFee",
          "type": "uint256",
          "indexed": false,
          "internalType": "uint256"
        }
      ],
      "anonymous": false
    },
    {
      "type": "event",
      "name": "Unpaused",
      "inputs": [
        {
          "name": "account",
          "type": "address",
          "indexed": false,
          "internalType": "address"
        }
      ],
      "anonymous": false
    },
    {
      "type": "event",
      "name": "protocolMultisigSet",
      "inputs": [
        {
          "name": "newProtocolMultisig",
          "type": "address",
          "indexed": true,
          "internalType": "address"
        },
        {
          "name": "oldProtocolMultisig",
          "type": "address",
          "indexed": true,
          "internalType": "address"
        }
      ],
      "anonymous": false
    },
    {
      "type": "error",
      "name": "EnforcedPause",
      "inputs": []
    },
    {
      "type": "error",
      "name": "EthMultiVault_AdminOnly",
      "inputs": []
    },
    {
      "type": "error",
      "name": "EthMultiVault_ArraysNotSameLength",
      "inputs": []
    },
    {
      "type": "error",
      "name": "EthMultiVault_AtomDoesNotExist",
      "inputs": [
        {
          "name": "atomId",
          "type": "uint256",
          "internalType": "uint256"
        }
      ]
    },
    {
      "type": "error",
      "name": "EthMultiVault_AtomExists",
      "inputs": [
        {
          "name": "atomUri",
          "type": "bytes",
          "internalType": "bytes"
        },
        {
          "name": "atomId",
          "type": "uint256",
          "internalType": "uint256"
        }
      ]
    },
    {
      "type": "error",
      "name": "EthMultiVault_AtomUriTooLong",
      "inputs": []
    },
    {
      "type": "error",
      "name": "EthMultiVault_BurnFromZeroAddress",
      "inputs": []
    },
    {
      "type": "error",
      "name": "EthMultiVault_BurnInsufficientBalance",
      "inputs": []
    },
    {
      "type": "error",
      "name": "EthMultiVault_CannotApproveSelf",
      "inputs": []
    },
    {
      "type": "error",
      "name": "EthMultiVault_CannotRevokeSelf",
      "inputs": []
    },
    {
      "type": "error",
      "name": "EthMultiVault_DeployAccountFailed",
      "inputs": []
    },
    {
      "type": "error",
      "name": "EthMultiVault_DepositExceedsMaxAssets",
      "inputs": []
    },
    {
      "type": "error",
      "name": "EthMultiVault_DepositOrWithdrawZeroShares",
      "inputs": []
    },
    {
      "type": "error",
      "name": "EthMultiVault_HasCounterStake",
      "inputs": []
    },
    {
      "type": "error",
      "name": "EthMultiVault_InsufficientBalance",
      "inputs": []
    },
    {
      "type": "error",
      "name": "EthMultiVault_InsufficientDepositAmountToCoverFees",
      "inputs": []
    },
    {
      "type": "error",
      "name": "EthMultiVault_InsufficientRemainingSharesInVault",
      "inputs": [
        {
          "name": "remainingShares",
          "type": "uint256",
          "internalType": "uint256"
        }
      ]
    },
    {
      "type": "error",
      "name": "EthMultiVault_InsufficientSharesInVault",
      "inputs": []
    },
    {
      "type": "error",
      "name": "EthMultiVault_InvalidEntryFee",
      "inputs": []
    },
    {
      "type": "error",
      "name": "EthMultiVault_InvalidExitFee",
      "inputs": []
    },
    {
      "type": "error",
      "name": "EthMultiVault_InvalidProtocolFee",
      "inputs": []
    },
    {
      "type": "error",
      "name": "EthMultiVault_InvalidTotalAtomDepositsForTriple",
      "inputs": []
    },
    {
      "type": "error",
      "name": "EthMultiVault_MinimumDeposit",
      "inputs": []
    },
    {
      "type": "error",
      "name": "EthMultiVault_OperationAlreadyExecuted",
      "inputs": []
    },
    {
      "type": "error",
      "name": "EthMultiVault_OperationAlreadyScheduled",
      "inputs": []
    },
    {
      "type": "error",
      "name": "EthMultiVault_OperationNotScheduled",
      "inputs": []
    },
    {
      "type": "error",
      "name": "EthMultiVault_ReceiveNotAllowed",
      "inputs": []
    },
    {
      "type": "error",
      "name": "EthMultiVault_SenderAlreadyApproved",
      "inputs": []
    },
    {
      "type": "error",
      "name": "EthMultiVault_SenderNotApproved",
      "inputs": []
    },
    {
      "type": "error",
      "name": "EthMultiVault_TimelockNotExpired",
      "inputs": []
    },
    {
      "type": "error",
      "name": "EthMultiVault_TransferFailed",
      "inputs": []
    },
    {
      "type": "error",
      "name": "EthMultiVault_TripleExists",
      "inputs": [
        {
          "name": "subjectId",
          "type": "uint256",
          "internalType": "uint256"
        },
        {
          "name": "predicateId",
          "type": "uint256",
          "internalType": "uint256"
        },
        {
          "name": "objectId",
          "type": "uint256",
          "internalType": "uint256"
        }
      ]
    },
    {
      "type": "error",
      "name": "EthMultiVault_VaultDoesNotExist",
      "inputs": []
    },
    {
      "type": "error",
      "name": "EthMultiVault_VaultIsTriple",
      "inputs": [
        {
          "name": "vaultId",
          "type": "uint256",
          "internalType": "uint256"
        }
      ]
    },
    {
      "type": "error",
      "name": "EthMultiVault_VaultNotAtom",
      "inputs": []
    },
    {
      "type": "error",
      "name": "EthMultiVault_VaultNotTriple",
      "inputs": []
    },
    {
      "type": "error",
      "name": "ExpectedPause",
      "inputs": []
    },
    {
      "type": "error",
      "name": "InvalidInitialization",
      "inputs": []
    },
    {
      "type": "error",
      "name": "NotInitializing",
      "inputs": []
    },
    {
      "type": "error",
      "name": "ReentrancyGuardReentrantCall",
      "inputs": []
    }
  ],
  "bytecode": {
    "object": "0x6080806040523460aa575f51602061535e5f395f51905f525460ff8160401c16609b576002600160401b03196001600160401b038216016049575b6040516152af90816100af8239f35b6001600160401b0319166001600160401b039081175f51602061535e5f395f51905f525581527fc7f505b2f371ae2175ee4913f4499e1f2633a7b5936321eed1cdaeb6115181d290602090a15f80603a565b63f92ee8a960e01b5f5260045ffd5b5f80fdfe60806040526004361015610018575b3661484657613ae3565b5f3560e01c80621fc87d1461059657806304357c731461059157806304c89bc61461058c57806306661abd146105875780630ac819db146105825780630cde801b1461057d5780630d65c91c1461057857806311d39b6e1461057357806313aaab971461056e578063181e7b3b146105695780631d35900a146105645780631e19e2c81461055f578063220613791461055a578063240de27714610555578063266190af146105505780632a22fec51461054b5780632dd426441461054657806333332d3914610541578063340a28121461053c5780633800c5c41461053757806339a384491461053257806339c4f49c1461052d5780633bcef9a6146105285780633f4ba83a146105235780633fadf6771461051e578063401569c714610519578063441d1c2f146105145780634abe41371461050f5780634d592c6a1461050a5780635408eec91461050557806354d94dd91461050057806356d54d68146104fb57806359b125d2146104f65780635c975abb146104f15780636083e59a146104ec57806363ff7ec0146104e757806365f64685146104e257806366e34a33146104dd57806367ab7594146104d85780636cc18d40146104d3578063704b6c02146104ce5780637a7af70d146104c95780637b3d7bc3146104c45780637c373661146104bf5780637c66deae146104ba5780637f833f04146104b55780638456cb59146104b057806384e100db146104ab578063859aa971146104a657806389065256146104a15780638c64ea4a1461049c5780638daf7443146104975780638fcc9cfb14610492578063908555921461048d578063927a97a11461048857806398e404d1146104835780639f49b60e1461047e578063a169b46c14610479578063a32ce11e14610474578063a3bb4f6e1461046f578063a3bde6ac1461046a578063a4ddc78614610465578063ab20428214610460578063ae0a15421461045b578063af9d35a314610456578063b0559b4514610451578063b790e6721461044c578063bac67f7214610447578063bb7dd37914610442578063bbec4d061461043d578063c61703ac14610438578063c9ceddb814610433578063cf8cea241461042e578063cfc15f1514610429578063d34ddc0514610424578063d403f6171461041f578063db2088f41461041a578063dc38530914610415578063dc5adb8c14610410578063de3cca601461040b578063e3b764af14610406578063ee9dd98f14610401578063f017b290146103fc578063f10c9f9b146103f7578063f1ff7cc9146103f2578063f315a94e146103ed578063f7533669146103e85763f903ff720361000e57612acb565b612a34565b6129f6565b61293a565b612753565b61273f565b612721565b6126f7565b61262b565b612605565b6125f1565b6125d0565b6124f6565b6124aa565b612470565b612443565b6123e5565b612230565b61220f565b6121f0565b6121d7565b61219f565b612186565b61216d565b61214c565b612087565b61201f565b611fa7565b611f7b565b611f17565b611e68565b611ccf565b611c51565b611be9565b611baf565b611b46565b6119f8565b6119b5565b611963565b61185f565b611837565b6117bd565b611795565b611700565b6116ed565b6116cc565b6116ab565b61154f565b6114e6565b6114c4565b61149c565b611382565b6112b0565b611295565b611267565b61123d565b611150565b6110cb565b611036565b610ffc565b610fd1565b610ece565b610ead565b610e39565b610db2565b610d61565b610ce6565b610cab565b610c5d565b610bd1565b610bb7565b610b4e565b610ae5565b610a19565b610959565b61090e565b6108dd565b610899565b610878565b610851565b61076c565b610752565b610716565b6106e6565b6106c9565b6106a0565b610653565b6105cc565b6001600160a01b038116036105ac57565b5f80fd5b600435906105bd8261059b565b565b602435906105bd8261059b565b346105ac5760203660031901126105ac576004356105e98161059b565b5f546001600160a01b0316330361064457600f80546001600160a01b039283166001600160a01b03198216811790925591909116907fd53213027f194983ff58afd27103ade64ffc4699fedc89070e233b509c28bb695f80a3005b633e9e676560e01b5f5260045ffd5b346105ac5760403660031901126105ac576004355f908152601b602090815260408083206024358452825291829020805460019091015483519182529181019190915290819081015b0390f35b346105ac5760403660031901126105ac5760206106c1602435600435612b34565b604051908152f35b346105ac575f3660031901126105ac576020601154604051908152f35b346105ac5760203660031901126105ac576020610704600435612b86565b6040516001600160a01b039091168152f35b346105ac5760203660031901126105ac5761069c610735600435612c1e565b604080519384526020840192909252908201529081906060820190565b346105ac575f3660031901126105ac5760206106c1612cb8565b346105ac5760203660031901126105ac576004356107898161059b565b6001600160a01b0381169033821461084257335f52601460205260ff6107c28260405f209060018060a01b03165f5260205260405f2090565b5416610833576107f06107fd91335f52601460205260405f209060018060a01b03165f5260205260405f2090565b805460ff19166001179055565b6040516001815233907fef9acadd6be4f4062b83d9b078d2bea3d5885779b1708d88cb5ead30f6f418769080602081015b0390a3005b631efdc08160e21b5f5260045ffd5b635a8b601b60e11b5f5260045ffd5b346105ac5760203660031901126105ac5760206106c1610872600435612c1e565b916132f1565b346105ac5760403660031901126105ac5760206106c1602435600435612ce9565b346105ac5760403660031901126105ac5761069c6108bb602435600435612d2c565b6040805194855260208501939093529183015260608201529081906080820190565b346105ac575f3660031901126105ac57600a54600b54600c5460408051938452602084019290925290820152606090f35b346105ac5760203660031901126105ac576004355f52601360205260405f20805461069c60026001840154930154604051938493846040919493926060820195825260208201520152565b346105ac5760403660031901126105ac576004356024355f546001600160a01b0316330361064457600a6002540481116109e3575f828152601360209081526040918290206002018054908490558251948552908401929092528201527f794fc7d26a1f9927841d938c882bd4d61bd9944b8d4cd935941a0a4fadae83eb9080606081015b0390a1005b6389f727a160e01b5f5260045ffd5b60809060031901126105ac5760043590602435610a0e8161059b565b906044359060643590565b346105ac57610a27366109f2565b92610a30613be1565b81158015610ada575b610acb57610a46826131c4565b610abc575f610a5d81959285839584953391613c19565b95909485906001600160a01b03165af1610a75612de5565b5015610aad57610a8761069c92613d78565b610a9d60015f51602061523a5f395f51905f5255565b6040519081529081906020820190565b635657c7b560e11b5f5260045ffd5b63f3ece25560e01b5f5260045ffd5b631290a58d60e01b5f5260045ffd5b506011548211610a39565b346105ac5760203660031901126105ac575f54600435906001600160a01b031633036106445760048054908290556040805192835260208301919091527f013f7aeadba325fef3561a999345eb28dcd20c5e0c314c0cc1f607617a402b679190819081016109de565b346105ac5760203660031901126105ac575f54600435906001600160a01b031633036106445760088054908290556040805192835260208301919091527f0c2973e4045249aea680af8835125f58d851717c989d9eaab6a107b200e914449190819081016109de565b346105ac575f3660031901126105ac5760206106c1612e14565b346105ac5760203660031901126105ac575f54600435906001600160a01b031633036106445760058054908290556040805192835260208301919091527fa803c1d3f9aae4868e6abb872bad038fef55901b341ccbffb2d81c6735f6aa469190819081016109de565b60609060031901126105ac5760043590602435610c568161059b565b9060443590565b346105ac57610c6b36610c3a565b91610c74613be1565b82158015610ca0575b610acb57610c8a836131c4565b610abc575f80610a5d8195938583953390613dde565b506011548311610c7d565b346105ac5760403660031901126105ac5760206106c1602435600435612e32565b60609060031901126105ac57600435906024359060443590565b610cef36610ccc565b610cfa929192613be1565b610d02613f2e565b610d0a612cb8565b3410610d5257610d1b923492613f79565b90600a54918201809211610d4d57610d34602092613d78565b60015f51602061523a5f395f51905f5255604051908152f35b612bd6565b63105d8d3b60e31b5f5260045ffd5b346105ac5760403660031901126105ac57600435602435905f52601b60205260405f20905f5260205260405f20600181549101549061069c6040519283928360209093929193604081019481520152565b346105ac575f3660031901126105ac575f546001600160a01b03163303610644575f51602061521a5f395f51905f525460ff811615610e2a5760ff19165f51602061521a5f395f51905f52557f5db9ee0a495bf2e6ff9c91a7834c1ba4fdd244a5e8aa4e537bd38aeae4b073aa6020604051338152a1005b638dfc202b60e01b5f5260045ffd5b346105ac5760603660031901126105ac57600435610e98602435610e90604435610e628161059b565b845f52601b60205260405f20835f52602052600260405f20019060018060a01b03165f5260205260405f2090565b5492836134f6565b50506040805193845260208401929092525090f35b346105ac5760403660031901126105ac5760206106c1602435600435612e9b565b60403660031901126105ac57600435610ee68161059b565b602435610ef1613be1565b610ef9613f2e565b336001600160a01b038316141580610f87575b610f785780158015610f6d575b610acb57610f26816131c4565b610abc576003543410610f5e57610a87610f5861069c93610f478434612e32565b93610f528534612d1f565b916141e3565b91613d78565b637ee5dacf60e01b5f5260045ffd5b506011548111610f19565b6319f85ce160e01b5f5260045ffd5b50610fcc610fc8610fc133610fac8660018060a01b03165f52601460205260405f2090565b9060018060a01b03165f5260205260405f2090565b5460ff1690565b1590565b610f0c565b346105ac5760403660031901126105ac5760206106c1600435610ff38161059b565b60243590612f4a565b346105ac575f3660031901126105ac5760206040517f778822020b59638b22ca9362f2de4db01600920f59fc336582386847a4f2ec0a8152f35b346105ac5760403660031901126105ac576004356024355f546001600160a01b0316330361064457600a6002540481116110bc575f828152601360209081526040918290208054908490558251948552908401929092528201527fd5d6967eec72b6ad8abfdc027dc25c6f77c3661ce7075e3ea7c89e47da14b9429080606081016109de565b63536188f160e11b5f5260045ffd5b346105ac5760206110e46110de36610ccc565b91613758565b50509050604051908152f35b9181601f840112156105ac578235916001600160401b0383116105ac57602083818601950101116105ac57565b9060406003198301126105ac5760043591602435906001600160401b0382116105ac5761114c916004016110f0565b9091565b346105ac5761115e3661111d565b5f546001600160a01b031633036106445760075491604051602081019061119a8161118c8787878b88612f75565b03601f198101835282612302565b51902092835f52601a602052600160405f20015461122e577fb9de9600d753b5619b03226f918d5da2f2e59ca71fe99366db4dc38b0127194b9361121d6111e46112299342612c98565b916112186111f06127e3565b916111fc368989612f8f565b83528460208401525f60408401525f52601a60205260405f2090565b61301e565b6040519384938461314a565b0390a2005b6307723de960e01b5f5260045ffd5b346105ac5760203660031901126105ac576004355f526018602052602060405f2054604051908152f35b346105ac575f3660031901126105ac57602060ff5f51602061521a5f395f51905f5254166040519015158152f35b346105ac575f3660031901126105ac5760206040515f198152f35b346105ac5760203660031901126105ac575f54600435906001600160a01b0316330361064457600b8054908290556040805192835260208301919091527fbd4298239551a97017a34002c847c254ed64784f0b838b5cf41f472212668bc49190819081016109de565b9181601f840112156105ac578235916001600160401b0383116105ac576020808501948460051b0101116105ac57565b60206040818301928281528451809452019201905f5b81811061136c5750505090565b825184526020938401939092019160010161135f565b60203660031901126105ac576004356001600160401b0381116105ac576113ad903690600401611319565b906113b6613be1565b6113be613f2e565b6113cf826113ca612e14565b612ca5565b3410610d5257906113e08134612bea565b5f906113eb8361317e565b915f94601e1981360301915b85871015611459578660051b820135838112156105ac578201908135916001600160401b0383116105ac576020019082360382136105ac5761143f86600194611451946143bf565b919061144b8b8a6131b0565b52612c98565b9601956113f7565b8461147a61147561069c936114708a600954612ca5565b612c98565b613d78565b61149060015f51602061523a5f395f51905f5255565b60405191829182611349565b346105ac5760203660031901126105ac5760206114ba6004356131c4565b6040519015158152f35b346105ac5760403660031901126105ac5761069c6108bb6024356004356131f8565b346105ac5760203660031901126105ac575f54600435906001600160a01b0316330361064457600a8054908290556040805192835260208301919091527fde300c3dd134b3fc23d65279865d550afbedd1b10ae1e99ded77996beec213659190819081016109de565b346105ac5760203660031901126105ac5760043561156c8161059b565b6001600160a01b0381169033829003610644575f54604051633825b60160e11b60208201526001600160a01b0380841660248084019190915282527f778822020b59638b22ca9362f2de4db01600920f59fc336582386847a4f2ec0a947f8406851b928c59b23d046c9668b30bdb92a6a96d285773a799584f596c1b207c949093919091169161122991611671906002906116639061160c604486612302565b6116556007546040516116288161118c60208201948b86613260565b51902091611635836144ee565b60018060a01b03166bffffffffffffffffffffffff60a01b5f5416175f55565b5f52601a60205260405f2090565b01805460ff19166001179055565b6040519384936001600160a01b0316907fbf265e8326285a2747e33e54d5945f7111f2b5edb826eb8c08d4677779b3ff975f80a3826129e2565b346105ac5760403660031901126105ac5760206110e46024356004356131f8565b346105ac5760403660031901126105ac5760206106c16024356004356132cd565b346105ac5760206106c161087236610ccc565b346105ac5760203660031901126105ac57601c5460405163a0760cad60e01b8152600480359082015290602090829060249082906001600160a01b03165afa80156117905761069c915f91611761575b506040519081529081906020820190565b611783915060203d602011611789575b61177b8183612302565b810190612e81565b5f611750565b503d611771565b612e90565b346105ac575f3660031901126105ac5760085460095460408051928352602083019190915290f35b346105ac575f3660031901126105ac575f546001600160a01b03163303610644576117e6613f2e565b600160ff195f51602061521a5f395f51905f525416175f51602061521a5f395f51905f52557f62e78cea01bee320cd4e420270b5ea74000d11b0c9f74754ebdbfc544b05a2586020604051338152a1005b346105ac575f3660031901126105ac57600f546040516001600160a01b039091168152602090f35b60403660031901126105ac576004356118778161059b565b60243590611883613be1565b61188b613f2e565b336001600160a01b038216141580611939575b610f78576118ae610fc8836131c4565b61192a576118bc818361454f565b61191b576003543410610f5e57610a87826118da61069c9434612e32565b906118e58234612d1f565b936118fb826118f58782856141e3565b966132cd565b908161190a575b505050613d78565b6119139261458c565b5f8080611902565b636060860f60e01b5f5260045ffd5b6336e8c70d60e11b5f5260045ffd5b5061195e610fc8610fc133610fac8560018060a01b03165f52601460205260405f2090565b61189e565b346105ac5760403660031901126105ac57600435610e986119ad6024356119898161059b565b835f526012602052600260405f20019060018060a01b03165f5260205260405f2090565b549182612d2c565b346105ac5760203660031901126105ac576004355f52601260205260405f20600181549101549061069c6040519283928360209093929193604081019481520152565b60603660031901126105ac576004356001600160401b0381116105ac57611a23903690600401611319565b6024356001600160401b0381116105ac57611a42903690600401611319565b9190926044356001600160401b0381116105ac57611a64903690600401611319565b94611a6d613be1565b611a75613f2e565b848414801590611b3c575b611b2d57611a90846113ca612cb8565b3410610d5257611aa584969593929634612bea565b905f96611ab18661317e565b965f955b878710611ad35761069c8961147a6114758d6114708d600a54612ca5565b90919293949598611b208a6001928b61144b611b188b8b8f8f888d8f93828f611b0382611b0a94611b119861331c565b359761331c565b359361331c565b3591613f79565b9490926131b0565b9901959493929190611ab5565b633e56678160e11b5f5260045ffd5b5085841415611a80565b346105ac5760203660031901126105ac575f54600435906001600160a01b031633036106445760038054908290556040805192835260208301919091527f91a5197bdd70e4b9e17ebdd91aab9f96b2a5a4cfb5010870b488963bd7a94d949190819081016109de565b346105ac575f3660031901126105ac5760206040517f7925972c66d280d08f7e7a6e3f3aae3eb40e786fe30284acf451c52bdc133abd8152f35b346105ac575f3660031901126105ac5761010060018060a01b035f541660018060a01b0360015416600254600354600454600554916006549360075495604051978852602088015260408701526060860152608085015260a084015260c083015260e0820152f35b346105ac57611c5f366109f2565b9192611c69613be1565b611c72826131c4565b1561192a575f611c8a81949286839584953391613c19565b909590949086906001600160a01b03165af1611ca4612de5565b5015610aad57611cb390613d78565b60015f51602061523a5f395f51905f5255604051908152602090f35b346105ac5760403660031901126105ac575f5460243590600435906001600160a01b0316330361064457600254600a90048211611e3657611229817f4b18f9bb7fa85d04f11845a1f27d6a74cab49c705a45615be6a9edeaa07204797f7925972c66d280d08f7e7a6e3f3aae3eb40e786fe30284acf451c52bdc133abd946001611d827f8406851b928c59b23d046c9668b30bdb92a6a96d285773a799584f596c1b207c965f52601360205260405f2090565b0154604051634fa4db0760e11b602082015260248101859052604480820184905281529390611e2790611db6606487612302565b611e0a60026116638861118c611dd960075460405192839160208301958661329a565b519020611de5816144ee565b876001611dfa895f52601360205260405f2090565b01555f52601a60205260405f2090565b604051938493846040919493926060820195825260208201520152565b0390a1604051918291826129e2565b6321bb382b60e21b5f5260045ffd5b60609060031901126105ac57600435611e5d8161059b565b906024359060443590565b611e7136611e45565b91611e7a613be1565b611e82613f2e565b336001600160a01b038216141580611eed575b610f785781158015611ee2575b610acb57611eaf826131c4565b610abc576003543410610f5e57610f58610a879161069c94611ed18534612e32565b94611edc8634612d1f565b926145e9565b506011548211611ea2565b50611f12610fc8610fc133610fac8560018060a01b03165f52601460205260405f2090565b611e95565b346105ac5760403660031901126105ac57602060ff611f6f600435611f3b8161059b565b60243590611f488261059b565b60018060a01b03165f526014845260405f209060018060a01b03165f5260205260405f2090565b54166040519015158152f35b346105ac575f3660031901126105ac57604060018060a01b03601c5416601d5482519182526020820152f35b346105ac5760203660031901126105ac57600435611fc48161059b565b5f546001600160a01b0316330361064457600180546001600160a01b039283166001600160a01b03198216811790925591909116907fcfd3ec1b0100c23c86d491922d7eb032152cd13c1a269fb3915c613d43491be55f80a3005b346105ac5760403660031901126105ac576004356024356120408183612e32565b91828103908111610d4d5761205582826132cd565b91828203918211610d4d5761206991612b34565b908201809211610d4d578101809111610d4d57604051908152602090f35b346105ac5760203660031901126105ac576004356120a48161059b565b6001600160a01b0381169033821461213d57335f52601460205260ff6120dd8260405f209060018060a01b03165f5260205260405f2090565b541615610f7857335f908152601460205260409020612109916120ff91610fac565b805460ff19169055565b6040515f815233907f0e2f197284f3641a5856dddbb024f79856a0ce1d508a804b5031c015006044e190806020810161082e565b6303820fb760e11b5f5260045ffd5b346105ac5760403660031901126105ac5760206106c160243560043561332c565b346105ac5760206106c161218036611e45565b9161337b565b346105ac5760206106c161219936610ccc565b916133ae565b346105ac576121ad36610c3a565b90916121b7613be1565b6121c0826131c4565b1561192a575f80611c8a8194938683953390613dde565b346105ac5760206106c16121ea36610ccc565b91613440565b346105ac5760203660031901126105ac57602060043560405190198152f35b346105ac5760403660031901126105ac5760206110e4602435600435612d2c565b346105ac5760203660031901126105ac576004355f526019602052602060ff60405f2054166040519015158152f35b90600182811c9216801561228d575b602083101461227957565b634e487b7160e01b5f52602260045260245ffd5b91607f169161226e565b634e487b7160e01b5f52604160045260245ffd5b604081019081106001600160401b038211176122c657604052565b612297565b606081019081106001600160401b038211176122c657604052565b61010081019081106001600160401b038211176122c657604052565b90601f801991011681019081106001600160401b038211176122c657604052565b9060405191825f8254926123368461225f565b808452936001811690811561239f575060011461235b575b506105bd92500383612302565b90505f9291925260205f20905f915b8183106123835750509060206105bd928201015f61234e565b602091935080600191548385890101520191019091849261236a565b9050602092506105bd94915060ff191682840152151560051b8201015f61234e565b805180835260209291819084018484015e5f828201840152601f01601f1916010190565b346105ac5760203660031901126105ac576004355f52601a60205261243260405f2061241081612323565b9060ff60026001830154920154166040519384936060855260608501906123c1565b916020840152151560408301520390f35b346105ac5760206110e461245636610ccc565b916134f6565b634e487b7160e01b5f52603260045260245ffd5b346105ac5760403660031901126105ac57600435602435905f52601760205260405f209060038110156105ac576020910154604051908152f35b346105ac575f3660031901126105ac57600d54600e54600f54601054604080516001600160a01b0395861681529385166020850152918416918301919091529091166060820152608090f35b6124ff36611e45565b9190612509613be1565b612511613f2e565b336001600160a01b0383161415806125a6575b610f7857612534610fc8826131c4565b61192a576125438284836147a3565b61191b576003543410610f5e5761069c9281612562610a879334612e32565b9161256d8334612d1f565b946125848361257e888583866145e9565b976132cd565b9182612594575b50505050613d78565b61259d936147e5565b5f80808061258b565b506125cb610fc8610fc133610fac8660018060a01b03165f52601460205260405f2090565b612524565b346105ac5760403660031901126105ac5760206106c16024356004356134c2565b346105ac5761069c6108bb61245636610ccc565b346105ac5760203660031901126105ac576020610704600435612626613f2e565b613599565b346105ac576126393661111d565b5f546001600160a01b03163303610644576007546040516126658161118c602082019486888a88612f75565b51902091825f52601a60205261267d60405f2061362d565b6020810151156126e857604001516126d9576126ca6126c57ff5dad08915dd5bcfd9f7264eb352cae49943fcaa43173b5bc0dc15fee5c5cc6f945f52601a60205260405f2090565b613661565b611229604051928392836136d3565b63df8f7f2560e01b5f5260045ffd5b630f89ea8b60e01b5f5260045ffd5b346105ac5760203660031901126105ac576004355f526016602052602060405f2054604051908152f35b346105ac5760203660031901126105ac5760206106c16004356136e4565b346105ac5761069c6108bb6110de36610ccc565b60203660031901126105ac576004356001600160401b0381116105ac5761277e9036906004016110f0565b90612787613be1565b61278f613f2e565b612797612e14565b3410610d52576127a89134916143bf565b90600954918201809211610d4d576127c261069c92613d78565b60015f51602061523a5f395f51905f52556040519081529081906020820190565b604051906105bd606083612302565b906105bd6040519283612302565b6040906101031901126105ac576040519061281a826122ab565b610104358252610124356020830152565b6060906101431901126105ac5760405190612845826122cb565b610144358252610164356020830152610184356040830152565b6060906102231901126105ac5760405190612879826122cb565b610224358252610244356020830152610264356040830152565b6080906101a31901126105ac5760405190608082018281106001600160401b038211176122c657604052816101a4356128cb8161059b565b81526101c4356128da8161059b565b60208201526101e4356128ec8161059b565b6040820152606061020435916129018361059b565b0152565b6040906102831901126105ac576040519061291f826122ab565b816102843561292d8161059b565b815260206102a435910152565b346105ac5736600319016102c081126105ac57610100136105ac576129e0604051612964816122e6565b61296c6105b0565b81526129766105bf565b602082015260443560408201526064356060820152608435608082015260a43560a082015260c43560c082015260e43560e08201526129b436612800565b6129bd3661282b565b6129c636612893565b906129d03661285f565b926129da36612905565b946137b8565b005b9060206129f39281815201906123c1565b90565b346105ac5760203660031901126105ac576004355f52601560205261069c612a2060405f20612323565b6040519182916020835260208301906123c1565b346105ac5760203660031901126105ac576004355f546001600160a01b0316330361064457600254600981029080820460091490151715610d4d57600a90048111612abc57600c8054908290556040805192835260208301919091527fd216527c8a546d2426da0056956df236b1a59e206bd170ef81248b599c52bed99190819081016109de565b636865605b60e11b5f5260045ffd5b346105ac5760203660031901126105ac575f54600435906001600160a01b031633036106445760098054908290556040805192835260208301919091527fbb48724c22d0c8c190f6c11d01fd451f89dc4e039ce368393522833e2388ea4b9190819081016109de565b6129f3915f52601360205260405f205480155f14612b8157505f805260136020527f8fa6efc3be94b5b348b21fea823fe8d100408cee9b7f90524494500445d8ff6c545b600254916148cf565b612b78565b612b8e613b14565b6020815191012060405190602082019260ff60f81b84523060601b60218401526035830152605582015260558152612bc7607582612302565b5190206001600160a01b031690565b634e487b7160e01b5f52601160045260245ffd5b8115612bf4570490565b634e487b7160e01b5f52601260045260245ffd5b906003811015612c195760051b0190565b61245c565b6001600160ff1b03811115612c8757195f52601760205260405f20905b604051915f835b60038210612c7157505050612c58606083612302565b815190612c6a60208401519360400190565b5191929190565b6001602081928554815201930191019091612c42565b5f52601760205260405f2090612c3b565b91908201809211610d4d57565b81810292918115918404141715610d4d57565b600a54600b548101809111610d4d576004548060011b9080820460021490151715610d4d578101809111610d4d5790565b90805f526012602052600160405f2001549081155f14612d0857505090565b916129f3925f52601260205260405f205490613bcc565b91908203918211610d4d57565b9190805f526012602052600160405f20015492808403938411610d4d5781612d5391612ce9565b9260ff5f51602061521a5f395f51905f5254165f14612d8b5750505f5f915b818403848111610d4d5783612d8691612d1f565b929190565b60045403612da457612d9e5f9184612e32565b91612d72565b90612daf8284612e32565b9182840390848211610d4d57612dc49161332c565b90612d72565b6001600160401b0381116122c657601f01601f191660200190565b3d15612e0f573d90612df682612dca565b91612e046040519384612302565b82523d5f602084013e565b606090565b6009546008548101809111610d4d576004548101809111610d4d5790565b6129f3915f526013602052600260405f20015480155f14612b8157505f805260136020527f8fa6efc3be94b5b348b21fea823fe8d100408cee9b7f90524494500445d8ff6e54600254916148cf565b908160209103126105ac575190565b6040513d5f823e3d90fd5b5f52601b6020526001612eb98260405f20905f5260205260405f2090565b015480612ec65750505f90565b601c54612f1c926020929091612ef290612ee6906001600160a01b031681565b6001600160a01b031690565b9060405180958194829363159d416760e01b84526004840160209093929193604081019481520152565b03915afa908115611790575f91612f31575090565b6129f3915060203d6020116117895761177b8183612302565b612f71915f526012602052600260405f20019060018060a01b03165f5260205260405f2090565b5490565b909280926040959483526020830137019060208201520190565b929192612f9b82612dca565b91612fa96040519384612302565b8294818452818301116105ac578281602093845f960137010152565b818110612fd0575050565b5f8155600101612fc5565b9190601f8111612fea57505050565b6105bd925f5260205f20906020601f840160051c83019310613014575b601f0160051c0190612fc5565b9091508190613007565b91909182519283516001600160401b0381116122c65761304881613042855461225f565b85612fdb565b6020601f82116001146130b55760029261308383613097946040946105bd999a5f926130aa575b50508160011b915f199060031b1c19161790565b85555b602081015160018601550151151590565b91019060ff801983541691151516179055565b015190505f8061306f565b601f198216956130c8855f5260205f2090565b965f5b8181106131125750836105bd97986040946002979461309797600195106130fa575b505050811b018555613086565b01515f1960f88460031b161c191690555f80806130ed565b838301518955600190980197602093840193016130cb565b908060209392818452848401375f828201840152601f01601f1916010190565b9392916020916131629160408752604087019161312a565b930152565b6001600160401b0381116122c65760051b60200190565b9061318882613167565b6131956040519182612302565b82815280926131a6601f1991613167565b0190602036910137565b8051821015612c195760209160051b010190565b6001600160ff1b038111156131e657195f52601960205260ff60405f20541690565b5f52601960205260ff60405f20541690565b9161320382846132cd565b8303928311610d4d57815f526012602052600160405f200154600454145f1461323e575f905b81840392848411610d4d57612d8690846134c2565b6132488284612b34565b90613229565b805191908290602001825e015f815290565b6020929183613293927f778822020b59638b22ca9362f2de4db01600920f59fc336582386847a4f2ec0a8152019061324e565b9081520190565b6020929183613293927f7925972c66d280d08f7e7a6e3f3aae3eb40e786fe30284acf451c52bdc133abd8152019061324e565b906132d7906131c4565b156132ec576129f390600c54600254916148cf565b505f90565b9160405191602083019384526040830152606082015260608152613316608082612302565b51902090565b9190811015612c195760051b0190565b6129f3915f526013602052600160405f20015480155f14612b8157505f805260136020527f8fa6efc3be94b5b348b21fea823fe8d100408cee9b7f90524494500445d8ff6d54600254916148cf565b9091612f71925f52601b60205260405f20905f52602052600260405f20019060018060a01b03165f5260205260405f2090565b90602091815f52601b835260405f20845f5283526133ed846133e0600160405f200154945f52601b60205260405f2090565b905f5260205260405f2090565b54601c5490929061340890612ee6906001600160a01b031681565b91612f1c60405196879586948594633e3cfc1760e11b8652600486019094939260609260808301968352602083015260408201520152565b90602091815f52601b835260405f20845f528352613472846133e0600160405f200154945f52601b60205260405f2090565b54601c5461348a90612ee6906001600160a01b031681565b91612f1c60405196879586948594636199b7ff60e01b8652600486019094939260609260808301968352602083015260408201520152565b815f526012602052600160405f20015480155f146134e05750905090565b6129f3925f52601260205260405f205491613bcc565b929192815f52601b60205260405f20845f52602052600160405f20015493818503948511610d4d5782613528926133ae565b9260ff5f51602061521a5f395f51905f5254165f1461355a5750505f5f915b612d86836135558487612d1f565b612d1f565b600454036135735761356d5f9184612e32565b91613547565b9061357e8284612e32565b9182840390848211610d4d576135939161332c565b90613547565b80158015613622575b610acb576135af816131c4565b610abc576135bb613b14565b6135c482612b86565b91823b918160018060a01b03916020815191015ff51691821561360957507feef9c381d2c74749a8348b1cb0ea2b9e4f6e639218ecda97fba36ad22014f8ec5f80a390565b915050155f146129f35763fd79f6c960e01b5f5260045ffd5b5060115481116135a2565b9060405161363a816122cb565b604060ff6002839561364b81612323565b8552600181015460208601520154161515910152565b60025f9161366f815461225f565b80613680575b508260018201550155565b601f811160011461369657508281555b5f613675565b818452602084206136b291601f0160051c810190600101612fc5565b808352826020812080548260011b9083198460031b1c191617835555613690565b9160206129f393818152019161312a565b805f526012602052600160405f2001549081155f146137035750505f90565b5f52601260205260405f20547812725dd1d243aba0e75fe645cc4873f9e65afe688c928e1f218111670de0b6b3a7640000021582021561374b57670de0b6b3a7640000020490565b63ad251c275f526004601cfd5b9261376382856132cd565b8403938411610d4d57815f52601b60205260405f20835f52602052600160405f200154600454145f146137a8575f915b82850393858511610d4d57612d869185613440565b6137b28285612b34565b91613793565b9391949290945f51602061525a5f395f51905f5254956001600160401b036137f66137e960ff8a60401c1615151590565b986001600160401b031690565b1680159081613910575b6001149081613906575b1590816138fd575b506138ee57613855958761384c60016001600160401b03195f51602061525a5f395f51905f525416175f51602061525a5f395f51905f5255565b6138b457613918565b61385b57565b61388560ff60401b195f51602061525a5f395f51905f5254165f51602061525a5f395f51905f5255565b604051600181527fc7f505b2f371ae2175ee4913f4499e1f2633a7b5936321eed1cdaeb6115181d290602090a1565b6138e96801000000000000000060ff60401b195f51602061525a5f395f51905f525416175f51602061525a5f395f51905f5255565b613918565b63f92ee8a960e01b5f5260045ffd5b9050155f613812565b303b15915061380a565b889150613800565b92613a0a6105bd96936139f4613a679460e0613a9398613936614d74565b61393e614d74565b60015f51602061523a5f395f51905f5255613957614d74565b61395f614d74565b5f51602061521a5f395f51905f52805460ff1916905580515f80546001600160a01b0319166001600160a01b039092169190911790556020810151600180546001600160a01b0319166001600160a01b0390921691909117905560408101516002556060810151600355608081015160045560a081015160055560c08101516006550151600755805160085560200151600955565b8051600a556020810151600b5560400151600c55565b8051600d80546001600160a01b03199081166001600160a01b03938416179091556020830151600e805483169184169190911790556040830151600f80548316918416919091179055606090920151601080549093169116179055565b60209060018060a01b038151166bffffffffffffffffffffffff60a01b601c541617601c550151601d55565b8051906040602082015191015190613aa96127e3565b92835260208301526040820152613ac85f8052601360205260405f2090565b90604060029180518455602081015160018501550151910155565b63809953b760e01b5f5260045ffd5b6001600160a01b0390911681526040602082018190526129f3929101906123c1565b601054613bc6906129f3906001600160a01b031661118c613b96613bb661047a93613b41602086016127f2565b94808652614da06020870139600e54613ba490613b66906001600160a01b0316612ee6565b60405163784d200b60e11b60208201526001600160a01b0390911660248201523060448201529384906064820190565b03601f198101855284612302565b61118c60405193849260208401613af2565b604051948593602085019061324e565b9061324e565b815f1904811182021583021561374b57020490565b60025f51602061523a5f395f51905f525414613c0a5760025f51602061523a5f395f51905f5255565b633ee5aeb560e01b5f5260045ffd5b949390928115613d695781613c2f85888661337b565b10613d5a578190613c418588846134f6565b9197909988949350828b81151597613c8a613d1296611470613c91947fed271158503049cb52ea8ef07cc174c047f2d828905826b67ad92ef36778cd609c613d19575b8b612c98565b858561494a565b613c9d8884848c6149e9565b613ccf896002613cb9866133e0875f52601b60205260405f2090565b019060018060a01b03165f5260205260405f2090565b549760405196879660018060a01b03169a60018060a01b031699879260a094919796959260c0850198855260208501526040840152606083015260808201520152565b0390a39190565b613d55613d3884613d328b5f52601260205260405f2090565b54612c98565b6001613d4c8b5f52601260205260405f2090565b0154908a6148ec565b613c84565b631c2b147d60e11b5f5260045ffd5b63224af49960e11b5f5260045ffd5b8015613ddb575f8080808460018060a01b03600154165af1613d98612de5565b5015610aad576001546040519182526001600160a01b03169033907ffd2f5d3811ae7b8af2bd567683c6265c793894aa361eb932658effcf52d635a290602090a3565b50565b93928015613d695780613df18684612f4a565b10613d5a57613e15816001613e0e885f52601260205260405f2090565b0154612d1f565b60045411613efe577f347ee37487f7d4fe0b4d3777823c6a71c110e3df43f4f3d35356cf6909e9abdb85613e4c613d129784612d2c565b82989350613e9d613e7e83613e78613e7089969f97995f52601260205260405f2090565b549189612c98565b90612d1f565b613e96896001613e0e875f52601260205260405f2090565b90846148ec565b613ea887838a614a84565b613ec0886002613cb9855f52601260205260405f2090565b5460408051918252602082019690965294850196909652606084019590955260808301949094526001600160a01b03908116941692819060a0820190565b613f19613f2b916001613e0e885f52601260205260405f2090565b6378daa24160e01b5f52600452602490565b5ffd5b60ff5f51602061521a5f395f51905f525416613f4657565b63d93c066560e01b5f5260045ffd5b905f5b60038110613f6557505050565b600190602083519301928185015501613f58565b939193929092613f8960606127f2565b948186528460208701528060408701525f5b600381106141585750613faf8186846132f1565b92613fc2845f52601860205260405f2090565b5461413a57613fd390613e78612cb8565b94613fdc614ae9565b9384614004613ff5613fee838b612e32565b809a612d1f565b925f52601860205260405f2090565b5561403861401260606127f2565b858152836020820152846040820152614033875f52601760205260405f2090565b613f55565b61404d6107f0865f52601960205260405f2090565b61406b61406461405d87846132cd565b8093612d1f565b3387614afe565b80614129575b50600b546140c4575b60408051938452602084019190915282015260608101829052929350909133907f950bffece137ec4b4173970288bc78f45d30d77c58e0e87e6b210599a9ddc8f390608090a29190565b5f5b600381106140d4575061407a565b806141236140e46001938b612c08565b516141086140fa825f52601260205260405f2090565b54600b546003900490612c98565b8461411b835f52601260205260405f2090565b0154916148ec565b016140c6565b61413490338661458c565b5f614071565b5063d94a41bd60e01b5f52600491909152602484905260445260645ffd5b6141628188612c08565b511580156141ce575b6141ae5761418261417c8289612c08565b516131c4565b61418e57600101613f9b565b61419b613f2b9188612c08565b5163053ea79560e51b5f52600452602490565b6141bb613f2b9188612c08565b51631b57ccd960e01b5f52600452602490565b506141d98188612c08565b516011541061416b565b916141ee82826131f8565b5050905015613d695781614201916131f8565b909392919482156142e9576142e3869261427161424b7f63f1715b856071be1b955e9ae199dab3454f8aba9d970ba690fa6ac9268e701496885f52601260205260405f2054612c98565b61426a8660016142638b5f52601260205260405f2090565b0154612c98565b90886148ec565b61427c848785614c86565b614294836002613cb9895f52601260205260405f2090565b549561429f816131c4565b9160405195869560018060a01b031699339987929360c0945f969298979360e086019986526020860152604085015260608401526080830152151560a08201520152565b0390a390565b63a3d9d45760e01b5f5260045ffd5b9092916001600160401b0381116122c65761431d81614317845461225f565b84612fdb565b5f601f821160011461435a57819061434b9394955f9261434f5750508160011b915f199060031b1c19161790565b9055565b013590505f8061306f565b601f1982169461436d845f5260205f2090565b915f5b8781106143a757508360019596971061438e575b505050811b019055565b01355f19600384901b60f8161c191690555f8080614384565b90926020600181928686013581550194019101614370565b92919060055481116144df576143d3612e14565b6143de368387612f8f565b60208151910120926143f8845f52601660205260405f2090565b546144aa579061440791612d1f565b937f8a016c336f3624ae541c0b00d83a02b05ed2ecbb29874e15881766f51aa323e0614431614ae9565b809461444a614443613fee848b612e32565b3384614afe565b8161448f61445782612b86565b926144656008548585614afe565b614481888861447c865f52601560205260405f2090565b6142f8565b5f52601660205260405f2090565b55613d1260405192839260018060a01b03169633968461314a565b82866144db6144c1875f52601660205260405f2090565b54604051636478137b60e11b81529384936004850161314a565b0390fd5b6305df6cdb60e11b5f5260045ffd5b5f52601a60205260405f20604051614505816122cb565b61450e82612323565b81526001820154604060ff6002602085019584875201541692019115158252156126e857516126d95751421061454057565b634b56dcfd60e11b5f5260045ffd5b90614559826131c4565b1561192a5761458691195f526012602052600260405f20019060018060a01b03165f5260205260405f2090565b54151590565b9160039004906145ae604051936145a4606086612302565b6060368637612c1e565b6040860152602085015283525f5b600381106145ca5750505050565b806145e2846145db60019488612c08565b51856141e3565b50016145bc565b91926145f6848383613758565b5050905015613d695761461f614618856133e0855f52601b60205260405f2090565b5482612c98565b601c5461463690612ee6906001600160a01b031681565b60405163a0760cad60e01b8152600481018790529190602090839060249082905afa918215611790575f92614782575b501161477357838261467792613758565b919592949094156142e9576142e3827ffbac54646742054f324c1121e86721fde22f34f6c259f50259d9cbd807ac932b948894614738575b6146bb8589838a614cbc565b6146c785828987614d41565b6146e3846002613cb9846133e08c5f52601b60205260405f2090565b54966146ee816131c4565b9260405196879660018060a01b03169a339a889360e095919897935f979361010087019a8752602087015260408601526060850152608084015260a0830152151560c08201520152565b61476e61475183613d328a5f52601260205260405f2090565b60016147658a5f52601260205260405f2090565b015490896148ec565b6146af565b6321c94b4160e21b5f5260045ffd5b61479c91925060203d6020116117895761177b8183612302565b905f614666565b91906147ae836131c4565b1561192a5761458692195f52601b60205260405f20905f52602052600260405f20019060018060a01b03165f5260205260405f2090565b93926003900490614808604051956147fe606088612302565b6060368837612c1e565b6040880152602087015285525f5b6003811061482657505050509050565b8061483f84846148386001958b612c08565b51886145e9565b5001614816565b36156148cb575f5f5b8091368210156148b257600182019160031981019035185f1a801561487d5760019293508153015b9061484f565b505f1981526002830192600192607f91600219019035185f1a818111156148a7575b160101614877565b83810138843961489f565b5f90389082305af43d5f803e156148c7573d5ff35b3d5ffd5b3636f35b815f1904811182021583021561374b570290808204910615150190565b91907fcaa2b8ed68ef0597c3e40dba1bb70d21da0077cda8fffd40667be78cf224042091614919846136e4565b5f858152601260205260409020928355600190920155614938836136e4565b604080519182526020820192909252a2565b919290926149588484612e9b565b90835f52601b60205260405f20855f5260205260405f208054918203918211610d4d5755825f52601b60205260405f20845f52602052600160405f2001918254908103908111610d4d577f09b4d387e764374bf0b294e430a6d02a353ae7d14f35276cb1fca6c117003def92556149cf8484612e9b565b60408051918252602082019290925290819081015b0390a3565b906001600160a01b03821615614a75575f818152601b6020908152604080832086845282528083206001600160a01b038616845260020190915290205493808510614a6657614a63936002925f52601b60205260405f20905f5260205260405f20940393019060018060a01b03165f5260205260405f2090565b55565b631b9e15c160e21b5f5260045ffd5b63017456ed60e31b5f5260045ffd5b916001600160a01b03831615614a75575f8281526012602090815260408083206001600160a01b0387168452600201909152902054818110614a6657614a63925f5260126020520391600260405f20019060018060a01b03165f5260205260405f2090565b6011545f198114610d4d576001018060115590565b907f63f1715b856071be1b955e9ae199dab3454f8aba9d970ba690fa6ac9268e701490614b2d612ee684612b86565b936149e460018060a01b038316958614614bbc60045494825f14614c765784955b614b8789614b80896001614263614b7183613d32875f52601260205260405f2090565b945f52601260205260405f2090565b908b6148ec565b614b92868a84614c86565b8315614c59575b614ba2896131c4565b614c05575b506002613cb9895f52601260205260405f2090565b5495614bc7816131c4565b9060405195869533998794919260c0949197969360e08701988752602087015260408601525f60608601526080850152151560a08401521515910152565b614c53908919614c43614c2483613d32845f52601260205260405f2090565b614c3c846001614263865f52601260205260405f2090565b90836148ec565b5f546001600160a01b0316614c86565b5f614ba7565b5f54614c719082908b906001600160a01b0316614c86565b614b99565b614c808686612c98565b95614b4e565b614cad915f526012602052600260405f20019060018060a01b03165f5260205260405f2090565b8054918201809211610d4d5755565b91929092614cca8484612e9b565b90835f52601b60205260405f20855f5260205260405f208054918201809211610d4d5755825f52601b60205260405f20845f52602052600160405f2001918254908101809111610d4d577f09b4d387e764374bf0b294e430a6d02a353ae7d14f35276cb1fca6c117003def92556149cf8484612e9b565b9091614cad925f52601b60205260405f20905f52602052600260405f20019060018060a01b03165f5260205260405f2090565b60ff5f51602061525a5f395f51905f525460401c1615614d9057565b631afcd79f60e31b5f5260045ffdfe60a08060405261047a80380380916100178285610292565b833981016040828203126101eb5761002e826102c9565b602083015190926001600160401b0382116101eb57019080601f830112156101eb57815161005b816102dd565b926100696040519485610292565b8184526020840192602083830101116101eb57815f926020809301855e84010152823b15610274577fa3f0ad74e5423aebfd80d3ef4346578335a9a72aeaee59ff6cb3582b35133d5080546001600160a01b0319166001600160a01b038516908117909155604051635c60da1b60e01b8152909190602081600481865afa9081156101f7575f9161023a575b50803b1561021a5750817f1cf3b03a6cf19fa2baba4df148e9dcabedea7f8a5c07840e207e5c089be95d3e5f80a282511561020257602060049260405193848092635c60da1b60e01b82525afa9182156101f7575f926101ae575b505f809161018a945190845af43d156101a6573d9161016e836102dd565b9261017c6040519485610292565b83523d5f602085013e6102f8565b505b608052604051610123908161035782396080518160180152f35b6060916102f8565b9291506020833d6020116101ef575b816101ca60209383610292565b810103126101eb575f80916101e161018a956102c9565b9394509150610150565b5f80fd5b3d91506101bd565b6040513d5f823e3d90fd5b505050341561018c5763b398979f60e01b5f5260045ffd5b634c9c8ce360e01b5f9081526001600160a01b0391909116600452602490fd5b90506020813d60201161026c575b8161025560209383610292565b810103126101eb57610266906102c9565b5f6100f5565b3d9150610248565b631933b43b60e21b5f9081526001600160a01b038416600452602490fd5b601f909101601f19168101906001600160401b038211908210176102b557604052565b634e487b7160e01b5f52604160045260245ffd5b51906001600160a01b03821682036101eb57565b6001600160401b0381116102b557601f01601f191660200190565b9061031c575080511561030d57805190602001fd5b630a12f52160e11b5f5260045ffd5b8151158061034d575b61032d575090565b639996b31560e01b5f9081526001600160a01b0391909116600452602490fd5b50803b1561032556fe60806040819052635c60da1b60e01b81526020906004817f00000000000000000000000000000000000000000000000000000000000000006001600160a01b03165afa801560a2575f901560d1575060203d602011609c575b601f19601f820116608001906080821067ffffffffffffffff83111760885760849160405260800160ad565b60d1565b634e487b7160e01b5f52604160045260245ffd5b503d6058565b6040513d5f823e3d90fd5b602090607f19011260cd576080516001600160a01b038116810360cd5790565b5f80fd5b5f8091368280378136915af43d5f803e1560e9573d5ff35b3d5ffdfea264697066735822122087ccd64498a0670a7699026c7364fc07d61430e0fce7b8c6387a63ddb132c66164736f6c634300081c0033cd5ed15c6e187e77e9aee88184c21f4f2182ab5827cb3b7e07fbedcd63f033009b779b17422d0df92223018b32b4d1fa46e071723d6817e2486d003becc55f00f0c57e16840df040f15088dc2f81fe391c3923bec73e23a9662efc9c229c6a00a2646970667358221220764162298a5c81a17ef3adcac7a591a9053fff90db13ce0cff27751f8617f5f164736f6c634300081c0033f0c57e16840df040f15088dc2f81fe391c3923bec73e23a9662efc9c229c6a00",
    "linkReferences": {}
  },
  "methodIdentifiers": {
    "SET_ADMIN()": "4d592c6a",
    "SET_EXIT_FEE()": "90855592",
    "approvals(address,address)": "a32ce11e",
    "approveSender(address)": "11d39b6e",
    "atomConfig()": "7f833f04",
    "atomDepositsAmount(uint256,uint256)": "7b3d7bc3",
    "atoms(uint256)": "f315a94e",
    "atomsByHash(bytes32)": "e3b764af",
    "batchCreateAtom(bytes[])": "65f64685",
    "batchCreateTriple(uint256[],uint256[],uint256[])": "8daf7443",
    "bondingCurveConfig()": "a3bb4f6e",
    "bondingCurveVaults(uint256,uint256)": "3bcef9a6",
    "cancelOperation(bytes32,bytes)": "de3cca60",
    "computeAtomWalletAddr(uint256)": "0ac819db",
    "convertToAssets(uint256,uint256)": "181e7b3b",
    "convertToAssetsCurve(uint256,uint256,uint256)": "b0559b45",
    "convertToShares(uint256,uint256)": "db2088f4",
    "convertToSharesCurve(uint256,uint256,uint256)": "bac67f72",
    "count()": "06661abd",
    "createAtom(bytes)": "f10c9f9b",
    "createTriple(uint256,uint256,uint256)": "39c4f49c",
    "currentSharePrice(uint256)": "ee9dd98f",
    "currentSharePriceCurve(uint256,uint256)": "401569c7",
    "deployAtomWallet(uint256)": "dc5adb8c",
    "depositAtom(address,uint256)": "441d1c2f",
    "depositAtomCurve(address,uint256,uint256)": "a169b46c",
    "depositTriple(address,uint256)": "859aa971",
    "depositTripleCurve(address,uint256,uint256)": "d403f617",
    "entryFeeAmount(uint256,uint256)": "04c89bc6",
    "exitFeeAmount(uint256,uint256)": "ae0a1542",
    "generalConfig()": "927a97a1",
    "getAtomCost()": "33332d39",
    "getAtomWarden()": "84e100db",
    "getCounterIdFromTriple(uint256)": "bb7dd379",
    "getCurveVaultState(uint256,uint256)": "04357c73",
    "getDepositFees(uint256,uint256)": "a4ddc786",
    "getDepositSharesAndFees(uint256,uint256)": "67ab7594",
    "getDepositSharesAndFeesCurve(uint256,uint256,uint256)": "f017b290",
    "getRedeemAssetsAndFees(uint256,uint256)": "1d35900a",
    "getRedeemAssetsAndFeesCurve(uint256,uint256,uint256)": "dc385309",
    "getTripleAtoms(uint256)": "0cde801b",
    "getTripleCost()": "0d65c91c",
    "getVaultStateForUser(uint256,address)": "89065256",
    "getVaultStateForUserCurve(uint256,uint256,address)": "3fadf677",
    "init((address,address,uint256,uint256,uint256,uint256,uint256,uint256),(uint256,uint256),(uint256,uint256,uint256),(address,address,address,address),(uint256,uint256,uint256),(address,uint256))": "f1ff7cc9",
    "isTriple(uint256)": "c61703ac",
    "isTripleId(uint256)": "66e34a33",
    "maxDeposit()": "6083e59a",
    "maxDepositCurve(uint256)": "7c66deae",
    "maxRedeem(address,uint256)": "4abe4137",
    "maxRedeemCurve(address,uint256,uint256)": "af9d35a3",
    "pause()": "8456cb59",
    "paused()": "5c975abb",
    "previewDeposit(uint256,uint256)": "7a7af70d",
    "previewDepositCurve(uint256,uint256,uint256)": "54d94dd9",
    "previewRedeem(uint256,uint256)": "bbec4d06",
    "previewRedeemCurve(uint256,uint256,uint256)": "cf8cea24",
    "protocolFeeAmount(uint256,uint256)": "39a38449",
    "redeemAtom(uint256,address,uint256)": "3800c5c4",
    "redeemAtomCurve(uint256,address,uint256,uint256)": "266190af",
    "redeemTriple(uint256,address,uint256)": "b790e672",
    "redeemTripleCurve(uint256,address,uint256,uint256)": "98e404d1",
    "revokeSender(address)": "ab204282",
    "scheduleOperation(bytes32,bytes)": "56d54d68",
    "setAdmin(address)": "704b6c02",
    "setAtomCreationProtocolFee(uint256)": "f903ff72",
    "setAtomUriMaxLength(uint256)": "340a2812",
    "setAtomWalletInitialDepositAmount(uint256)": "2dd42644",
    "setAtomWarden(address)": "001fc87d",
    "setEntryFee(uint256,uint256)": "5408eec9",
    "setExitFee(uint256,uint256)": "9f49b60e",
    "setMinDeposit(uint256)": "8fcc9cfb",
    "setMinShare(uint256)": "2a22fec5",
    "setProtocolFee(uint256,uint256)": "240de277",
    "setProtocolMultisig(address)": "a3bde6ac",
    "setTotalAtomDepositsForTriple(uint256)": "f7533669",
    "setTotalAtomDepositsOnTripleCreation(uint256)": "63ff7ec0",
    "setTripleCreationProtocolFee(uint256)": "6cc18d40",
    "timelocks(bytes32)": "c9ceddb8",
    "tripleConfig()": "1e19e2c8",
    "tripleHash(uint256)": "13aaab97",
    "tripleHashFromAtoms(uint256,uint256,uint256)": "7c373661",
    "triples(uint256,uint256)": "cfc15f15",
    "triplesByHash(bytes32)": "59b125d2",
    "unpause()": "3f4ba83a",
    "vaultFees(uint256)": "22061379",
    "vaults(uint256)": "8c64ea4a",
    "walletConfig()": "d34ddc05"
  },
  "storageLayout": {
    "storage": [
      {
        "astId": 60006,
        "contract": "src/EthMultiVault.sol:EthMultiVault",
        "label": "generalConfig",
        "offset": 0,
        "slot": "0",
        "type": "t_struct(GeneralConfig)66314_storage"
      },
      {
        "astId": 60009,
        "contract": "src/EthMultiVault.sol:EthMultiVault",
        "label": "atomConfig",
        "offset": 0,
        "slot": "8",
        "type": "t_struct(AtomConfig)66327_storage"
      },
      {
        "astId": 60012,
        "contract": "src/EthMultiVault.sol:EthMultiVault",
        "label": "tripleConfig",
        "offset": 0,
        "slot": "10",
        "type": "t_struct(TripleConfig)66338_storage"
      },
      {
        "astId": 60015,
        "contract": "src/EthMultiVault.sol:EthMultiVault",
        "label": "walletConfig",
        "offset": 0,
        "slot": "13",
        "type": "t_struct(WalletConfig)66353_storage"
      },
      {
        "astId": 60018,
        "contract": "src/EthMultiVault.sol:EthMultiVault",
        "label": "count",
        "offset": 0,
        "slot": "17",
        "type": "t_uint256"
      },
      {
        "astId": 60024,
        "contract": "src/EthMultiVault.sol:EthMultiVault",
        "label": "vaults",
        "offset": 0,
        "slot": "18",
        "type": "t_mapping(t_uint256,t_struct(VaultState)66363_storage)"
      },
      {
        "astId": 60030,
        "contract": "src/EthMultiVault.sol:EthMultiVault",
        "label": "vaultFees",
        "offset": 0,
        "slot": "19",
        "type": "t_mapping(t_uint256,t_struct(VaultFees)66374_storage)"
      },
      {
        "astId": 60037,
        "contract": "src/EthMultiVault.sol:EthMultiVault",
        "label": "approvals",
        "offset": 0,
        "slot": "20",
        "type": "t_mapping(t_address,t_mapping(t_address,t_bool))"
      },
      {
        "astId": 60042,
        "contract": "src/EthMultiVault.sol:EthMultiVault",
        "label": "atoms",
        "offset": 0,
        "slot": "21",
        "type": "t_mapping(t_uint256,t_bytes_storage)"
      },
      {
        "astId": 60046,
        "contract": "src/EthMultiVault.sol:EthMultiVault",
        "label": "atomsByHash",
        "offset": 0,
        "slot": "22",
        "type": "t_mapping(t_bytes32,t_uint256)"
      },
      {
        "astId": 60052,
        "contract": "src/EthMultiVault.sol:EthMultiVault",
        "label": "triples",
        "offset": 0,
        "slot": "23",
        "type": "t_mapping(t_uint256,t_array(t_uint256)3_storage)"
      },
      {
        "astId": 60056,
        "contract": "src/EthMultiVault.sol:EthMultiVault",
        "label": "triplesByHash",
        "offset": 0,
        "slot": "24",
        "type": "t_mapping(t_bytes32,t_uint256)"
      },
      {
        "astId": 60060,
        "contract": "src/EthMultiVault.sol:EthMultiVault",
        "label": "isTriple",
        "offset": 0,
        "slot": "25",
        "type": "t_mapping(t_uint256,t_bool)"
      },
      {
        "astId": 60066,
        "contract": "src/EthMultiVault.sol:EthMultiVault",
        "label": "timelocks",
        "offset": 0,
        "slot": "26",
        "type": "t_mapping(t_bytes32,t_struct(Timelock)66385_storage)"
      },
      {
        "astId": 60074,
        "contract": "src/EthMultiVault.sol:EthMultiVault",
        "label": "bondingCurveVaults",
        "offset": 0,
        "slot": "27",
        "type": "t_mapping(t_uint256,t_mapping(t_uint256,t_struct(VaultState)66363_storage))"
      },
      {
        "astId": 60078,
        "contract": "src/EthMultiVault.sol:EthMultiVault",
        "label": "bondingCurveConfig",
        "offset": 0,
        "slot": "28",
        "type": "t_struct(BondingCurveConfig)66319_storage"
      },
      {
        "astId": 60083,
        "contract": "src/EthMultiVault.sol:EthMultiVault",
        "label": "__gap",
        "offset": 0,
        "slot": "30",
        "type": "t_array(t_uint256)47_storage"
      }
    ],
    "types": {
      "t_address": {
        "encoding": "inplace",
        "label": "address",
        "numberOfBytes": "20"
      },
      "t_array(t_uint256)3_storage": {
        "encoding": "inplace",
        "label": "uint256[3]",
        "numberOfBytes": "96",
        "base": "t_uint256"
      },
      "t_array(t_uint256)47_storage": {
        "encoding": "inplace",
        "label": "uint256[47]",
        "numberOfBytes": "1504",
        "base": "t_uint256"
      },
      "t_bool": {
        "encoding": "inplace",
        "label": "bool",
        "numberOfBytes": "1"
      },
      "t_bytes32": {
        "encoding": "inplace",
        "label": "bytes32",
        "numberOfBytes": "32"
      },
      "t_bytes_storage": {
        "encoding": "bytes",
        "label": "bytes",
        "numberOfBytes": "32"
      },
      "t_contract(IPermit2)67355": {
        "encoding": "inplace",
        "label": "contract IPermit2",
        "numberOfBytes": "20"
      },
      "t_mapping(t_address,t_bool)": {
        "encoding": "mapping",
        "key": "t_address",
        "label": "mapping(address => bool)",
        "numberOfBytes": "32",
        "value": "t_bool"
      },
      "t_mapping(t_address,t_mapping(t_address,t_bool))": {
        "encoding": "mapping",
        "key": "t_address",
        "label": "mapping(address => mapping(address => bool))",
        "numberOfBytes": "32",
        "value": "t_mapping(t_address,t_bool)"
      },
      "t_mapping(t_address,t_uint256)": {
        "encoding": "mapping",
        "key": "t_address",
        "label": "mapping(address => uint256)",
        "numberOfBytes": "32",
        "value": "t_uint256"
      },
      "t_mapping(t_bytes32,t_struct(Timelock)66385_storage)": {
        "encoding": "mapping",
        "key": "t_bytes32",
        "label": "mapping(bytes32 => struct IEthMultiVault.Timelock)",
        "numberOfBytes": "32",
        "value": "t_struct(Timelock)66385_storage"
      },
      "t_mapping(t_bytes32,t_uint256)": {
        "encoding": "mapping",
        "key": "t_bytes32",
        "label": "mapping(bytes32 => uint256)",
        "numberOfBytes": "32",
        "value": "t_uint256"
      },
      "t_mapping(t_uint256,t_array(t_uint256)3_storage)": {
        "encoding": "mapping",
        "key": "t_uint256",
        "label": "mapping(uint256 => uint256[3])",
        "numberOfBytes": "32",
        "value": "t_array(t_uint256)3_storage"
      },
      "t_mapping(t_uint256,t_bool)": {
        "encoding": "mapping",
        "key": "t_uint256",
        "label": "mapping(uint256 => bool)",
        "numberOfBytes": "32",
        "value": "t_bool"
      },
      "t_mapping(t_uint256,t_bytes_storage)": {
        "encoding": "mapping",
        "key": "t_uint256",
        "label": "mapping(uint256 => bytes)",
        "numberOfBytes": "32",
        "value": "t_bytes_storage"
      },
      "t_mapping(t_uint256,t_mapping(t_uint256,t_struct(VaultState)66363_storage))": {
        "encoding": "mapping",
        "key": "t_uint256",
        "label": "mapping(uint256 => mapping(uint256 => struct IEthMultiVault.VaultState))",
        "numberOfBytes": "32",
        "value": "t_mapping(t_uint256,t_struct(VaultState)66363_storage)"
      },
      "t_mapping(t_uint256,t_struct(VaultFees)66374_storage)": {
        "encoding": "mapping",
        "key": "t_uint256",
        "label": "mapping(uint256 => struct IEthMultiVault.VaultFees)",
        "numberOfBytes": "32",
        "value": "t_struct(VaultFees)66374_storage"
      },
      "t_mapping(t_uint256,t_struct(VaultState)66363_storage)": {
        "encoding": "mapping",
        "key": "t_uint256",
        "label": "mapping(uint256 => struct IEthMultiVault.VaultState)",
        "numberOfBytes": "32",
        "value": "t_struct(VaultState)66363_storage"
      },
      "t_struct(AtomConfig)66327_storage": {
        "encoding": "inplace",
        "label": "struct IEthMultiVault.AtomConfig",
        "numberOfBytes": "64",
        "members": [
          {
            "astId": 66323,
            "contract": "src/EthMultiVault.sol:EthMultiVault",
            "label": "atomWalletInitialDepositAmount",
            "offset": 0,
            "slot": "0",
            "type": "t_uint256"
          },
          {
            "astId": 66326,
            "contract": "src/EthMultiVault.sol:EthMultiVault",
            "label": "atomCreationProtocolFee",
            "offset": 0,
            "slot": "1",
            "type": "t_uint256"
          }
        ]
      },
      "t_struct(BondingCurveConfig)66319_storage": {
        "encoding": "inplace",
        "label": "struct IEthMultiVault.BondingCurveConfig",
        "numberOfBytes": "64",
        "members": [
          {
            "astId": 66316,
            "contract": "src/EthMultiVault.sol:EthMultiVault",
            "label": "registry",
            "offset": 0,
            "slot": "0",
            "type": "t_address"
          },
          {
            "astId": 66318,
            "contract": "src/EthMultiVault.sol:EthMultiVault",
            "label": "defaultCurveId",
            "offset": 0,
            "slot": "1",
            "type": "t_uint256"
          }
        ]
      },
      "t_struct(GeneralConfig)66314_storage": {
        "encoding": "inplace",
        "label": "struct IEthMultiVault.GeneralConfig",
        "numberOfBytes": "256",
        "members": [
          {
            "astId": 66292,
            "contract": "src/EthMultiVault.sol:EthMultiVault",
            "label": "admin",
            "offset": 0,
            "slot": "0",
            "type": "t_address"
          },
          {
            "astId": 66295,
            "contract": "src/EthMultiVault.sol:EthMultiVault",
            "label": "protocolMultisig",
            "offset": 0,
            "slot": "1",
            "type": "t_address"
          },
          {
            "astId": 66298,
            "contract": "src/EthMultiVault.sol:EthMultiVault",
            "label": "feeDenominator",
            "offset": 0,
            "slot": "2",
            "type": "t_uint256"
          },
          {
            "astId": 66301,
            "contract": "src/EthMultiVault.sol:EthMultiVault",
            "label": "minDeposit",
            "offset": 0,
            "slot": "3",
            "type": "t_uint256"
          },
          {
            "astId": 66304,
            "contract": "src/EthMultiVault.sol:EthMultiVault",
            "label": "minShare",
            "offset": 0,
            "slot": "4",
            "type": "t_uint256"
          },
          {
            "astId": 66307,
            "contract": "src/EthMultiVault.sol:EthMultiVault",
            "label": "atomUriMaxLength",
            "offset": 0,
            "slot": "5",
            "type": "t_uint256"
          },
          {
            "astId": 66310,
            "contract": "src/EthMultiVault.sol:EthMultiVault",
            "label": "decimalPrecision",
            "offset": 0,
            "slot": "6",
            "type": "t_uint256"
          },
          {
            "astId": 66313,
            "contract": "src/EthMultiVault.sol:EthMultiVault",
            "label": "minDelay",
            "offset": 0,
            "slot": "7",
            "type": "t_uint256"
          }
        ]
      },
      "t_struct(Timelock)66385_storage": {
        "encoding": "inplace",
        "label": "struct IEthMultiVault.Timelock",
        "numberOfBytes": "96",
        "members": [
          {
            "astId": 66378,
            "contract": "src/EthMultiVault.sol:EthMultiVault",
            "label": "data",
            "offset": 0,
            "slot": "0",
            "type": "t_bytes_storage"
          },
          {
            "astId": 66381,
            "contract": "src/EthMultiVault.sol:EthMultiVault",
            "label": "readyTime",
            "offset": 0,
            "slot": "1",
            "type": "t_uint256"
          },
          {
            "astId": 66384,
            "contract": "src/EthMultiVault.sol:EthMultiVault",
            "label": "executed",
            "offset": 0,
            "slot": "2",
            "type": "t_bool"
          }
        ]
      },
      "t_struct(TripleConfig)66338_storage": {
        "encoding": "inplace",
        "label": "struct IEthMultiVault.TripleConfig",
        "numberOfBytes": "96",
        "members": [
          {
            "astId": 66331,
            "contract": "src/EthMultiVault.sol:EthMultiVault",
            "label": "tripleCreationProtocolFee",
            "offset": 0,
            "slot": "0",
            "type": "t_uint256"
          },
          {
            "astId": 66334,
            "contract": "src/EthMultiVault.sol:EthMultiVault",
            "label": "totalAtomDepositsOnTripleCreation",
            "offset": 0,
            "slot": "1",
            "type": "t_uint256"
          },
          {
            "astId": 66337,
            "contract": "src/EthMultiVault.sol:EthMultiVault",
            "label": "totalAtomDepositsForTriple",
            "offset": 0,
            "slot": "2",
            "type": "t_uint256"
          }
        ]
      },
      "t_struct(VaultFees)66374_storage": {
        "encoding": "inplace",
        "label": "struct IEthMultiVault.VaultFees",
        "numberOfBytes": "96",
        "members": [
          {
            "astId": 66367,
            "contract": "src/EthMultiVault.sol:EthMultiVault",
            "label": "entryFee",
            "offset": 0,
            "slot": "0",
            "type": "t_uint256"
          },
          {
            "astId": 66370,
            "contract": "src/EthMultiVault.sol:EthMultiVault",
            "label": "exitFee",
            "offset": 0,
            "slot": "1",
            "type": "t_uint256"
          },
          {
            "astId": 66373,
            "contract": "src/EthMultiVault.sol:EthMultiVault",
            "label": "protocolFee",
            "offset": 0,
            "slot": "2",
            "type": "t_uint256"
          }
        ]
      },
      "t_struct(VaultState)66363_storage": {
        "encoding": "inplace",
        "label": "struct IEthMultiVault.VaultState",
        "numberOfBytes": "96",
        "members": [
          {
            "astId": 66356,
            "contract": "src/EthMultiVault.sol:EthMultiVault",
            "label": "totalAssets",
            "offset": 0,
            "slot": "0",
            "type": "t_uint256"
          },
          {
            "astId": 66358,
            "contract": "src/EthMultiVault.sol:EthMultiVault",
            "label": "totalShares",
            "offset": 0,
            "slot": "1",
            "type": "t_uint256"
          },
          {
            "astId": 66362,
            "contract": "src/EthMultiVault.sol:EthMultiVault",
            "label": "balanceOf",
            "offset": 0,
            "slot": "2",
            "type": "t_mapping(t_address,t_uint256)"
          }
        ]
      },
      "t_struct(WalletConfig)66353_storage": {
        "encoding": "inplace",
        "label": "struct IEthMultiVault.WalletConfig",
        "numberOfBytes": "128",
        "members": [
          {
            "astId": 66343,
            "contract": "src/EthMultiVault.sol:EthMultiVault",
            "label": "permit2",
            "offset": 0,
            "slot": "0",
            "type": "t_contract(IPermit2)67355"
          },
          {
            "astId": 66346,
            "contract": "src/EthMultiVault.sol:EthMultiVault",
            "label": "entryPoint",
            "offset": 0,
            "slot": "1",
            "type": "t_address"
          },
          {
            "astId": 66349,
            "contract": "src/EthMultiVault.sol:EthMultiVault",
            "label": "atomWarden",
            "offset": 0,
            "slot": "2",
            "type": "t_address"
          },
          {
            "astId": 66352,
            "contract": "src/EthMultiVault.sol:EthMultiVault",
            "label": "atomWalletBeacon",
            "offset": 0,
            "slot": "3",
            "type": "t_address"
          }
        ]
      },
      "t_uint256": {
        "encoding": "inplace",
        "label": "uint256",
        "numberOfBytes": "32"
      }
    }
  },
  "id": 96
}